:020000040800F2
:1000000088070020CD010008D7120008CF12000891
:10001000D3120008C9020008F11400080000000013
:1000200000000000000000000000000005130008B0
:10003000CD02000800000000D912000807130008D4
:10004000E7010008E7010008E7010008E7010008F0
:10005000E7010008E7010008E7010008E7010008E0
:10006000E7010008E7010008E7010008E7010008D0
:10007000E7010008E7010008E7010008E7010008C0
:10008000E7010008E7010008E7010008E7010008B0
:10009000E7010008E7010008E7010008CF020008B7
:1000A000E7010008E7010008E7010008E701000890
:1000B000E7010008E7010008E7010008E701000880
:1000C000E7010008E7010008E7010008E701000870
:1000D000E7010008CD140008E7010008E701000867
:1000E000E7010008E7010008E7010008E701000850
:1000F000E7010008E7010008E7010008E701000840
:10010000E7010008E7010008E7010008E70100082F
:10011000E7010008E7010008E7010008E70100081F
:10012000E7010008E7010008E7010008E70100080F
:1001300000F002F800F03AF80AA090E8000C8244BF
:100140008344AAF10107DA4501D100F02FF8AFF29C
:10015000090EBAE80F0013F0010F18BFFB1A43F0A5
:1001600001031847FC1400001C150000103A24BFBE
:1001700078C878C1FAD8520724BF30C830C144BF0C
:1001800004680C607047000000230024002500264E
:10019000103A28BF78C1FBD8520728BF30C148BFEA
:1001A0000B6070471FB51FBD10B510BD00F05AF8A9
:1001B0001146FFF7F7FF01F03BFA00F078F803B4BF
:1001C000FFF7F2FF03BC01F0B1F9000009488047D6
:1001D00009480047FEE7FEE7FEE7FEE7FEE7FEE729
:1001E000FEE7FEE7FEE7FEE704480549054A064B41
:1001F00070470000751300083101000888010020D5
:1002000088070020880300208803002070474FF0F3
:10021000000200B5134694469646203922BFA0E856
:100220000C50A0E80C50B1F12001BFF4F7AF090762
:1002300028BFA0E80C5048BF0CC05DF804EB890053
:1002400028BF40F8042B08BF704748BF20F8022B96
:1002500011F0804F18BF00F8012B704770477047AE
:1002600070477047754600F02BF8AE4605006946AA
:10027000534620F00700854618B020B5FFF7B4FFBD
:10028000BDE820404FF000064FF000074FF0000897
:100290004FF0000B21F00701AC46ACE8C009ACE818
:1002A000C009ACE8C009ACE8C0098D46704710B57C
:1002B0000446AFF300802046BDE81040FFF77FBF43
:1002C000004870472401002000BFFEE7704710B5CA
:1002D0004FF4007000F0F6F810BD000070B5044651
:1002E000002594F82100022803D00420A0630125F2
:1002F000C1E02068006820F00E00216808602068D6
:10030000006820F00100216808605C49206888428C
:1003100052D95A4978392068884201D1012047E0F2
:10032000564964392068884201D1102040E0534981
:1003300050392068884201D1801539E04F493C3955
:100340002068884201D1801432E04C492839206865
:10035000884202D14FF480302AE04849143920689D
:10036000884202D14FF4801022E04449206888423C
:1003700001D140041CE042492068884201D101209B
:1003800016E03F4914312068884201D110200FE067
:100390003B4928312068884201D1801508E038495E
:1003A0003C312068884201D1801401E04FF4803054
:1003B0003349091F086051E0304978392068884284
:1003C00001D1012047E02D4964392068884201D1DC
:1003D000102040E0294950392068884201D1801519
:1003E00039E026493C392068884201D1801432E046
:1003F000224928392068884202D14FF480302AE00F
:100400001E4914392068884202D14FF4801022E03E
:100410001A492068884201D140041CE0184920682C
:10042000884201D1012016E0154914312068884224
:1004300001D110200FE0124928312068884201D1F3
:10044000801508E00E493C312068884201D18014B3
:1004500001E04FF48030094980394860012084F878
:10046000210000BF002084F8200000BF606B10B1A5
:100470002046616B8847284670BD0000800002401E
:100480000804024010B50446142001F065F8B4F5E4
:10049000007F11D14FF40071084800F0C1F930B964
:1004A00000224FF40051064800F0C2F904E0012296
:1004B0005103034800F0BCF910BD0000000C0140DE
:1004C0000010014010B5044604480068204020B1E7
:1004D000024804602046FFF7D5FF10BD1404014018
:1004E0002DE9F847024600239C467BE14FF00108C6
:1004F00008FA03F4D1F8008008EA0400A0427DD194
:10050000DFF8F4A2D1F80480A8EB0A09D0453AD06C
:1005100014DCB8F1030F50D009DCB8F1000F31D072
:10052000B8F1010F1CD0B8F1020F49D120E0B8F1A9
:10053000110F18D0B8F1120F42D11EE0B9F5881F83
:1005400025D006DCB9F5803F20D0B9F5801F37D122
:100550001AE0B9F5001F18D0B9F5041F30D117E023
:10056000D1F80CC02DE0D1F80C8008F1040C28E083
:10057000D1F80C8008F1080C23E0D1F80C8008F1C8
:100580000C0C1EE000BF00BF00BF00BF00BF00BFDB
:10059000D1F80880B8F1000F02D14FF0040C0BE045
:1005A000D1F80880B8F1010F03D14FF0080C1461A5
:1005B00002E04FF0080C546103E04FF0000C00E043
:1005C00000BF00BFFF2801D8904601E002F10408F7
:1005D0004646FF2802D84FEA830803E0A3F1080843
:1005E0004FEA88084746D6F800804FF00F0909FA0D
:1005F00007F928EA09080CFA07F900E07AE048EA66
:100600000908C6F80080D1F8048008F08058B8F1D5
:10061000805F6FD100BFDFF8E481D8F8188048F020
:100620000108DFF8D891C9F81880C846D8F81880B2
:1006300008F00108CDF8008000BF00BF4FEAB938CC
:100640004FEA930958F829504FEA83784FEA18790E
:100650004FF00F0808FA09F825EA0805DFF8A0812D
:10066000424502D14FF0000824E0DFF8988142456E
:1006700002D14FF001081DE0DFF88C81424502D124
:100680004FF0020816E0DFF88481424502D14FF0B6
:1006900003080FE0DFF87881424502D14FF00408EB
:1006A00008E0DFF87081424502D14FF0050801E013
:1006B0004FF006084FEA83794FEA197908FA09F8EA
:1006C00048EA0505DFF850814FEA930948F82950B8
:1006D000D1F8048008F48038B8F5803F0BD1DFF8FA
:1006E0003C81D8F8008048EA0008DFF83091C9F86A
:1006F00000800AE075E0DFF82481D8F8008028EA5D
:100700000008DFF81891C9F80080D1F8048008F4D7
:100710000038B8F5003F0ED1DFF8008108F1040879
:10072000D8F8008048EA0008DFF8F09009F10409E1
:10073000C9F800800DE0DFF8E48008F10408D8F87B
:10074000008028EA0008DFF8D49009F10409C9F80C
:100750000080D1F8048008F48018B8F5801F0ED10D
:10076000DFF8B88008F10808D8F8008048EA0008E7
:10077000DFF8A89009F10809C9F800800DE0DFF85A
:100780009C8008F10808D8F8008028EA0008DFF803
:100790008C9009F10809C9F80080D1F8048008F4A8
:1007A0000018B8F5001F0ED1DFF8708008F10C08B2
:1007B000D8F8008048EA0008DFF8609009F10C09D9
:1007C000C9F800800DE0DFF8548008F10C08D8F873
:1007D000008028EA0008DFF8449009F10C09C9F804
:1007E00000805B1CD1F8008028FA03F8B8F1000FF4
:1007F0007FF47CAEBDE8F8870000111000100240C5
:1008000000080140000C01400010014000140140AC
:1008100000180140001C0140080001400004014094
:10082000024693680B400BB1012000E000207047A6
:100830000AB1016101E00B040361704701480068DF
:100840007047000010000020034800680349097841
:10085000084401490860704710000020180000207B
:1008600010B50848006840F01000064908600520EF
:1008700000F080F80F2000F007F800F02BF80020BF
:1008800010BD00000020024070B504460E480078FC
:100890004FF47A71B1FBF0F00C490968B1FBF0F547
:1008A000284600F0D1FB08B1012070BD102C07D202
:1008B00000222146501E00F01EF80548046001E0A9
:1008C0000120F2E70020F0E71800002000000020DF
:1008D00014000020704701460846002809DB00F09C
:1008E0001F0301229A4043099B0003F1E023C3F850
:1008F000002100BF70472DE9F05F80460D46164687
:10090000002700F0F7FD074639462A46334601F036
:100910000700C0F1070ABAF1040F02D94FF0040A28
:1009200001E0C0F1070AD14600F1040ABAF1070F4D
:1009300002D24FF0000A01E0A0F1030AD4464FF0C2
:10094000010A0AFA09FAAAF1010A0AEA020A0AFAEB
:100950000CFA4FF0010B0BFA0CFBABF1010B0BEA9D
:10096000030B4AEA0B042146404600F0CBFDBDE8EC
:10097000F09F000000BF00F00702064B19684FF619
:10098000FF031940044B0B4343EA0221014B19605A
:1009900000BF70470CED00E00000FA0570B504469A
:1009A0000D460CB9012070BD5A48006800F00700E0
:1009B000A8420ED25748006820F007002843554946
:1009C00008600846006800F00700A84201D0012036
:1009D000E9E7207800F0020002281DD1207800F01D
:1009E0000400042805D14C48406840F4E0604A49BE
:1009F0004860207800F00800082805D14648406883
:100A000040F46050444948604348406820F0F0009A
:100A1000A168084340494860207800F0010078B39D
:100A20006068012806D13C48006800F4003090B9A5
:100A30000120B8E76068022806D13748006800F056
:100A4000007040B90120AEE73348006800F00200B2
:100A500008B90120A7E73048406820F0030061682A
:100A600008432D494860FFF7E9FE064609E0FFF715
:100A7000E5FE801B41F28831884202D9032092E7CB
:100A800007E02548406800F00C006168B0EB810F7A
:100A9000EDD12048006800F00700A8420ED91D489B
:100AA000006820F0070028431A49086008460068DB
:100AB00000F00700A84201D0012074E7207800F080
:100AC0000400042807D11448406820F4E060E1687D
:100AD000084311494860207800F00800082808D130
:100AE0000D48406820F46050216940EAC1000A497D
:100AF000486000F019F808494968C1F30311074A32
:100B0000515CC8400649086006480068FFF7BCFE13
:100B1000002048E70020024000100240461600086E
:100B20000000002014000020F0B585B00FF26C0C1E
:100B30009CE8E01001A8A0E8E0101CA52D68009535
:100B400000210022002300240020194D696801F0D3
:100B50000C05F5B1042D02D0082D19D101E015487E
:100B600019E001ADC1F38346AC5D01F4803555B1A8
:100B70000F4D6D68C5F340451DF805200D4D6543CB
:100B8000B5FBF2F302E00C4D04FB05F3184602E05E
:100B900000BF084800BF00BF05B0F0BD0203040558
:100BA000060708090A0B0C0D0E0F101001020000B9
:100BB0000010024000127A0000093D00F8B504461A
:100BC0000CB90120F8BD207800F00100002878D091
:100BD000F848406800F00C0004280CD0F548406844
:100BE00000F00C00082811D1F248406800F4803071
:100BF000B0F5803F0AD1EF48006800F400300028CB
:100C00005FD0606800285CD10120DBE700BF60682E
:100C1000B0F5803F06D1E748006840F48030E549F0
:100C2000086028E0606858B9E248006820F4803025
:100C3000E04908600846006820F4802008601AE057
:100C40006068B0F5A02F0BD1DA48006840F480202E
:100C5000D84908600846006840F4803008600AE01F
:100C6000D448006820F48030D24908600846006803
:100C700020F48020086000BF606888B1FFF7DEFDC7
:100C8000054606E0FFF7DAFD401B642801D9032082
:100C900098E7C848006800F400300028F2D010E05F
:100CA000FFF7CCFD054606E0FFF7C8FD401B6428B2
:100CB00001D9032086E7BF48006800F4003000280F
:100CC000F2D1207800F00200022857D1B9484068DC
:100CD00000F00C0050B1B748406800F00C00082844
:100CE00018D1B448406800F4803098B9B148006821
:100CF00000F0020020B12069012801D0012061E745
:100D0000AC48006820F0F800616940EAC100A949D8
:100D1000086033E02069E8B10120A7490860FFF7C7
:100D20008DFD054606E0FFF789FD401B022801D92D
:100D3000032047E79F48006800F002000028F2D037
:100D40009C48006820F0F800616940EAC1009949B8
:100D5000086013E0002098490860FFF76FFD054622
:100D600006E0FFF76BFD401B022801D9032029E7AD
:100D70009048006800F002000028F2D1207800F0CE
:100D8000080008282DD1A069B8B101208B4908605E
:100D9000FFF754FD054606E0FFF750FD401B022813
:100DA00001D903200EE78348406A00F002000028C2
:100DB000F2D0012000F092FA13E000207F49086091
:100DC000FFF73CFD054606E0FFF738FD401B022813
:100DD00001D90320F6E67748406A00F002000028B7
:100DE000F2D1207800F00400042873D10027714864
:100DF000C06900F0805070B900BF6E48C06940F013
:100E000080506C49C8610846C06900F0805000906D
:100E100000BF00BF01276A48006800F48070B0B9C5
:100E20006748006840F4807065490860FFF706FD78
:100E3000054606E0FFF702FD401B642801D90320A8
:100E4000C0E65F48006800F480700028F2D000BF60
:100E5000E068012806D15748006A40F00100554972
:100E6000086227E0E06858B95248006A20F00100A3
:100E7000504908620846006A20F00400086219E040
:100E8000E06805280BD14B48006A40F0040049494E
:100E900008620846006A40F0010008620AE045481E
:100EA000006A20F00100434908620846006A20F009
:100EB0000400086200BFE068A0B1FFF7BFFC054670
:100EC00009E0FFF7BBFC401B41F28831884202D9A0
:100ED000032077E622E03748006A00F0020000288D
:100EE000EFD012E0FFF7AAFC054608E0FFF7A6FCEA
:100EF000401B41F28831884201D9032062E62D4827
:100F0000006A00F002000028F0D1012F05D1294825
:100F1000C06920F080502749C86100BFE069C8B3AC
:100F20002448406800F00C00082860D0E0690228DE
:100F300048D1002020490866FFF780FC054606E0FE
:100F4000FFF77CFC401B022801D903203AE6194830
:100F5000006800F000700028F2D1206AB0F5803FF0
:100F600007D11448406820F40030A16808431149B3
:100F70004860D4E9080108430E49496821F4741116
:100F800008430C49486001200B490866FFF756FCEE
:100F9000054607E03DE0FFF751FC401B022801D960
:100FA00003200FE60348006800F000700028F2D02C
:100FB0002FE0000000100240000042428004424244
:100FC00000700040002014490866FFF737FC054612
:100FD00006E0FFF733FC401B022801D90320F1E5AE
:100FE0000E48006800F000700028F2D111E0E069BE
:100FF000012800D1E6E50948466806F48031206AF8
:10100000814204D106F47011606A814201D001204E
:10101000D8E50020D6E50000000042420010024062
:10102000042808D14FF0E021096941F004014FF094
:10103000E022116107E04FF0E021096921F004018D
:101040004FF0E0221161704770B504462546681ED6
:10105000B0F1807F01D301200FE0681E4FF0E02146
:1010600048610F214FF0FF3000F04CFA00204FF0A4
:10107000E021886107200861002070BD70470000F2
:101080002DE9F0470446206805682068C668206896
:1010900047694FF00008C14605F00F08B8F1000F8E
:1010A0000AD105F0200038B106F0200020B120461A
:1010B00000F08BF9BDE8F087B8F1000F71D007F0B0
:1010C000010018B906F4907000286AD005F00100FC
:1010D00030B106F4807018B1E06B40F00100E063BD
:1010E00005F0040030B107F0010018B1E06B40F0EA
:1010F0000200E06305F0020030B107F0010018B112
:10110000E06B40F00400E06305F0080048B106F031
:10111000200010B907F0010018B1E06B40F00800A2
:10112000E063E06B68B305F0200028B106F0200012
:1011300010B1204600F049F920684069C0F38019D9
:10114000E06B00F0080010B9B9F1000F22D0204682
:1011500000F01BF92068406900F04000B0B1206841
:10116000406920F0400021684861606B50B1184828
:10117000616B4863606BFFF7B1F810B1606B416B56
:1011800088470CE02046FFF779FF08E02046FFF78C
:1011900075FF04E02046FFF771FF0020E06389E758
:1011A000FFE705F0800030B106F0800018B120465E
:1011B00000F05BF97EE705F0400030B106F040003A
:1011C00018B1204600F0F1F874E700BF72E70000A4
:1011D0007713000810B5034693F83A0020282FD162
:1011E00001B10AB9012010BD00BF93F838000128F1
:1011F00001D10220F7E7012083F8380000BF99628F
:101200009A85DA850020D863222083F83A0000BF4F
:10121000002083F8380000BF1868C06840F4807070
:101220001C68E0601868406940F001001C6860615B
:101230001868C06840F020001C68E0600020D2E719
:101240000220D0E71D4A0168914236D11C49098825
:1012500001F4004189BB1A49098801F4804171B148
:10126000184909780A2903D00021154A118024E081
:101270001349098841F40041114A11801DE01149C8
:1012800009780D2906D10E49098841F480410C4A9C
:10129000118012E00B490978094A1288C2F30D0245
:1012A000094B995406490988491C054A1180114681
:1012B0000988C72901DD00211180704700380140ED
:1012C0000C0000200E0000201C000020704700BF12
:1012D000FEE700BFFEE770477047000008B5084909
:1012E0000968C9084FF47A72B1FBF2F141430091E9
:1012F00000BF00BF00994A1E00920029F9D108BD25
:1013000000000020704710B5FFF79EFA10BD00B531
:101310008FB0282105A8FEF77AFF14216846FEF752
:1013200076FF012005900004069000200790012020
:10133000099002200C90C1030D914FF4E0110E9121
:1013400005A8FFF73BFC08B100BFFEE70F200090A7
:1013500002200190002002904FF480600390002052
:10136000049002216846FFF719FB08B100BFFEE7B1
:101370000FB000BD704770B505466C6A0020E0856F
:10138000E0842046FFF77AFE70BD0168C96821F449
:1013900090710268D1600168496921F00101026819
:1013A0005161202180F83A10704710B5044620683A
:1013B000C06820F040002168C860202084F839000F
:1013C0002046FFF783FF002010BD70B5044694F857
:1013D0003A00222847D1A068B0F5805F0CD120697F
:1013E00050B90025A66A20684068C0F30800308024
:1013F000A06A801CA06215E0A56A0026A068B0F56E
:10140000805F03D0A06828B9206918B920684068B7
:10141000287004E02068406800F07F002870A06A0F
:10142000401CA062E08D401E80B2E085C8B92068F3
:10143000C06820F020002168C8602068C06820F4DF
:1014400080702168C8602068406920F00100216830
:101450004861202084F83A002046FFF7F3FE002080
:1014600070BD0020FCE70220FAE7014691F8390040
:10147000212828D18868B0F5805F0BD1086948B968
:101480000A6A1088C0F308000B685860086A801C5C
:10149000086205E00B6A581C086218780B685860EF
:1014A000C88C401E80B2C88458B90868C06820F053
:1014B00080000B68D8600868C06840F040000B6886
:1014C000D860002070470220FCE7000010B50648F5
:1014D000FFF7D6FD00BF012204490348FFF77AFE5B
:1014E0000028F8D110BD0000E40000200E0000200C
:1014F00000BFFEE702480068C0F30220704700000A
:101500000CED00E010B5002804DB0A07130E054AB5
:10151000135406E00A07140E034A00F00F031B1FC2
:10152000D45410BD00E400E018ED00E000BF7047A7
:1015300010B5044600204FF0E0210861FFF770FD70
:101540002046E11704EB5171C1F3CF01014A11802C
:1015500010BD00000400002070B504464FF47A70FE
:1015600094FBF0F594FBF0F100FB114603E0074813
:1015700000F00EF86D1E002DF9D12EB14FF47A71E6
:1015800006FB01F000F004F870BD000040420F00BF
:101590000146114A12884A434FF0E0235A61002263
:1015A0009A611A46126942F001021A6100BF4FF0B7
:1015B000E022106900F001021AB100F48032002A22
:1015C000F5D04FF0E022126922F001024FF0E02343
:1015D0001A6100229A6170470400002000B585B0AE
:1015E00000BF1048806940F008000E498861084635
:1015F000806900F00800009000BF00BF481501900E
:10160000094802900120039001A90848FEF768FFED
:10161000002202211720FFF76EF91720FFF75BF970
:1016200005B000BD0010024000002110000C014078
:10163000FFF716F9FFF76BFE4820FFF779FFFFF77A
:10164000CDFF00BFFEE70000000000000000010227
:10165000030406070809000000000102030400005B
:1016600080160008000000201C0000006C0100082B
:101670009C1600081C0000206C0700008801000870
:101680000024F40000000000000000000000000042
:0C1690000000000010000000010000003D
:0400000508000131BD
:00000001FF
