:020000040800F2
:10000000C806002089010008750F0008950E000839
:10001000710F000845020008890F00080000000069
:100020000000000000000000000000007D0F00083C
:100030004902000800000000790F0008810F000845
:10004000A3010008A3010008A3010008A301000800
:10005000A3010008A3010008A3010008A3010008F0
:10006000A3010008A3010008A3010008A3010008E0
:10007000A3010008A3010008A3010008A3010008D0
:10008000A3010008A3010008A3010008A3010008C0
:10009000A3010008A3010008A3010008A3010008B0
:1000A000A3010008A3010008A3010008A3010008A0
:1000B000A3010008A3010008A3010008A301000890
:1000C000A3010008A3010008A3010008A301000880
:1000D000A3010008A3010008A3010008A301000870
:1000E000A3010008A3010008A301000800F002F822
:1000F00000F03AF80AA090E8000C82448344AAF188
:100100000107DA4501D100F02FF8AFF2090EBAE885
:100110000F0013F0010F18BFFB1A43F0010318473B
:10012000CC110000EC110000103A24BF78C878C14F
:10013000FAD8520724BF30C830C144BF04680C60ED
:10014000704700000023002400250026103A28BF35
:1001500078C1FBD8520728BF30C148BF0B60704739
:100160001FB51FBD10B510BD00F031F81146FFF7E7
:10017000F7FF01F067F800F04FF803B4FFF7F2FF64
:1001800003BC00F057F800000948804709480047C1
:10019000FEE7FEE7FEE7FEE7FEE7FEE7FEE7FEE737
:1001A000FEE7FEE704480549054A064B7047000094
:1001B000850F0008ED000008C8000020C8060020D8
:1001C000C8020020C802002070477047704775467B
:1001D00000F02CF8AE4605006946534620F00700B3
:1001E000854618B020B5FFF7DDFFBDE820404FF091
:1001F00000064FF000074FF000084FF0000BAC4630
:10020000ACE8C009ACE8C009ACE8C009ACE8C0097A
:1002100021F007018D46704710B50446AFF300800A
:100220002046BDE81040FFF7A8BF00000048704717
:100230001000002001491820ABBEFEE72600020096
:1002400070470000FEE7000070470000EFF31080E9
:1002500072B600BFFEE700002DE9F04F82B041F218
:100260000042C4F201020E680423904208BF032337
:10027000002E009300F0F68040F2004C4FF6FF7E17
:100280000022C4F2010C0124C1F2100E4FF0000A4A
:100290004FF0000947E000BF012502F00C040F27D2
:1002A000A7402BEA070705FA04F43C4343F826402D
:1002B000D1F804B040F20C455FEACB23DCF80830FB
:1002C00054BF23EA080343EA0803C4F20105CCF84B
:1002D00008302B685FEA8B2454BF23EA080343EA03
:1002E00008032B605FEA8B34DCF8043054BF23EA48
:1002F000080343EA08035FEACB34CCF80430DCF8A7
:1003000000304FF0010454BF23EA080343EA080316
:10031000CCF800300E680AF1010A36FA0AF302F14D
:10032000040200F09F8004FA0AF816EA080FF1D0E0
:100330004B68734512DC122B56D8DFE803F0350BFF
:100340004549555555555555555555555555554D81
:10035000510000BFD1F80C9046E000BF4FF6FF758A
:10036000C1F22105AB420FDC0025C1F21105AB4201
:100370001AD00025C1F21205AB4215D00025C1F2FA
:100380002105AB4210D02FE00025C1F22205AB427F
:100390000AD00025C1F23105AB4205D00025C1F2DB
:1003A0003205AB4220D100BF8B684BB1012B14BF8B
:1003B000C0F81480C0F810804FF0080914E000BFA6
:1003C0004FF0040910E000BFCB6803F108090BE00F
:1003D0004FF0000908E000BFCB6803F1040903E017
:1003E000CB6803F10C0900BF13460546BAF1080FAC
:1003F00024BF203B04352E680F279F40BE4309FAD7
:1004000003F333432B60CB79DB067FF583AF41F2F7
:100410001804C4F2020423684FEA9A0643F0010369
:100420002360236840F6000403F001030193019B5D
:10043000ACF57E7353F826B0C4F20104A0420FD08D
:1004400040F60044C4F20104A0423FF425AF41F25B
:100450000004C4F20104009DA04208BF02251CE76D
:1004600000251AE702B0BDE8F08F0000002A08BF9F
:10047000090401617047000040F2C000C2F20000B0
:100480000068704740F2000040F2C001C2F2000074
:10049000C2F2000100780A6810440860704700004A
:1004A00080B542F20000C4F20200016841F0100180
:1004B0000160032000F072F80F2000F005F800F052
:1004C00027F8002080BD000070B540F20006C2F29F
:1004D000000640F208013278C2F200014FF47A734C
:1004E0000968B3FBF2F20446B1FBF2F1084600F0F2
:1004F0001FFB0F2C4FF0010508D838B94FF0FF3023
:1005000021460022002500F01DF87460284670BDC9
:1005100082B041F21800C4F20200016841F001010A
:100520000160016801F0010101910199416841F008
:1005300080514160406800F080500090009802B007
:100540007047000010B54EF60C5CCEF2000CDCF8E3
:100550000030C3F3022E8EF00704042C28BF0424BD
:10056000BEF103034FF0FF3E0EFA04F438BF002340
:10057000A14399400EFA03F39A43114300F00F028E
:10058000043A624409010C3200F16043B0F1FF3FCC
:10059000C8BF03F56442117010BD00004EF60C5147
:1005A000CEF200010A684FF6FF031A4060F30A22F8
:1005B00042F0806040F0FD70086070472DE9F04324
:1005C00081B0002800F0858042F20008C4F20208E1
:1005D0000446D8F800000D4600F0070088420CD20F
:1005E000D8F8000020F007002843C8F80000D8F829
:1005F000000000F00700A8426BD1206841F2040916
:100600008107C4F2020917D5410705D5D9F80010B2
:1006100041F4E061C9F80010010705D5D9F80010D0
:1006200041F46051C9F80010D9F80010A26821F017
:10063000F0011143C9F80010C00741D1D8F80000FB
:1006400000F00700A8420CD9D8F8000020F00700FD
:100650002843C8F80000D8F8000000F00700A842BE
:1006600037D12068410707D5D9F80010E26821F496
:10067000E0611143C9F80010000708D5D9F800005F
:10068000216920F4605040EAC100C9F80000D9F89F
:10069000002002F00C00082841F20020C0F27A008D
:1006A00050D141F2DA23C2F38341C0F60003595C12
:1006B000D2033BD440F60010C0F23D00484341E075
:1006C000606802280AD001282AD159F8041C89033D
:1006D00008D4012001B0BDE8F08300BF59F8041C24
:1006E0008901F6D5D9F8001021F003010843C9F8B3
:1006F0000000FFF7C1FE064641F28837D9F8000036
:10070000616800F00C00B0EB810F97D0FFF7B4FEEA
:10071000801BB842F2D9032001B0BDE8F08300BFCE
:1007200059F8041C8907D4D5DCE700BFD9F80020AC
:1007300041F2D823C2F34042C0F600039A5C48431A
:10074000B0FBF2F0D9F8001041F2C822C1F3031156
:10075000C0F60002515C40F2080220FA01F140F2BA
:100760000400C2F200000068C2F200021160FFF74C
:10077000ABFE002001B0BDE8F08300002DE9F041A0
:1007800082B0002868D00446007841F20006C00715
:10079000C4F2020625D0706800F00C0004281BD0BB
:1007A000706800F00C00082802D17068C00313D4F0
:1007B0006068002800F06881B0F5A02F00F07C810F
:1007C000B0F5803F00F07C81306820F480303060EC
:1007D000306820F4802076E13068800301D56068BD
:1007E000D0B32078800718D5706810F00C0F07D0B0
:1007F000706800F00C0008286ED17068C0036BD4DC
:100800003068800702D52069012825D130686169E8
:1008100020F0F80040EAC1003060207800071FD4C3
:100820002078400732D4E56995B1706800F00C007B
:10083000082840F08F80012D0ED07068216A00F4E6
:1008400080328A4208D1616A00F47010884203D174
:10085000002002B0BDE8F081012002B0BDE8F081C7
:10086000A069002862D00020C4F242200121C0F813
:100870008014FFF701FE0546706A800700F18C8046
:10088000FFF7FAFD401B0228F6D92AE1F06910F0C3
:10089000805808D1F06940F08050F061F06900F0B4
:1008A00080500090009847F20007C4F200073868B3
:1008B000C00529D4386840F480703860FFF7DCFD4B
:1008C000054600BF3868C0051ED4FFF7D5FD401BA4
:1008D0006428F7D905E100BF2069002840F2000034
:1008E000C4F2422000F0828001210160FFF7C4FDC4
:1008F000054600BF306880073FF588AFFFF7BCFDB5
:10090000401B0228F6D9ECE0E068002800F0808067
:10091000052800F09780012800F09880306A20F0C8
:1009200001003062306A20F0040092E00020C4F23E
:1009300042200021C0F88014FFF79EFD054600BF4D
:10094000706A80077FF56CAFFFF796FD401B0228A9
:10095000F6D9C6E00027C4F2422700203866FFF728
:100960008BFD022D05460BD13068800140F1BE8021
:10097000FFF782FD401B02284FF00300F4D968E71F
:10098000306880017FF564AFFFF776FD401B0228D9
:100990004FF00300F4D95CE740F20800C2F2000017
:1009A000006844F6D351C1F26201A0FB0101480A7C
:1009B000019000BF00BF0198411E002801913FF443
:1009C0002FAF00BF0198411E002801913FF428AFCE
:1009D00000BF0198411E002801913FF421AF00BFE4
:1009E0000198411E00280191E4D119E7002101601E
:1009F000FFF742FD054600BF306880077FF50DAF69
:100A0000FFF73AFD401B02284FF00300F4D920E71E
:100A1000306A20F001003062306A20F00400306259
:100A2000FFF72AFD054641F2883700BF306A80078C
:100A300020D5FFF721FD401BB8424FF00300F5D948
:100A400007E700BF306A40F004003062306A40F0CF
:100A500001003062FFF710FD054641F2883700BF04
:100A6000306A800706D4FFF707FD401BB842F7D96C
:100A700037E000BFB8F1000F7FF4D5AEF06920F089
:100A80008050F061CFE600BF306820F480303060E5
:100A9000306820F480203060FFF7EEFC054600BF90
:100AA000306880037FF59DAEFFF7E6FC401B6428AD
:100AB0004FF00300F4D9CCE6306840F48020306079
:100AC000306840F480303060FFF7D6FC054600BF48
:100AD000306880033FF585AEFFF7CEFC401B6428ED
:100AE000F6D9032002B0BDE8F08100BF206AB0F55E
:100AF000803F05D17168A26821F400311143716013
:100B00007168626A21F47411104308437060012017
:100B10003866FFF7B1FC0446306880013FF598AEB7
:100B2000FFF7AAFC001B02284FF00300F4D990E65F
:100B3000411E0020B0EB116F1CBF012070474EF228
:100B40001002CEF2000251604EF62351CEF20001A7
:100B5000F0230B70072190601160704710B590F87A
:100B60003C20012A4FF0020233D080F83D20026879
:100B7000D2F804E0D2F808C00C682EF070032343CA
:100B800040F2FF74C4F20004A24253600ADCB2F1E6
:100B9000804F13D040F20043C4F200039A420DD0BC
:100BA00011E000BF42F60043C4F201039A4205D0AF
:100BB00040F60003C4F200039A4204D149682CF0C5
:100BC0008003194391600121002280F83D1080F8D4
:100BD0003C20104610BD0000002804BF01207047D3
:100BE00010B5044690F83D0028B9002084F83C0078
:100BF000204600F067F8022084F83D00206840F2AB
:100C0000FF730268C4F2000342F6004C9842C4F23B
:100C1000010C15DCB0F1804F1AD040F20041C4F253
:100C20000001884214D0984218DCB0F1804F1DD0EA
:100C300040F20041C4F20001884217D01AE000BF20
:100C4000604505D040F60001C4F200018842EAD1B7
:100C5000A16822F070020A439842E6DD604505D0A3
:100C600040F60001C4F20001884203D1216922F458
:100C700040720A43A36922F08001D4F804E0E268DC
:100C8000194360450160C262C0F828E002D1616981
:100C9000CCF8301001214161002084F8461084F81E
:100CA0003E1084F83F1084F8401084F8411084F816
:100CB000421084F8431084F8441084F8451084F8F6
:100CC0003D1010BD81B0006840F20041C4F2000147
:100CD000884201D001B0704741F21C00C4F202000A
:100CE000016841F002010160006800F0020000901C
:100CF000009801B07047000080B590F83C20012AB0
:100D00004FF0020200F0C28080F83D20D0F800C011
:100D10004FF67772DCF8083023EA0202CCF808209C
:100D20000B684F2B28DC1F2B44DD202B45D0302BAC
:100D300043D0402B40F0AC80D1F804E0C968DCF827
:100D40002030DCF8202022F00102CCF82020DCF852
:100D5000182022F0F00242EA011123F00A0242EACE
:100D60000E02CCF81810CCF82020DCF8081041F066
:100D7000470121F0300180E06F2B27DDB3F5005FE4
:100D800048D0B3F5805F7AD0702B40F08180D1E9F4
:100D900001E3C968DCF8082043EA0E0322F47F422D
:100DA00043EA01211143CCF80810DCF8081041F0A7
:100DB000770162E00BB1102B6AD1DCF8081021F04A
:100DC0007001194341F0070157E000BF502B35D0A7
:100DD000602B5DD1D1F804E0C968DCF82030DCF884
:100DE000202022F01002CCF82020DCF8182022F479
:100DF000704242EA013123F0A00242EA0E12CCF81E
:100E00001810CCF82020DCF8081041F0670121F020
:100E1000100132E0D1E901E3C968DCF8082043EAB7
:100E20000E0322F47F4243EA01211143CCF808105B
:100E3000DCF8081041F480411FE000BFD1F804E065
:100E4000C968DCF82030DCF8202022F00102CCF860
:100E50002020DCF8182022F0F00242EA011123F0F1
:100E60000A0242EA0E02CCF81810CCF82020DCF876
:100E7000081041F0570121F02001CCF808100022A1
:100E8000012180F83D10002180F83C10104680BD03
:100E90000122F5E7FEE7000070B584B041F21800CA
:100EA000C4F20200016841F2000441F01001016047
:100EB0000168C4F2010401F0100100910099016879
:100EC000002241F02001016000684FF4005100F061
:100ED00020000090009820464FF400550026FFF7B0
:100EE000C5FA0120CDE9010602200390694620469B
:100EF0000095FFF7B1F904B070BD000080B586B071
:100F000040F2780040F200420021C2F20000C4F238
:100F100000020591CDE90311CDE9001153234FF0F3
:100F2000100C4FF6FF7E80E80C5001618161FFF7E5
:100F300053FE002818BFFFF789F94FF48050029044
:100F400040F27800C2F2000002A9FFF7D5FE0028A7
:100F500018BFFFF77BF940F27800C2F20000694643
:100F6000FFF7FCFD002818BFFFF770F906B080BD41
:100F7000FEE70000FEE70000704700007047000039
:100F8000FFF780BA70470000FEE7000070B5CA089E
:100F900042F2C5035A43130D4FF47A724EF2100019
:100FA00003FB121C40F2700ECEF20000B1F57A7F06
:100FB000C2F2000E5ED344F24022C0F20F0213F0E0
:100FC0000304A3F1010153D0DEF8005055434560FE
:100FD00000258560056845F001050560056805F098
:100FE0000115012D0ED1056805F00115012D09D15E
:100FF000056805F00115012D04D1056805F00115FE
:10100000012DEBD00568012C25F0010505604FF09E
:101010000005856004D1013B03292BD381E000BF8B
:10102000DEF80060564346608560056845F00105BE
:10103000056000BF056805F00115012D0ED105689A
:1010400005F00115012D09D1056805F00115012DE7
:1010500004D1056805F00115012DEBD00568022CBF
:1010600025F0010505604FF00005856032D1023B97
:10107000032956D25FEA0C4108BF70BDDEF80010AC
:101080001FFA8CF251434FF47A72514341600021B0
:101090008160016841F00101016000BF016801F059
:1010A000011101290ED1016801F00111012909D1B5
:1010B000016801F00111012904D1016801F0011159
:1010C0000129EBD0016821F001010160002181605C
:1010D00070BD00BFDEF80040544344608560046882
:1010E00044F00104046000BF046804F00114012C02
:1010F0000ED1046804F00114012C09D1046804F035
:101100000114012C04D1046804F00114012CEBD06B
:101110000468033B24F00104046000248460032974
:10112000A8D3002107E000BF0468043B24F00104B9
:10113000046081609ED0DEF80040544344608160CA
:10114000046844F001040460046804F00114012CF4
:101150000ED1046804F00114012C09D1046804F0D4
:101160000114012C04D1046804F00114012CEBD00B
:10117000046824F0010404608160DEF800405443F8
:1011800044608160046844F001040460046804F071
:101190000114012C0ED1046804F00114012C09D1B2
:1011A000046804F00114012C04D1046804F0011453
:1011B000012CEBD0046824F0010404608160DEF8A7
:1011C0000040544344608160046844F001040460BA
:1011D000046804F00114012C0ED1046804F0011419
:1011E000012C09D1046804F00114012C04D1046815
:1011F00004F00114012CEBD0046824F00104046015
:101200008160DEF80040544344608160046844F02B
:1012100001040460046804F00114012C7FF484AF1D
:10122000046804F00114012C7FF47EAF046804F01C
:101230000114012C7FF478AF046804F00114012C30
:10124000E8D071E790B0FFF72BF900240120CDE939
:101250000B44CDE9094406900A904FF4E0104FF496
:10126000803102250F9006A8CDE90714CDE90D5174
:10127000FFF784FA20B1EFF3108072B6FEE700BFEB
:101280000F20CDE901054FF48060CDE9040401A8E9
:1012900002210394FFF792F920B1EFF3108072B6A8
:1012A000FEE700BFFFF7F8FDFFF728FE00F002F8A9
:1012B000FEE7000040F27404C2F2000420464FF43E
:1012C000FA71FFF763FEF9E700000000000000007C
:1012D00001020304060708090102020304050607C8
:1012E00008090A0B0C0D0E0F101000001013000857
:1012F0000000002010000000280100082013000852
:1013000010000020B80600004401000800000000A2
:1013100001000000100000000024F40000000000A4
:04000005080000ED02
:00000001FF
