:020000040800F2
:10000000C00600202902000859130008C512000884
:1000100055130008D50300082D1400080000000047
:100020000000000000000000000000006113000854
:10003000E5030008000000005D13000865130008D8
:10004000430200084302000843020008430200087C
:10005000430200084302000843020008430200086C
:10006000430200084302000843020008430200085C
:10007000430200084302000843020008430200084C
:10008000430200084302000843020008430200083C
:10009000D903000843020008430200084302000895
:1000A000430200084302000843020008430200081C
:1000B000430200084302000843020008430200080C
:1000C00043020008430200084302000843020008FC
:1000D00043020008430200084302000843020008EC
:1000E00043020008430200084302000843020008DC
:1000F00043020008430200084302000843020008CC
:1001000043020008430200084302000843020008BB
:1001100043020008430200084302000843020008AB
:10012000430200084302000843020008430200089B
:10013000430200084302000843020008430200088B
:10014000430200084302000843020008430200087B
:10015000430200084302000843020008430200086B
:10016000430200084302000843020008430200085B
:100170004302000843020008430200080000000098
:10018000430200084302000800F002F800F03CF8C7
:100190000AA090E8000C82448344AAF10107DA45E2
:1001A00001D100F031F8AFF2090EBAE80F0013F0F8
:1001B000010F18BFFB1A43F0010318478813000012
:1001C000A8130000103A24BF78C878C1FAD85207A3
:1001D00024BF30C830C144BF04680C6070470000C1
:1001E0000023002400250026103A28BF78C1FBD840
:1001F000520728BF30C148BF0B6070471FB501F0E0
:100200008CF91FBD10B510BD00F0A9F81146FFF71D
:10021000F5FF01F063F900F0C7F803B4FFF7F2FF50
:1002200003BC00F0CFF800000948804709480047A8
:10023000FEE7FEE7FEE7FEE7FEE7FEE7FEE7FEE796
:10024000FEE7FEE704480549054A064B70470000F3
:100250001914000889010008C0000020C006002011
:10026000C0020020C002002053EA020C00F06980A6
:100270002DE9F04B4FF00006002B1FBFB3FA83F5BA
:1002800003FA05F424FA05F65E4012BF1643B2FAEB
:1002900082F502FA05F4C5F120051EBF22FA05FC1D
:1002A00044EA0C04203556EA044C4FEA144418BFC3
:1002B000641C4FF000084FF00009904271EB030CF2
:1002C00039D3002919BFB1FA81F701FA07F6B0FA5C
:1002D00080F700FA07F6C7F120071EBF20FA07FCD7
:1002E00046EA0C062037B6FBF4FCA7EB0507103FE7
:1002F00007F01F0BCBF120062CFA06F60CFA0BFBCD
:1003000044BFB3460026202FA4BF5E464FF0000B2B
:100310005BEA060C08BF4FF0010B19EB0B0948EB29
:100320000608ABFB027C06FB02CC0BFB03CCC01B1C
:1003300071EB0C01C1E70B46024641464846BDE859
:10034000F08B13B5084318BF4FF0FF300146AFF3F1
:100350000080BDE81C407047704770477047754685
:1003600000F02CF8AE4605006946534620F0070021
:10037000854618B020B5FFF765FFBDE820404FF077
:1003800000064FF000074FF000084FF0000BAC469E
:10039000ACE8C009ACE8C009ACE8C009ACE8C009E9
:1003A00021F007018D46704710B50446AFF3008079
:1003B0002046BDE81040FFF730BF000000487047FE
:1003C0001000002001491820ABBEFEE72600020005
:1003D00070470000FEE7000040F29000C2F200000B
:1003E00000F0F0B870470000EFF3108072B600BF65
:1003F000FEE7000090F82020013A012A08D80068A2
:1004000000F114020020136819431160704700BF07
:1004100000F1240201204FF4802113681943116078
:100420007047000010B590F820E0D0F800C0AEF1A1
:10043000010EBEF1010FDCF808E011D81EF0E05FFC
:1004400018D0CEF3016EBEF1030F1DD100F12401CF
:1004500001204FF400020B681A430A6010BD00BF70
:1004600000F1240101204FF480220B681A430A6036
:1004700010BD00BF00F1240101204FF400120B68F1
:100480001A430A6010BD00BF012000FA0EF0186088
:10049000886818B14B6840EAC30001E0086840056D
:1004A000D1E9033403430CEB0E10C0F88031C0F8DF
:1004B0008441097D012905D100F5C2710B6843F41F
:1004C00080730B605168C0F88C11126800F5C07120
:1004D000C0F88821002001220B681A430A6010BD71
:1004E000B0B590F82020013A012A2FD846F20060DA
:1004F000C4F20000026842F001020260026822F4C5
:100500007C520260D1F814E0CC694A6A0368012C7D
:1005100043EA022202600EF01F024FF0010303FAC9
:1005200002F2C3696FEA020C23EA0203C36113D02B
:100530002CBBC36803EA0C03C360CB688C8844EA15
:10054000034300EBCE0423640B4611E0416A41F4FF
:10055000802141620120B0BDC3681343C3600B68B2
:100560008C8844EA034300EBCE04236401F10C03BE
:100570008C681B8843EA044300EBCE046364436841
:100580008D6943EA0204D1F810E0096A002D08BF22
:1005900003EA0C0444604369BEF1000F43EA02041D
:1005A00008BF03EA0C040129446102D1C169114367
:1005B000C161016821F0010101600020B0BD0000AF
:1005C000704700002DE9F04F81B00446006846698D
:1005D000D0F804908768D0F80CB0D0F810A0D0F80C
:1005E0001880F10704D1002530071DD424E000BF96
:1005F000F90710D00121BA07816009D4780700F10A
:10060000AF80380700F1B680204600F0FBF902E029
:10061000204600F0F9F90025F80500F18780F8037D
:1006200000F1B180300707D51BF0100004D020681E
:1006300045F400751021C160700708D51BF0080053
:1006400005D020680821C160204600F0A3F9B0075A
:1006500006D52068C068800702D0204600F09CF9CB
:10066000700607D51AF0100004D0206845F48065A4
:1006700010210161B00608D51AF0080005D02068E5
:1006800008210161204600F089F9F00606D52068AE
:100690000069800702D0204600F082F9B00308D537
:1006A00019F0100005D0206810214160204600F0AC
:1006B00079F9F00308D519F0080005D02068082161
:1006C0004160204600F0AAF9300440F19B805FEAC7
:1006D000497040F1948006F4807008EA10202843A5
:1006E0005FEA8871014648BF41F00201B20558BF78
:1006F00001465FEA48700D4648BF45F004057005A5
:1007000058BF0D46300540F17A8018F0700000F0B7
:1007100076801038000905286CD8DFE800F003590E
:100720005D61656945F0080564E000BF20684FF42D
:100730008071BA0581600BD4780515D438051DD4B5
:10074000204600F063F9F8037FF56CAF1BE000BFB3
:10075000204600F05DF9F8037FF564AF13E000BFB9
:100760004FF4006558E700BF05F50055F8037FF525
:1007700059AF08E04FF480554EE700BF05F58045BE
:10078000F8037FF54FAF20684FF48031BA038160E2
:100790000AD4780310D4380314D4204600F03AF970
:1007A00030073FF541AF47E7204600F035F9300705
:1007B0003FF53AAF40E700BF05F5004530073FF58C
:1007C00033AF39E705F5803530073FF52DAF33E717
:1007D00045F010050EE000BF45F020050AE000BF1F
:1007E00045F0400506E000BF45F0800502E000BF8F
:1007F00045F480752068816921F07001816120686D
:100800000421416055B1606A40EA050120466162F9
:1008100001B0BDE8F04FFFF7D3BE00BF01B0BDE8A7
:10082000F08F0000B0B5C8B1044690F8200010B9B0
:10083000204600F071F82068016841F00101016074
:1008400000F0CCF9054600BF20684168C90707D110
:1008500000F0C4F9401B0B28F6D312E00120B0BD14
:10086000016821F00201016000F0B8F9054600BFFF
:100870002068416889070DD500F0B0F9401B0B28AE
:10088000F6D3606A052140F400306062012084F8EC
:100890002010B0BD217E0268012922F0800208BF2D
:1008A00080320260617E0268012922F0400208BFA6
:1008B00040320260A17E0268012922F0200208BFB6
:1008C00020320260E17E0268012922F0100218BF86
:1008D00010320260217F0268012922F0080208BF5D
:1008E00008320260617F0268012922F0040208BF19
:1008F00004320260D4E901C2D4E9033561691A43C4
:100900002A431143ACF101021143C16100200121CE
:10091000606284F82010B0BD80B586B0016846F2F0
:100920000040C4F20000814202D006B080BD00BF8A
:10093000002143F630020191C4F20202136900F56E
:10094000D03043F000731361136903F00073019317
:10095000019B0191136843F002031360126802F0D7
:1009600002020192019A4FF4407201920222CDE9F3
:100970000221032104910921059101A900F050F8F9
:1009800014200021002200F0A9F9142000F096F9AB
:1009900006B080BD7047000070470000704700003F
:1009A0007047000070470000B0B5044690F8200082
:1009B00001281DD1022084F820002068016821F060
:1009C0000101016000F00AF9054600BF2068406897
:1009D000C00713D000F002F9401B0B28F6D3606A61
:1009E00040F400306062052084F820000120B0BD92
:1009F000606A40F4002060620120B0BD00206062A7
:100A0000B0BD000070470000704700007047000054
:100A100070470000704700007047000070470000FA
:100A20002DE9F04F82B000F13E4241F6004502F15F
:100A3000FF77C4F2020508224FEAB726A84208BF92
:100A40000722072E38BF4FEAB7224FF0010A0024D1
:100A500000274FF00008009208E000BF023708F1BD
:100A60000108202F04F1040400F0B4800E680AFA93
:100A700008F916EA090FF1D0D1F804A00AF0030B27
:100A8000ABF10106012E17D80322866802FA07FE91
:100A9000CA6826EA0E06BA40324382604268CAF348
:100AA000001522EA090205FA08F54FEA480C6FEA38
:100AB0000E062A4342600BE00322BA40D643BBF144
:100AC000030FBC4604D1BC464FF0030B22E000BF2D
:100AD000C2688D68324005FA0CF52A43BBF1020F5B
:100AE000C26017D16FF0030202EA5802024404F018
:100AF0001C030F25D2F820E005FA03FA0D692EEA4F
:100B00000A0E05FA03F343EA0E031362D1F804A0B8
:100B10000AF0030B02680BFA0CF332401A431AF482
:100B2000403F4FF0010A026098D0002243F6440390
:100B30000192C4F202031A6843F6004E42F4804266
:100B40001A601A68C4F2010E02F480420192019AFE
:100B500028F003024FF6084C7244CFF6FF7C52F89F
:100B60000C3004F00C060F25B540AB43009D05FA90
:100B700006F6334342F80C30DEF808204B6842EAB0
:100B8000090643F60C4CDD0258BF22EA0906CEF8EE
:100B90000860C4F2010CDCF800209D0242EA09065C
:100BA00058BF22EA0906CCF80060DEF804209D0355
:100BB00042EA090658BF22EA0906CEF80460DEF8C8
:100BC0000020DB0342EA090658BF22EA0906CEF8F4
:100BD000006043E702B0BDE8F08F000040F2B800CB
:100BE000C2F200000068704740F2000040F2B80115
:100BF000C2F20000C2F2000100780A6810440860E6
:100C00007047000080B543F60040C4F2020001685E
:100C100041F400710160016841F480610160016884
:100C200041F480710160032000F084F80F2000F08F
:100C300005F800F027F8002080BD000070B540F2F4
:100C40000006C2F2000640F208013278C2F200014A
:100C50004FF47A730968B3FBF2F20446B1FBF2F188
:100C6000084600F019FB0F2C4FF0010508D838B9E1
:100C70004FF0FF3021460022002500F02FF874606D
:100C8000284670BD82B0002043F640010190C4F2B6
:100C900002014A6842F480424A604A6802F4804293
:100CA0000192019A0090086840F08050086008683E
:100CB00000F080500090009802B07047002848BFB4
:100CC000704700F01F01012202FA01F14EF20012FA
:100CD0004009CEF2000242F82010704710B54EF6DF
:100CE0000C5CCEF2000CDCF80030C3F3022E8EF068
:100CF0000704042C28BF0424BEF103034FF0FF3E79
:100D00000EFA04F438BF0023A14399400EFA03F30E
:100D10009A43114300F00F02043A624409010C3275
:100D200000F16043B0F1FF3FC8BF03F564421170AA
:100D300010BD00004EF60C51CEF200010A684FF6CD
:100D4000FF031A4060F30A2242F0806040F0FD7019
:100D5000086070472DE9F041002800F08B8043F6D1
:100D60000808C4F202080446D8F8F8030D4600F05B
:100D70000700884207D288F8F853D8F8F80300F043
:100D80000700A84276D12068810717D5410705D50D
:100D9000D8F8001041F4E051C8F80010010705D55B
:100DA000D8F8001041F46041C8F80010D8F80010DD
:100DB000A26821F0F0011143C8F80010C0073FD12C
:100DC000D8F8F80300F00700A84207D988F8F853CC
:100DD000D8F8F80300F00700A8424BD1206841077B
:100DE00007D5D8F80010E26821F4E0511143C8F8A3
:100DF0000010000708D5D8F80000216920F46040F1
:100E000040EAC100C8F8000000F054F8D8F800101B
:100E100041F23452C1F30311C0F60002515C40F2BA
:100E2000080220FA01F140F20400C2F2000000685A
:100E3000C2F200021160FFF701FF0020BDE8F0815F
:100E40006068811E022907D258F8081C89015CBF1E
:100E50000120BDE8F08111E0012807D158F8081CF5
:100E600089035CBF0120BDE8F08107E058F8081C49
:100E7000890703D40120BDE8F08100BFD8F8001035
:100E800021F003010843C8F80000FFF7A7FE06465B
:100E900041F28837D8F80000616800F00C00B0EB30
:100EA000810F8DD0FFF79AFE801BB842F2D9032044
:100EB000BDE8F08110B543F60404C4F20204606892
:100EC00000F00C0008280BD0042819BF42F20040A3
:100ED000C0F2F40047F64000C0F27D1010BD00BF24
:100EE000206821682368490247F64001C0F27D115D
:100EF00000F03F02C3F388105CBF42F20041C0F231
:100F0000F401A1FB00010023FFF7AEF921680222E2
:100F1000C1F3014102EB4101B0FBF1F010BD000053
:100F20002DE9F04182B000286AD00446007843F6EB
:100F30000006C007C4F202060BD0B06800F00C0037
:100F4000042840F0A1803068800302D56068002842
:100F500056D0207880071AD5B06810F00C0F09D051
:100F6000B06800F00C00082840F0A88070684002CB
:100F700000F1A4803068800702D5E06801283FD1E5
:100F80003068216920F0F80040EAC1003060207824
:100F9000000739D4207840074ED4A5695DB3B06806
:100FA00000F00C00082840F0BD80012D28D07068AA
:100FB000E16900F480028A4222D1216A00F03F02F6
:100FC0008A421DD147F6C071626A0140B1EB821FAF
:100FD00016D1A26A0023CFF6FF7303EBC23200F4EE
:100FE00040316FF30F0291420AD1E16A00F0706064
:100FF000B0EB016F04D1002002B0BDE8F08100BF6A
:10100000012002B0BDE8F0816069002840F20000D4
:10101000C4F2472076D00121C0F8801EFFF7DEFD24
:10102000054600BF706F8007B4D4FFF7D7FD401BA3
:101030000228F7D9DDE000BF306C10F080580AD1EB
:1010400000200190306C40F080503064306C00F033
:1010500080500190019847F20007C4F200073868F9
:10106000C00541D4386840F480703860FFF7B6FDA1
:10107000054600BF3868C00536D4FFF7AFFD401BFA
:101080000228F7D9B5E000BFB06800F00C000828CE
:1010900003D1706840023FF556AF6068B0F5803FFD
:1010A00007D0B0F5A02F40F08D80306840F480204C
:1010B0003060306840F4803030608DE0E0680028B7
:1010C00052D00020C4F2472001210160FFF786FDC5
:1010D000054600BF306880073FF552AFFFF77EFD41
:1010E000401B0228F6D984E0A068012805D0052815
:1010F0004ED1306F40F004003067306F40F0010097
:1011000030674FE00021C0F8801EFFF767FD0546FD
:10111000706F80077FF53EAFFFF760FD401B022830
:10112000F6D966E00027C4F2472700203866FFF7AB
:1011300055FD022D05460BD1306880015ED5FFF7C5
:101140004DFD401B02284FF00300F5D954E700BFC6
:10115000306880017FF54FAFFFF740FD401B02284C
:101160004FF00300F4D947E70020C4F247200021E4
:101170000160FFF733FD0546306880077FF507AF54
:10118000FFF72CFD401B02284FF00300F4D933E792
:10119000316F002821F001013167316F21F0040126
:1011A00031674DD0FFF71AFD054641F2883700BF81
:1011B000306F800756D4FFF711FD401BB842F7D9B6
:1011C00017E000BF3168002821F4803131603168B8
:1011D00021F4802131604FD0FFF700FD054600BFAC
:1011E000306880033FF5B5AEFFF7F8FC401B64287C
:1011F000F6D9032002B0BDE8F08100BF04F11C0560
:101200002FCD08430021CFF6FF7140EA821001EB99
:10121000C3316FF30F0140EA05600843706001209D
:101220003866FFF7DBFC0446306880013FF5E3AE2B
:10123000FFF7D4FC001B02284FF00300F4D9DBE6D3
:10124000FFF7CCFC054641F2883700BF306F8007BE
:1012500008D5FFF7C3FC401BB8424FF00300F5D997
:10126000CAE600BFB8F1000F7FF497AE306C20F0F3
:101270008050306491E600BFFFF7B0FC054600BF28
:10128000306880037FF565AEFFF7A8FC401B64283B
:101290004FF00300F4D9AFE6411E0020B0EB116F10
:1012A0001CBF012070474EF21002CEF200025160C6
:1012B0004EF62351CEF20001F0230B70072190600F
:1012C00011607047FEE7000080B540F2900046F2E2
:1012D0000041C2F20000C4F200010322002380E8B2
:1012E0000E0000F10C014FF4002C4FF4401E81E879
:1012F000085083618383FFF795FA002808BF80BDFB
:10130000BDE88040FFF770B883B0002043F630019D
:101310000290C4F202010A6842F002020A600A68FE
:1013200002F002020292029A01900A6842F001025F
:101330000A600A6802F001020192019A00900868AE
:1013400040F080000860086800F08000009000987D
:1013500003B07047FEE70000FEE7000070470000A2
:1013600070470000FFF740BCB0B592B0002443F6D0
:1013700040000B94CDE90944CDE907440594CDE93B
:101380000344CDE901440094C4F20200016802253F
:1013900041F080510160006800F08050009000989A
:1013A00047F200000094C4F20000016841F480415B
:1013B0000160006800F480400090009801200990CE
:1013C00010200A9008200E90A820CDE90F050420D7
:1013D000119006A80695CDE90C54FFF7A1FD28B1A0
:1013E000EFF3108072B600BFFEE700BF0F20CDE91B
:1013F00001054FF4A05004904FF48050059001A8CF
:1014000005210394FFF7A6FC20B1EFF3108072B61C
:10141000FEE700BF12B0B0BD4EF68850CEF200001D
:10142000016841F47001016070470000FEE70000B0
:10143000B0B582B040F2700CC2F2000C4FF40074F0
:10144000E6464EF8084F0024CCE90444040A8CF820
:101450000100080A8CF80200100A8CF80400180A2F
:101460008CF8060040F2900008258CF803108CF8E8
:1014700005208CF80730C2F2000001AB71466246CD
:10148000CCF818508CF80040FEF7CCFF02B0B0BD8D
:1014900080B58AB0012000210890CDE9061040F205
:1014A0009000CDE90011CDE90211CDE90411C2F29D
:1014B00000006946FFF714F80AB080BD10B5044675
:1014C000FFF772FA20460221FEF794FF002808BFBA
:1014D00010BDBDE81040FEF787BF0000FFF792FB8C
:1014E000FFF742FFFFF710FFFFF7EEFE00F002F8F4
:1014F000FEE70000FFF7CCFF40F29000C2F20000D0
:10150000FFF7DCFF40F2DC5040F2DC5140F2DC52ED
:1015100040F2DC53FFF78CFFF4E7F1EE100A4FF6D0
:10152000FF71C0F2C03120EA010040F04070E1EEEE
:10153000100A7047000000000000000001020304D0
:1015400006070809681500080000002010000000C8
:10155000C40100087815000810000020B006000043
:10156000E001000800000000010000001000000081
:081570000024F400000000005B
:040000050800018965
:00000001FF
