:020000040800F2
:100000006008002091010008ED250008011D00088E
:10001000E925000841040008E92A00080000000062
:10002000000000000000000000000000C52A0008D9
:100030004504000800000000B52A0008C92A00088D
:10004000AB010008AB010008AB010008AB010008E0
:10005000AB010008AB010008AB010008AB010008D0
:10006000AB010008AB010008AB010008AB010008C0
:10007000AB010008AB010008AB010008AB010008B0
:10008000AB010008AB010008AB010008AB010008A0
:10009000AB010008AB010008AB010008AB01000890
:1000A000AB010008AB010008AB010008AB01000880
:1000B000D12A0008AB010008DD2A0008AB010008C6
:1000C000AB010008AB010008AB010008AB01000860
:1000D000AB010008AB010008AB010008AB01000850
:1000E000AB010008AB010008AB01000800F002F80A
:1000F00000F03FF80AA090E8000C82448344AAF183
:100100000107DA4501D100F034F8AFF2090EBAE880
:100110000F0013F0010F18BFFB1A43F0010318473B
:10012000A0350000C0350000103A24BF78C878C15F
:10013000FAD8520724BF30C830C144BF04680C60ED
:10014000704700000023002400250026103A28BF35
:1001500078C1FBD8520728BF30C148BF0B60704739
:10016000642900F07D80002070471FB51FBD10B5C9
:1001700010BD00F02FF91146FFF7F7FF02F0E6FD82
:1001800000F04DF903B4FFF7F2FF03BC00F050F9A3
:100190000948804709480047FEE7FEE7FEE7FEE71B
:1001A000FEE7FEE7FEE7FEE7FEE7FEE70448054957
:1001B000054A064B70470000CD2A0008ED000008F4
:1001C000600200206008002060040020600400201D
:1001D0000FB41CB5074B06AA7B44694600900598EE
:1001E00000F0DBF80020694600F0EAF81CBC5DF87E
:1001F00014FB0000E50100002DE9F0410E46044625
:10020000002020622046E168884730B3252805D0C9
:10021000D4E901219047206A401CF2E7E1682046BA
:1002200000278847050018D0A5F14100192802D8F9
:1002300020354FF400673246294620462760FFF7F5
:100240008FFF40B1012804D0F61D26F007060836BE
:10025000D8E7361DD6E72846DAE7206ABDE8F08100
:100260002DE9F0410646002410687529314616A58F
:1002700010D0AFF30080002802DA404213A507E057
:1002800031688A0701D512A502E0490704D511A5F6
:10029000012401E0AFF3008000210A2206F12407C7
:1002A00009E0B0FBF2FCB0FBF2F302FB1C003030C3
:1002B00078541846491C0028F3D123462A46304674
:1002C000BDE8F04100F00BB8000000002D00000078
:1002D0002B000000200000007047704770472DE998
:1002E000F0470D4699469246044600F124080168FD
:1002F000880604D5E06921F01001216000E00120AA
:10030000A84201DD471B00E00027A1697A1902EB32
:100310000900081AA0612078C00602D42046AFF375
:100320000080002608E0D4E901211AF80600904771
:10033000206A401C761C20624E45F4DB2078C00603
:100340000AD52046AFF3008006E0D4E90121302031
:100350009047206A401C2062381EA7F10107F4DC98
:1003600007E0D4E9012118F805009047206A401CF5
:100370002062281EA5F10105F3DC2046AFF30080C2
:100380002078000602D50220BDE8F0870120FBE7B7
:1003900001694A1C02610878704700B58FB0CDE949
:1003A00001310021059105497944CDE90310114639
:1003B0006846FFF721FF0FB000BD0000E5FFFFFF1B
:1003C0000A6802F8010B0A60704700000048704795
:1003D000280000207546FFF7F9FFAE460500694684
:1003E000534620F00700854618B020B5FFF7DEFE23
:1003F000BDE820404FF000064FF000074FF0000826
:100400004FF0000BAC46ACE8C009ACE8C009ACE862
:10041000C009ACE8C00921F007018D46704710B54E
:100420000446AFF300802046BDE81040FFF7AABEA7
:1004300001491820ABBEFEE726000200704700000D
:10044000FEE7000070470000EFF3108072B600BFB7
:10045000FEE70000B0B5044600F020F9054640F282
:100460000000C2F200000078611C18BF044400BF05
:1004700000F014F9401BA042FAD3B0BD2DE9F04FB3
:1004800082B041F20042C4F201020E68042390429D
:1004900008BF0323002E009300F0F68040F2004CCA
:1004A0004FF6FF7E0022C4F2010C0124C1F2100EAF
:1004B0004FF0000A4FF0000947E000BF012502F0AD
:1004C0000C040F27A7402BEA070705FA04F43C4366
:1004D00043F82640D1F804B040F20C455FEACB2344
:1004E000DCF8083054BF23EA080343EA0803C4F2E7
:1004F0000105CCF808302B685FEA8B2454BF23EA4F
:10050000080343EA08032B605FEA8B34DCF804300D
:1005100054BF23EA080343EA08035FEACB34CCF86C
:100520000430DCF800304FF0010454BF23EA080324
:1005300043EA0803CCF800300E680AF1010A36FAE3
:100540000AF302F1040200F09F8004FA0AF816EAA6
:10055000080FF1D04B68734512DC122B56D8DFE838
:1005600003F0350B45495555555555555555555578
:100570005555554D510000BFD1F80C9046E000BFD5
:100580004FF6FF75C1F22105AB420FDC0025C1F229
:100590001105AB421AD00025C1F21205AB4215D0AD
:1005A0000025C1F22105AB4210D02FE00025C1F299
:1005B0002205AB420AD00025C1F23105AB4205D07D
:1005C0000025C1F23205AB4220D100BF8B684BB190
:1005D000012B14BFC0F81480C0F810804FF0080938
:1005E00014E000BF4FF0040910E000BFCB6803F136
:1005F00008090BE04FF0000908E000BFCB6803F1E9
:10060000040903E0CB6803F10C0900BF134605465B
:10061000BAF1080F24BF203B04352E680F279F40F6
:10062000BE4309FA03F333432B60CB79DB067FF536
:1006300083AF41F21804C4F2020423684FEA9A0619
:1006400043F001032360236840F6000403F0010334
:100650000193019BACF57E7353F826B0C4F20104FC
:10066000A0420FD040F60044C4F20104A0423FF47F
:1006700025AF41F20004C4F20104009DA04208BF6E
:1006800002251CE700251AE702B0BDE8F08F000044
:10069000002A08BF090401617047000040F2582099
:1006A000C2F200000068704770B5B8B3044690F815
:1006B0003D0028B9002084F83C00204600F05CF999
:1006C000242084F83D002068016821F001010160C8
:1006D000016841F400410160016821F400410160BA
:1006E00000F01CFB48F28041C0F21E0140F60013EE
:1006F000D4F804E088424FF00001C0F23D0348F214
:10070000A16C4FF0000238BF01219842C0F2010CE9
:1007100038BF0122E64538BF0A460AB1012070BD44
:100720004DF68361C4F21B31A0FB01122168950CC8
:100730004B684FF4967623F03F0343EA92437543A8
:1007400044F6D3564B60C1F262060B6AA5FB06560F
:10075000B50923F03F03E64538BF950C6A1C1A43E0
:100760000A62CA6948F2A0664CF6FF73C0F201063D
:10077000B64522EA03020BD801384FEA4E03B0FB1C
:10078000F3F001306FF31F30042898BF04201EE0FF
:10079000A368013863B119230EFB03F3B0FBF3F038
:1007A00001306FF31F3078B100F5804008E000BFE2
:1007B0000EEB4E03B0FBF3F001306FF31F3028B1A6
:1007C00000F5004003E000BF012000E001201043DD
:1007D000C8610868D4E9072320F0C000104318431B
:1007E0000860886848F2FF3204F10C0690434CCE52
:1007F00018431043A5698860C86820F0FF003043A3
:100800002843C860086840F00100086000202021EB
:10081000206484F83D10206384F83E0070BD000021
:100820002DE9F04383B0994616460F460446FFF77C
:1008300035FF94F83D10202920D10546206800BFDF
:100840008169890716D5FFF729FF411B20681A29FE
:10085000F6D381698907F3D500202021206384F82D
:100860003D1084F83E00216C41F02001216484F8A1
:100870003C0003E094F83C10012903D1022003B0AE
:10088000BDE8F083012284F83C200368DDE90B1801
:100890000A9ADB0703D1036843F00103036003688E
:1008A00023F400630360212084F83D00402084F895
:1008B0003E000020206462626185608D394620859B
:1008C0000020CFF6FF70E062204632464B46CDF85E
:1008D0000080019501F016FA20B1012003B0BDE8B7
:1008E000F08300BF208D98B9204641462A4601F08A
:1008F0006DFA88B3206C0428EFD12068016841F4B8
:1009000000710160012003B0BDE8F0830004EBD06A
:10091000204641462A4601F013FC0028EAD1616ACC
:100920002268084610F8013B1361238D6062581E4F
:100930002085678D013F678557697F07E6D50704E6
:10094000E4D048781061881C6062981E2085618D13
:1009500001396185DAE700BF2068016841F4007160
:100960000160202084F83D00002084F83E0084F8D7
:100970003C0003B0BDE8F08310B586B0006845F2D6
:100980000042C4F2000200219042049102D006B05D
:1009900010BD00BF41F21804C4F20204206802A98D
:1009A00040F008002060206800F0080001900198E5
:1009B0004FF440700290122003900320059040F6FF
:1009C0000040C4F20100FFF759FD0420C4F2010009
:1009D000016841F0E06141F002010160606840F4AB
:1009E00000106060606800F400100190019806B08B
:1009F00010BD000040F2000040F25821C2F2000099
:100A0000C2F2000100780A681044086070470000D4
:100A100080B542F20000C4F20200016841F010010A
:100A20000160032000F08AF80F2000F005F800F0C4
:100A300027F8002080BD000070B540F20006C2F229
:100A4000000640F224013278C2F200014FF47A73BA
:100A50000968B3FBF2F20446B1FBF2F1084600F07C
:100A60004BFB0F2C4FF0010508D838B94FF0FF3081
:100A700021460022002500F035F87460284670BD3C
:100A800082B041F21800C4F202000168022241F073
:100A900001010160016801F00101019101994168C2
:100AA00041F080514160406800F080500090009813
:100AB0000420C4F20100016862F31A61016002B00F
:100AC00070470000002848BF704700F01F01012256
:100AD00002FA01F14EF200124009CEF2000242F891
:100AE0002010704710B54EF60C5CCEF2000CDCF80E
:100AF0000030C3F3022E8EF00704042C28BF042418
:100B0000BEF103034FF0FF3E0EFA04F438BF00239A
:100B1000A14399400EFA03F39A43114300F00F02E8
:100B2000043A624409010C3200F16043B0F1FF3F26
:100B3000C8BF03F56442117010BD00004EF60C51A1
:100B4000CEF200010A684FF6FF031A4060F30A2252
:100B500042F0806040F0FD70086070472DE9F0437E
:100B600081B0002800F0858042F20008C4F202083B
:100B70000446D8F800000D4600F0070088420CD269
:100B8000D8F8000020F007002843C8F80000D8F883
:100B9000000000F00700A8426BD1206841F2040970
:100BA0008107C4F2020917D5410705D5D9F800100D
:100BB00041F4E061C9F80010010705D5D9F800102B
:100BC00041F46051C9F80010D9F80010A26821F072
:100BD000F0011143C9F80010C00741D1D8F8000056
:100BE00000F00700A8420CD9D8F8000020F0070058
:100BF0002843C8F80000D8F8000000F00700A84219
:100C000037D12068410707D5D9F80010E26821F4F0
:100C1000E0611143C9F80010000708D5D9F80000B9
:100C2000216920F4605040EAC100C9F80000D9F8F9
:100C3000002002F00C00082841F20020C0F27A00E7
:100C400050D143F2AE63C2F38341C0F60003595C56
:100C5000D2033BD440F60010C0F23D00484341E0CF
:100C6000606802280AD001282AD159F8041C890397
:100C700008D4012001B0BDE8F08300BF59F8041C7E
:100C80008901F6D5D9F8001021F003010843C9F80D
:100C90000000FFF703FD064641F28837D9F800004F
:100CA000616800F00C00B0EB810F97D0FFF7F6FC05
:100CB000801BB842F2D9032001B0BDE8F08300BF29
:100CC00059F8041C8907D4D5DCE700BFD9F8002007
:100CD00043F2AC63C2F34042C0F600039A5C48435F
:100CE000B0FBF2F0D9F8001042F68C62C1F30311A8
:100CF000C0F60002515C40F2240220FA01F140F2F9
:100D00000400C2F200000068C2F200021160FFF7A6
:100D100093FE002001B0BDE8F083000040F2240003
:100D200041F20401C2F20000C4F202010068096845
:100D300042F69C62C1F30221C0F60002515CC84039
:100D4000704700002DE9F04182B0002868D00446C9
:100D5000007841F20006C007C4F2020625D0706890
:100D600000F00C0004281BD0706800F00C0008286C
:100D700002D17068C00313D46068002800F0688155
:100D8000B0F5A02F00F07C81B0F5803F00F07C81B1
:100D9000306820F480303060306820F4802076E1C4
:100DA0003068800301D56068D0B32078800718D5FB
:100DB000706810F00C0F07D0706800F00C00082865
:100DC0006ED17068C0036BD43068800702D520698B
:100DD000012825D13068616920F0F80040EAC1009F
:100DE0003060207800071FD42078400732D4E569AE
:100DF00095B1706800F00C00082840F08F80012D3C
:100E00000ED07068216A00F480328A4208D1616A8B
:100E100000F47010884203D1002002B0BDE8F081D8
:100E2000012002B0BDE8F081A069002862D0002056
:100E3000C4F242200121C0F88014FFF72FFC0546C0
:100E4000706A800700F18C80FFF728FC401B0228A5
:100E5000F6D92AE1F06910F0805808D1F06940F025
:100E60008050F061F06900F080500090009847F2E7
:100E70000007C4F200073868C00529D4386840F478
:100E800080703860FFF70AFC054600BF3868C0056F
:100E90001ED4FFF703FC401B6428F7D905E100BF0F
:100EA0002069002840F20000C4F2422000F0828055
:100EB00001210160FFF7F2FB054600BF30688007A3
:100EC0003FF588AFFFF7EAFB401B0228F6D9ECE0BC
:100ED000E068002800F08080052800F09780012855
:100EE00000F09880306A20F001003062306A20F013
:100EF000040092E00020C4F242200021C0F88014D7
:100F0000FFF7CCFB054600BF706A80077FF56CAF2A
:100F1000FFF7C4FB401B0228F6D9C6E00027C4F245
:100F2000422700203866FFF7B9FB022D05460BD19A
:100F30003068800140F1BE80FFF7B0FB401B022803
:100F40004FF00300F4D968E7306880017FF564AFA3
:100F5000FFF7A4FB401B02284FF00300F4D95CE725
:100F600040F22400C2F20000006844F6D351C1F2FE
:100F70006201A0FB0101480A019000BF00BF019877
:100F8000411E002801913FF42FAF00BF0198411E80
:100F9000002801913FF428AF00BF0198411E0028AE
:100FA00001913FF421AF00BF0198411E002801913B
:100FB000E4D119E700210160FFF770FB054600BF8F
:100FC000306880077FF50DAFFFF768FB401B0228F4
:100FD0004FF00300F4D920E7306A20F001003062BE
:100FE000306A20F004003062FFF758FB054641F2FA
:100FF000883700BF306A800720D5FFF74FFB401BC2
:10100000B8424FF00300F5D907E700BF306A40F05F
:1010100004003062306A40F001003062FFF73EFBAE
:10102000054641F2883700BF306A800706D4FFF7D3
:1010300035FB401BB842F7D937E000BFB8F1000FCD
:101040007FF4D5AEF06920F08050F061CFE600BFAC
:10105000306820F480303060306820F480203060C8
:10106000FFF71CFB054600BF306880037FF59DAE8F
:10107000FFF714FB401B64284FF00300F4D9CCE6C3
:10108000306840F480203060306840F48030306058
:10109000FFF704FB054600BF306880033FF585AECF
:1010A000FFF7FCFA401B6428F6D9032002B0BDE824
:1010B000F08100BF206AB0F5803F05D17168A26859
:1010C00021F40031114371607168626A21F4741176
:1010D00010430843706001203866FFF7DFFA0446CA
:1010E000306880013FF598AEFFF7D8FA001B022860
:1010F0004FF00300F4D990E6411E0020B0EB116FD1
:101100001CBF012070474EF21002CEF20002516067
:101110004EF62351CEF20001F0230B7007219060B0
:10112000116070477047000070470000B0B590F83C
:101130003C20012A04BF0220B0BD01F108053CCDCE
:10114000D1E900CE23F47C5322F470521A432EF4DA
:10115000F0431A432CF4E0431A4324F4C0431A43E7
:101160002A43C96922F4804203681143596400216B
:1011700080F83C100846B0BD10B590F83C20012A1C
:101180004FF0020233D080F83D200268D2F804E02C
:10119000D2F808C00C682EF07003234340F2FF74AD
:1011A000C4F20004A24253600ADCB2F1804F13D0B3
:1011B00040F20043C4F200039A420DD011E000BF98
:1011C00042F60043C4F201039A4205D040F6000300
:1011D000C4F200039A4204D149682CF080031943F9
:1011E00091600121002280F83D1080F83C201046DB
:1011F00010BD0000002804BF0120704710B5044650
:1012000090F83D0028B9002084F83C00204600F00A
:1012100067F8022084F83D00206840F2FF730268FE
:10122000C4F2000342F6004C9842C4F2010C15DCF3
:10123000B0F1804F1AD040F20041C4F20001884260
:1012400014D0984218DCB0F1804F1DD040F200411C
:10125000C4F20001884217D01AE000BF604505D0F3
:1012600040F60001C4F200018842EAD1A16822F0F0
:1012700070020A439842E6DD604505D040F6000161
:10128000C4F20001884203D1216922F440720A436A
:10129000A36922F08001D4F804E0E26819436045B4
:1012A0000160C262C0F828E002D16169CCF8301058
:1012B00001214161002084F8461084F83E1084F832
:1012C0003F1084F8401084F8411084F8421084F8EC
:1012D000431084F8441084F8451084F83D1010BD84
:1012E00081B0006840F20041C4F20001884201D0A0
:1012F00001B0704741F21C00C4F20200016841F0E5
:1013000002010160006800F002000090009801B046
:101310007047000080B590F83C20012A4FF002028F
:1013200000F0C28080F83D20D0F800C04FF6777200
:10133000DCF8083023EA0202CCF808200B684F2BB7
:1013400028DC1F2B44DD202B45D0302B43D0402BF5
:1013500040F0AC80D1F804E0C968DCF82030DCF85B
:10136000202022F00102CCF82020DCF8182022F006
:10137000F00242EA011123F00A0242EA0E02CCF81E
:101380001810CCF82020DCF8081041F0470121F0BB
:10139000300180E06F2B27DDB3F5005F48D0B3F557
:1013A000805F7AD0702B40F08180D1E901E3C96879
:1013B000DCF8082043EA0E0322F47F4243EA0121CD
:1013C0001143CCF80810DCF8081041F0770162E016
:1013D0000BB1102B6AD1DCF8081021F07001194311
:1013E00041F0070157E000BF502B35D0602B5DD195
:1013F000D1F804E0C968DCF82030DCF8202022F0C5
:101400001002CCF82020DCF8182022F4704242EAC6
:10141000013123F0A00242EA0E12CCF81810CCF8E9
:101420002020DCF8081041F0670121F0100132E0C3
:10143000D1E901E3C968DCF8082043EA0E0322F48D
:101440007F4243EA01211143CCF80810DCF8081070
:1014500041F480411FE000BFD1F804E0C968DCF826
:101460002030DCF8202022F00102CCF82020DCF82B
:10147000182022F0F00242EA011123F00A0242EAA7
:101480000E02CCF81810CCF82020DCF8081041F03F
:10149000570121F02001CCF808100022012180F82A
:1014A0003D10002180F83C10104680BD0122F5E778
:1014B000002804BF012070472DE9F04F81B0044699
:1014C00090F83D000D4628B9002084F83C002046E5
:1014D00000F094F8022084F83D00206844F20702EE
:1014E000816840F2FF73914381600268C4F2000397
:1014F00042F6004C9842C4F2010C15DCB0F1804F6A
:101500001AD040F20041C4F20001884214D098423F
:1015100018DCB0F1804F1DD040F20041C4F2000150
:10152000884217D01AE000BF604505D040F60001A0
:10153000C4F200018842EAD1A16822F070020A4395
:101540009842E6DD604505D040F60001C4F2000196
:10155000884203D1216922F440720A43A36922F030
:101560008001D4F804E0E268194360450160C2627A
:10157000C0F828E002D16169CCF830104FF00109C1
:10158000C0F814908268D0F818E0D0F820C0D5E9EF
:101590000038D5E9027B43EA020AAB694FF6FF71D6
:1015A0002EEA010E47EA03234FF6FC47BB43D5E979
:1015B00007724BEA0E012E69194341EA072141EAFD
:1015C000061141EA02312CF022026B6942EA08025C
:1015D00042EA0312C0F808A08161026284F84690D2
:1015E00084F83E9084F83F9084F8429084F84390C9
:1015F00084F83D90002001B0BDE8F08F10B586B0B2
:10160000006840F60001C4F2000188424FF000017A
:10161000CDE90411CDE9021120D0B0F1804F4AD1BB
:1016200041F21800C4F2020041681C2441F001019B
:101630004160416801F0010101910199016841F0A7
:1016400004010160006800F004000190019803208B
:10165000029040F60000C4F201001EE041F21800C2
:10166000C4F2020041681E2441F004014160416857
:1016700001F0040101910199016841F00801016044
:10168000006800F0080001900198C020029040F628
:101690000000C4F2010000F580600021CDE90311D3
:1016A00002A9FEF7EBFE204600210022FFF71AFAFE
:1016B0002046FFF707FA06B010BD000080B590F88D
:1016C0003E2090F83F3090F842E090F843C0042963
:1016D0000AD0B9B9012A4FF0010208BFBEF1010FCB
:1016E00034D0104680BD00BF012B4FF0010208BF6F
:1016F000BCF1010FF5D1022180F83F1080F84310B2
:1017000000681EE0012A4FF0010208BF012BE8D15A
:10171000BEF1010FE5D1BCF1010FE2D1022280F848
:101720003E2080F83F2080F8422080F8432091B18D
:101730000068016A21F001010162016A41F00101C2
:10174000016210216FF0100209E000BF022180F851
:101750003E1080F84210006801216FF00102036A18
:101760001A400262026A114301620168002241F0DC
:1017700001010160104680BD7047000010B501688E
:1017800004460869800744BFC8685FEA807039D49E
:101790000869400744BFC8685FEA40703ED40869E2
:1017A000000744BFC8685FEA007045D40869C006F6
:1017B00044BFC8685FEAC0604AD40869C0071CBF5C
:1017C000C8685FEAC07051D10869000644BFC868A4
:1017D0005FEA006052D40869400644BFC8685FEA07
:1017E000406053D40869800646BFC8685FEA8060DD
:1017F00010BD6FF0200220460A61BDE81040FFF7DF
:1018000093BC00BF6FF00200086101202077886957
:10181000800743D02046FFF7AFFF45E06FF004009C
:10182000086102202077886910F4407F40D020466C
:10183000FFF7A2FF42E000BF6FF00800086104203C
:101840002077C86980073DD02046FFF795FF3FE02D
:101850006FF01000086108202077C86910F4407FFD
:101860003AD02046FFF788FF3CE000BF6FF0010050
:101870000861204600F040FA2168A5E76FF080007B
:1018800008612046FFF74EFC2168A4E76FF0400096
:101890000861204600F032FA2168A3E7204600F0F4
:1018A00025F8204600F0B6F92168002020776FE780
:1018B000204600F01BF8204600F0ACF9216800201B
:1018C00020776CE7204600F011F8204600F0A2F9DE
:1018D00021680020207769E7204600F007F82046BD
:1018E00000F098F921680020207766E77047000033
:1018F0002DE9F04390F83C30012B04BF0220BDE8F5
:10190000F0834FEAB202032A3CD8DFE802F0034337
:101910007FB900BF036842F600461D6A1A6AC4F226
:10192000010622F001021A621A465C6852F818CFCA
:10193000B3428E68D1F800E025F0020545EA0605BD
:101940000CD1CE68D1E9057824F4407425F00C055B
:1019500026F004063C43354344EA08042CF07307A0
:1019600047EA0E075C609F614F6809695F631D620B
:101970009F6947F008079F619F6927F004079F61EF
:10198000AEE000BF0121002280F83C200846BDE8FF
:10199000F08300BF036842F600461D6A1A6AC4F26B
:1019A000010622F010021A621A46D3F804C052F857
:1019B000184FB3428E68D1F800E025F0200545EAC3
:1019C00006150FD1CE68D1E905986FF0400707EAF8
:1019D00006162CF4406725F0C00547EA8907354311
:1019E00047EA880C24F4E64444EA0E27C3F804C00E
:1019F0009F614F6809699F631D629F6947F4006793
:101A00009F619F6927F480679F6168E0036842F6E1
:101A100000461D6A1A6AC4F2010622F480721A6234
:101A20001A46D3F804C052F81CEFB3428E680C6813
:101A300025F4007545EA06250FD1CE68D1E9059851
:101A4000360240F2FF47BE432CF4405725F4406570
:101A500047EA0917354347EA081C2EF07307274366
:101A6000C3F804C0DF614F680969DF631D62DF6985
:101A700047F00807DF61DF6927F00407DF612FE027
:101A8000036842F60047D3F820C01A6AC4F201077F
:101A900022F480521A621A465C6852F81C5FD1F830
:101AA00000E08E68BB4204D14F6924F4804444EACC
:101AB00087142CF4005747EA063725F4E64646EA31
:101AC0000E265C60DE614E6809691E641F62DF6974
:101AD00047F40067DF61DF6927F48067DF6109028F
:101AE0001368194311600021002280F83C20084649
:101AF000BDE8F083002804BF0120704710B50446FC
:101B000090F83D0028B9002084F83C00204600F001
:101B100067F8022084F83D00206840F2FF730268F5
:101B2000C4F2000342F6004C9842C4F2010C15DCEA
:101B3000B0F1804F1AD040F20041C4F20001884257
:101B400014D0984218DCB0F1804F1DD040F2004113
:101B5000C4F20001884217D01AE000BF604505D0EA
:101B600040F60001C4F200018842EAD1A16822F0E7
:101B700070020A439842E6DD604505D040F6000158
:101B8000C4F20001884203D1216922F440720A4361
:101B9000A36922F08001D4F804E0E26819436045AB
:101BA0000160C262C0F828E002D16169CCF830104F
:101BB00001214161002084F8461084F83E1084F829
:101BC0003F1084F8401084F8411084F8421084F8E3
:101BD000431084F8441084F8451084F83D1010BD7B
:101BE00081B0006842F60041C4F20101884201D090
:101BF00001B0704741F21800C4F20200016841F4DC
:101C000000610160006800F400600090009801B07D
:101C1000704700007047000041B1082910D0042926
:101C200014BF00F1410200F13F020BE090F83E20AA
:101C3000012A1CBF01207047022280F83E2013E0D9
:101C400000F140021278012A1CBF012070470222D5
:101C5000082907D0042914BF80F8412080F83F20CC
:101C600002E000BF80F84020006801F01F0101225F
:101C7000036A8A4023EA02010162036A42F6444190
:101C8000C4F201011A43A1F14403984202620FD049
:101C900040F2FF71C4F20001884213DCB0F1804FC2
:101CA0001CD040F20041C4F20001884216D01CE072
:101CB0000A6842F400420A6040F2FF71C4F2000177
:101CC0008842EBDD42F60041C4F20101884205D0B2
:101CD00040F60001C4F20001884206D1816801F09B
:101CE0000701062904BF00207047016841F0010187
:101CF000016000207047000070470000704700003E
:101D0000FEE700002DE9F04383B0044600680D466D
:101D100001680A9F0B9E41F48071994690460160CC
:101D200020464FF0011100223B46009600F0AEF82D
:101D300050B120680068C00544BF4FF400702064B3
:101D4000032003B0BDE8F083206805F0FE010161C7
:101D50000221C0F2010120463A46334600F080F9E4
:101D600020B1012003B0BDE8F08300BF0020029045
:101D70002068324641690291806939460290029892
:101D8000204600F0DDF958B1206C0428E9D1206824
:101D9000016841F400710160012003B0BDE8F083E7
:101DA000B9F1010F0AD020684FEA182101612046DD
:101DB0003946324600F0C4F90028E5D120685FFAC0
:101DC00088F10161002003B0BDE8F08370B50368BD
:101DD000044653F8140F400711D40E46481C29D06E
:101DE00086BB00BF1868400527D4FEF757FC236860
:101DF00053F8140F400739D518684007F2D5002072
:101E000070BD00BF18684007F9D41868400514D4A5
:101E100018684007F3D4186840050ED418684007C6
:101E2000EDD41868400508D4186840074FF000004A
:101E300048BF70BD18684005E4D56FF48060186035
:101E4000042014E0154603E053F8140F4007D6D4DD
:101E500018684005F1D4FEF721FC401B2368B0420E
:101E6000F2D958694007EFD4202000E0202000215B
:101E70002022216384F83D2084F83E10226C104318
:101E80002064012084F83C1070BD00002DE9F04171
:101E9000054600681E46144601F47F0201338FB2E6
:101EA00042D0DDF81880B2F5803F40F0878040696D
:101EB0003840C01BB0FA80F04009A04240F0C88012
:101EC0004EB924E040693840C01BB0FA80F04009A8
:101ED000A04240F0BD80FEF7E1FBA0EB08012868BE
:101EE000B142EFD941693940C91BB1FA81F14909C1
:101EF000A142E7D19BE000BF40693840C01BB0FA67
:101F000080F04009A0424FF0000040F0A680FEF7AC
:101F1000C5FB286841693940C91BB1FA81F14909FB
:101F2000A142E9D183E000BFB2F5803F24D100BFD8
:101F300041693940C91BB1FA81F14909A14240F018
:101F4000878041693940C91BB1FA81F14909A14231
:101F500040F07E8041693940C91BB1FA81F14909DD
:101F6000A14275D141693940C91BB1FA81F14909D2
:101F7000A142DDD06CE000BF81693940C91BB1FAD4
:101F800081F14909A14263D181693940C91BB1FA84
:101F900081F14909A1425BD181693940C91BB1FA7C
:101FA00081F14909A14253D181693940C91BB1FA74
:101FB00081F14909A142DFD04AE000BF8069384081
:101FC000C01BB0FA80F04009A04241D146B923E0DD
:101FD00080693840C01BB0FA80F04009A0423BD174
:101FE000FEF75CFBA0EB08012868B142F0D98169DB
:101FF0003940C91BB1FA81F14909A142E8D116E083
:1020000080693840C01BB0FA80F04009A0424FF010
:10201000000018BFBDE8F081FEF740FB2868816929
:102020003940C91BB1FA81F14909A142E8D1002028
:102030002021286385F83D1085F83E00296C41F089
:102040002001296485F83C000120BDE8F08100BF33
:102050000020BDE8F08100BF0020BDE8F081000055
:10206000F0B581B0044600681D4643698FB203EAAB
:102070000701B94202D1002001B0F0BD4169164606
:10208000013201F4806125D0002940D1CEB100BFDA
:10209000FEF704FB411B2068B14203D94169394076
:1020A000B9424BD141693940B942E4D0416949054F
:1020B000EED52CE041693940B942DCD0416949058F
:1020C00025D4FEF7EBFA206841693940B942F1D0D6
:1020D000202024E0D9B941693940B942CBD04169C7
:1020E000490514D441693940B942C4D04169490510
:1020F0000DD441693940B942BDD04169490506D482
:1021000041693940B942B6D041694905E3D5016812
:1021100041F4007101606FF480614161042000218D
:102120002022216384F83D2084F83E10226C104365
:10213000206484F83C10012001B0F0BD2020EEE7BF
:1021400070B50368044653F8140F000611D40E4608
:10215000481C29D086BB00BF1868400527D4FEF76D
:102160009DFA236853F8140F000639D51868000645
:10217000F2D5002070BD00BF18680006F9D41868B9
:10218000400514D418680006F3D4186840050ED42E
:1021900018680006EDD41868400508D418680006D1
:1021A0004FF0000048BF70BD18684005E4D56FF4DB
:1021B00080601860042014E0154603E053F8140F03
:1021C0000006D6D418684005F1D4FEF767FA401B24
:1021D0002368B042F2D958690006EFD4202000E00D
:1021E000202000212022216384F83D2084F83E1025
:1021F000226C10432064012084F83C1070BD000064
:102200002DE9F04140F600454FF00108C4F2010508
:102210000C460646C20F88EAD07728464FF4005194
:10222000FEF736FA28464FF480513A46FEF730FA68
:1022300040F23817C2F20007002E48BF76423868D5
:10224000E20F066428464FF4804188EAD476FEF710
:102250001FFA28464FF400413246FEF719FA002CC7
:1022600048BF644238684463BDE8F0812DE9F0431B
:1022700085B041F21800C4F20200016840F6004443
:1022800041F0100101600168C4F2010401F0100185
:1022900001910199016804F5806541F02001016018
:1022A0000168002201F020010191019901684FF4B9
:1022B000005641F00401016001684FF0000901F08F
:1022C000040101910199016841F008010160006871
:1022D0004FF4005100F00800019001982846FEF7E5
:1022E000D7F920464FF2180100224FF21808FEF7E6
:1022F000CFF90196032001AE01270490284631460C
:10230000CDE90279FEF7BAF8022004902046314662
:10231000CDE90187CDF80C90FEF7B0F805B0BDE827
:10232000F083000080B540F2E40045F20041C2F2C3
:102330000000C4F2000148F2A06200234FF4804C78
:10234000C0F2010280E80E00C0E9033CC0E9053399
:10235000C0E90733FEF7A8F9002808BF80BDBDE833
:102360008040FEF771B8000070B598B042F60045A5
:1023700040F23810C4F201050021C2F2000041F61B
:102380001F421191CDE90F11CDE90D11CDE90B11CE
:10239000CDE90911CDE90711CDE90511CDE9031109
:1023A000CDE90111C0E90051C0E90212C0E90411F0
:1023B0008161FFF79FFB002818BFFEF745F840F248
:1023C0003810C2F2000010A9FEF7D6FE002818BF90
:1023D000FEF73AF8602009904FF4E1500A9000208F
:1023E000CDE90B00CDE90D000F9040F23810C2F29C
:1023F000000009A90022FFF77BFA002818BFFEF7AA
:1024000023F840F23810C2F2000009A90C22FFF7AD
:102410006FFA002818BFFEF717F840F238144FF48F
:102420000050C2F200040026069001A9204605963D
:10243000CDE90366CDE901660896FEF777FE002830
:1024400018BFFEF701F820681696A84202D018B00F
:1024500070BD00BF41F21800C4F20200016841F0F3
:1024600004010160006814A900F00400139013989F
:102470004FF410601490022015901790A5F510509D
:10248000FDF7FCFF18B070BD80B58CB040F2801035
:102490000021C2F200004FF08042C0E90021032277
:1024A0004FF6FF73CDE903210122CDE90011C0E908
:1024B000021301618161CDE90521CDE90711CDE963
:1024C00009210B9103A9FEF7F3FF002818BFFDF7C0
:1024D000BBFF40F28010C2F200006946FEF74CFEDE
:1024E000002818BFFDF7B0FF40F28010C2F20000D4
:1024F0003C21FFF7E3F80CB080BD000080B586B04A
:1025000040F2C81040F200420021C2F20000C4F2C2
:1025100000024FF6FF730591CDE90311CDE90011DB
:10252000C0E90021C0E9021301618161FEF762FE8A
:10253000002818BFFDF788FF4FF48050029040F24A
:10254000C810C2F2000002A9FEF7E4FE002818BF7E
:10255000FDF77AFF40F2C810C2F200006946FEF7AC
:102560000BFE002818BFFDF76FFF06B080BD00000E
:1025700080B58CB040F2102040F600020021C2F27B
:102580000000C4F20002C0E9002103224FF6FF73ED
:10259000CDE903210122CDE90011C0E90213016157
:1025A0008161CDE90521CDE90711CDE909210B9123
:1025B00003A9FEF77DFF002818BFFDF745FF40F295
:1025C0001020C2F200006946FEF7D6FD002818BFB1
:1025D000FDF73AFF40F21020C2F200003C21FFF765
:1025E0006DF80CB080BD0000FEE70000FEE70000C3
:1025F0002DE9F04F85B040F2E40400254FF48076D9
:102600000127C2F200040DF1120B0DF113084FF077
:10261000000900BF09F1B0008DF8100004A8CDE951
:10262000000720467821002201230296FEF7F8F8E1
:102630000DF11100CDE90007204678210022012389
:102640008DF811500296FEF7EBF810208DF812006D
:102650002046782100220123CDE900B70296FEF73B
:10266000DFF84FF0000A00BF204678214022012306
:102670008DF81350CDE900870296FEF7D1F80AF1E4
:1026800001004FFA80FABAF1FF3FEDDCB9F1070F14
:1026900009F10109BED305B0BDE8F08F80B5C820AF
:1026A000FDF7D8FEBDE8804000F020BA2DE9F04FDC
:1026B00089B0064640B20D460028A2F1200744BF6B
:1026C00002350026102BA5F1500040F03F8140F26A
:1026D000E4048DF818004FF0010906A8C2F20004C6
:1026E0004FF48078CDE900092046782100220123AB
:1026F000CDF80880FEF794F83009103005908DF879
:1027000019000DF11900CDE90009204678210022B9
:102710000123CDF80880FEF783F806F00F0004903F
:102720008DF81A000DF11A00CDE900092046782134
:1027300000220123CDF80880FEF772F8F8B243F2C8
:10274000CC020101C0F60002515C02EB00168DF8CC
:102750001B100DF11B072046782140220123CDE9F3
:102760000079CDF80880FEF75BF87078317996F83B
:1027700002A096F803B003918DF81B002046782143
:1027800040220123CDE90079CDF80880FEF748F812
:1027900020467821402201238DF81BA0CDE9007945
:1027A000CDF80880FEF73CF820467821402201232E
:1027B0008DF81BB0CDE90079CDF80880FEF730F830
:1027C000039878218DF81B00204640220123CDE993
:1027D0000079CDF80880FEF723F8707978218DF81C
:1027E0001B00204640220123CDE90079CDF8088066
:1027F000FEF716F8B07978218DF81B0020464022AC
:102800000123CDE90079CDF80880FEF709F8F079C9
:1028100078218DF81B00204640220123CDE9007964
:10282000CDF80880FDF7FCFFA5F14F008DF81C00E6
:1028300007A8CDE900092046782100220123CDF820
:102840000880FDF7EDFF059878218DF81D000DF14A
:102850001D00CDE90009204600220123CDF80880A3
:10286000FDF7DEFF049878218DF81E000DF11E00A3
:10287000CDE90009204600220123CDF80880FDF7AC
:10288000CFFF307A0DF11F058DF81F00204678210B
:1028900040220123CDE90059CDF80880FDF7C0FFA3
:1028A000707A78218DF81F00204640220123CDE95F
:1028B0000059CDF80880FDF7B3FFB07A78218DF884
:1028C0001F00204640220123CDE90059CDF80880A1
:1028D000FDF7A6FFF07A78218DF81F0020464022F0
:1028E0000123CDE90059CDF80880FDF799FF307B31
:1028F00078218DF81F00204640220123CDE90059A0
:10290000CDF80880FDF78CFF707B78218DF81F00D3
:10291000204640220123CDE90059CDF80880FDF77B
:102920007FFFB07B78218DF81F00204640220123D5
:10293000CDE90059CDF80880FDF772FFF07BCDE9B5
:1029400000598DF81F00204689E000BF40F2E40BDB
:102950008DF820004FF0010A08A8C2F2000B4FF4D6
:102960008078CDE9000A5846782100220123CDF86D
:102970000880FDF755FF300910308DF821000DF16A
:102980002100CDE9000A5846782100220123CDF824
:102990000880FDF745FF06F00F008DF822000DF1CD
:1029A0002200CDE9000A5846782100220123CDF803
:1029B0000880FDF735FFF8B242F6A46100EB400055
:1029C000C0F6000111F8102001EB40058DF823201E
:1029D0000DF123065846782140220123CDE9006AF3
:1029E000CDF80880FDF71CFF6878AF78EC7895F893
:1029F00004908DF823005846782140220123CDE928
:102A0000006ACDF80880FDF70BFF58467821402278
:102A100001238DF82370CDE9006ACDF80880FDF719
:102A2000FFFE58467821402201238DF82340CDE94E
:102A3000006ACDF80880FDF7F3FE58467821402261
:102A400001238DF82390CDE9006ACDF80880FDF7C9
:102A5000E7FE6879CDE9006A8DF8230058467821B1
:102A600040220123CDF80880FDF7DAFE09B0BDE869
:102A7000F08F00002DE9F04115461278002A08BFBA
:102A8000BDE8F08198460E4607460024F8B2F1B240
:102A9000D2B24346FFF70AFE0837F8B2013478286D
:102AA000E0B288BF02362A5C88BF0027002AEDD139
:102AB000BDE8F0817047000001680022486A4A6260
:102AC00000B2704770470000FDF794BF70470000E8
:102AD00040F28010C2F20000FEF750BE40F210201B
:102AE000C2F20000FEF74ABEFEE70000F0B583B078
:102AF00040F2E40440F20807C2F200044FF480758B
:102B00000126C2F200072046782100220123CDE9E8
:102B100000760295FDF784FE781CCDE9000620467C
:102B20007821002201230295FDF77AFEB81CCDE939
:102B3000000620467821002201230295FDF770FE51
:102B4000F81CCDE9000620467821002201230295D9
:102B5000FDF766FE381DCDE90006204678210022EB
:102B600001230295FDF75CFE781DCDE900062046A5
:102B70007821002201230295FDF752FEB81DCDE910
:102B8000000620467821002201230295FDF748FE29
:102B9000F81DCDE900062046782100220123029588
:102BA000FDF73EFE07F10800CDE90006204678213A
:102BB000002201230295FDF733FE07F10900CDE95C
:102BC000000620467821002201230295FDF728FE09
:102BD00007F10A00CDE900062046782100220123F2
:102BE0000295FDF71DFE07F10B00CDE9000620461A
:102BF0007821002201230295FDF712FE07F10C0057
:102C0000CDE9000620467821002201230295FDF738
:102C100007FE07F10D00CDE90006204678210022CD
:102C200001230295FDF7FCFD07F10E00CDE900063A
:102C300020467821002201230295FDF7F1FD07F1DE
:102C40000F00CDE9000620467821002201230295DD
:102C5000FDF7E6FD07F11000CDE9000620467821DA
:102C6000002201230295FDF7DBFD07F11100CDE9FC
:102C7000000620467821002201230295FDF7D0FDB1
:102C800007F11200CDE90006204678210022012339
:102C90000295FDF7C5FD07F11300CDE900062046BA
:102CA0007821002201230295FDF7BAFD07F11400F7
:102CB000CDE9000620467821002201230295FDF788
:102CC000AFFD07F11500CDE900062046782100226E
:102CD00001230295FDF7A4FD07F11600CDE90006DA
:102CE00020467821002201230295FDF799FD07F186
:102CF0001700CDE900062046782100220123029525
:102D0000FDF78EFD07F11800CDE900062046782179
:102D1000002201230295FDF783FD07F11900CDE99B
:102D2000000620467821002201230295FDF778FD58
:102D300007F11A00CDE90006204678210022012380
:102D40000295FDF76DFD03B0F0BD000090B0FDF7FA
:102D50005FFE00240120CDE90B44CDE90944069033
:102D60000A904FF4E0104FF4803102250F9006A82E
:102D7000CDE90714CDE90D51FDF7E4FF20B1EFF3E4
:102D8000108072B6FEE700BF0F20CDE901054FF4B9
:102D90008060CDE9040401A802210394FDF7DEFE62
:102DA00020B1EFF3108072B6FEE700BFFFF75EFAC6
:102DB000FFF7B8FAFFF7D8FAFFF766FBFFF79EFBBD
:102DC000FFF7D6FBFFF76AFCFFF712FC40F238145E
:102DD000C2F2000420460021FEF71EFF20460C210F
:102DE000FEF71AFF4FF4E1504FF4E151FFF708FAF4
:102DF00040F2880540F25827C2F2000540F28018E0
:102E000040F21029C2F2000705F10C040FF25C0A2F
:102E10001AA6C2F20008C2F2000915E02A6820468C
:102E20005146FDF7D5F90020042122461023FFF773
:102E300021FE6A6820463146FDF7CAF900200621C6
:102E400022461023FFF716FE3868A968401A0A28A0
:102E5000E4D33868A8604046FFF72EFE2860484655
:102E6000FFF72AFE40426860D8E700BF456E636FF7
:102E70006465725F4C3A256420202000456E636FC4
:102E80006465725F523A2564202020000000000033
:102E9000000000000102030406070809000000000A
:102EA000010203040000000000000000002F0000E9
:102EB00000000700070000147F147F1400242A7FFD
:102EC0002A1200626408132300364955225000007C
:102ED0000503000000001C224100000041221C00EC
:102EE0000014083E08140008083E0808000000A06E
:102EF000600000080808080800006060000000206A
:102F000010080402003E5149453E0000427F400047
:102F1000004261514946002141454B3100181412CD
:102F20007F10002745454539003C4A49493000019A
:102F30007109050300364949493600064949291EE9
:102F4000000036360000000056360000000814224B
:102F5000410000141414141400004122140800024B
:102F60000151090600324959513E007C1211127C70
:102F7000007F49494936003E41414122007F41419D
:102F8000221C007F49494941007F09090901003E8F
:102F90004149497A007F0808087F0000417F4100CD
:102FA000002040413F01007F08142241007F404043
:102FB0004040007F020C027F007F0408107F003E2B
:102FC0004141413E007F09090906003E4151215E11
:102FD000007F091929460046494949310001017F0E
:102FE0000101003F4040403F001F2040201F003FA4
:102FF0004038403F00631408146300070870080756
:1030000000615149454300007F41410000552A5568
:103010002A55000041417F000004020102040040E3
:103020004040404000000102040000205454547805
:10303000007F484444380038444444200038444425
:10304000487F00385454541800087E0901020018C3
:10305000A4A4A47C007F080404780000447D400000
:10306000004080847D00007F102844000000417FE4
:103070004000007C04180478007C080404780038C0
:103080004444443800FC242424180018242418FC48
:10309000007C0804040800485454542000043F44B1
:1030A0004020003C4040207C001C2040201C003C74
:1030B0004030403C004428102844001CA0A0A07CC4
:1030C000004464544C4414141414141400000000FC
:1030D000000000000000000000000000000000F8F8
:1030E00000000000000000333000000000100C065B
:1030F000100C0600000000000000000040C07840F6
:10310000C0784000043F04043F040400007088FCC1
:1031100008300000001820FF211E0000F008F00019
:10312000E018000000211C031E211E0000F008888A
:10313000700000001E2123241927211010160E00F4
:10314000000000000000000000000000000000E09F
:1031500018040200000000071820400000020418B4
:10316000E00000000040201807000000404080F010
:10317000804040000202010F01020200000000F046
:10318000000000000101011F01010100000000001A
:103190000000000080B0700000000000000000008F
:1031A0000000000000010101010101010000000018
:1031B00000000000003030000000000000000000AF
:1031C00080601804006018060100000000E010088C
:1031D0000810E000000F102020100F00001010F861
:1031E000000000000020203F2020000000700808A0
:1031F0000888700000302824222130000030088820
:10320000884830000018202020110E000000C02047
:1032100010F8000000070424243F240000F8088868
:10322000880808000019212020110E0000E01088F5
:1032300088180000000F112020110E000038080827
:10324000C83808000000003F000000000070880837
:1032500008887000001C222121221C0000E01008B8
:103260000810E0000000312222110F00000000C011
:10327000C0000000000000303000000000000080AE
:10328000000000000000806000000000000080409E
:1032900020100800000102040810200040404040B7
:1032A000404040000404040404040400000810200A
:1032B000408000000020100804020100007048084F
:1032C0000808F0000000003036010000C030C828B7
:1032D000E810E0000718272423140B000000C03872
:1032E000E0000000203C23020227382008F88888EC
:1032F00088700000203F202020110E00C0300808F8
:1033000008083800071820202010080008F80808CE
:103310000810E000203F202020100F0008F88888C7
:10332000E8081000203F20202320180008F8888893
:10333000E8081000203F200003000000C03008080B
:103340000838000007182020221E020008F8080094
:103350000008F808203F210101213F20000808F85B
:10336000080800000020203F20200000000008087E
:10337000F8080800C08080807F00000008F888C03E
:1033800028180800203F20012638200008F80800EF
:1033900000000000203F20202020300008F8F80026
:1033A000F8F80800203F003F003F200008F830C038
:1033B0000008F808203F200007183F00E010080828
:1033C0000810E0000F10202020100F0008F8080857
:1033D0000808F000203F210101010000E01008086A
:1033E0000810E0000F18242438504F0008F888888F
:1033F00088887000203F2000030C3020007088086F
:10340000080838000038202121221C00180808F87C
:10341000080818000000203F2000000008F80800FD
:103420000008F808001F202020201F0008788800CE
:1034300000C83808000007380E010000F80800F83E
:103440000008F800033C0700073C030008186880E8
:103450008068180820302C03032C30200838C8005E
:10346000C83808000000203F2000000010080808AD
:10347000C83808002038262120201800000000FE4F
:10348000020202000000007F40404000000C30C0FB
:1034900000000000000000010638C0000002020227
:1034A000FE000000004040407F00000000000402D9
:1034B0000202040000000000000000000000000004
:1034C00000000000808080808080808000020204F4
:1034D00000000000000000000000000000008080EC
:1034E000808000000019242222223F2008F800805A
:1034F00080000000003F112020110E00000000801D
:1035000080800000000E11202020110000000080AB
:103510008088F800000E112020103F2000008080DD
:1035200080800000001F222222221300008080F0F1
:10353000888888180020203F20200000000080801C
:1035400080808000006B94949493600008F8008061
:1035500080800000203F210000203F2000809898BC
:10356000000000000020203F20200000000000801C
:103570009898000000C08080807F000008F800005C
:1035800080808000203F24022D302000000808F8B1
:10359000000000000020203F20200000808080806C
:1035A00080808000203F20003F20003F80800080FE
:1035B00080800000203F210000203F20000080800C
:1035C00080800000001F202020201F0080800080BD
:1035D0008000000080FFA12020110E00000000806C
:1035E00080808000000E112020A0FF80808080005D
:1035F0008080800020203F2120000100000080808A
:10360000808080000033242424241900008080E07E
:10361000808000000000001F20200000808000004B
:1036200000808000001F202020103F20808080002C
:103630000080808000010E3008060100808000803C
:10364000008080800F300C030C300F000080800061
:10365000808080000020312E0E312000808080008C
:103660000080808080818E7018060100008080803C
:10367000808080000021302C2221300000000000DA
:10368000807C020200000000003F40400002027CFB
:10369000800000000040403F0000000000000000EB
:1036A000FF00000000000000FF0000000102020314
:1036B0000405060708090A0B0C0D0E0F1010000078
:1036C000E036000800000020280000002801000863
:1036D00008370008280000203808000044010008CE
:1036E0000100000010000000AE001040B081FFA1FA
:1036F000A6A83FC8D300D580D805D9F1DA12D830B2
:083700008D14AF000024F40059
:04000005080000ED02
:00000001FF
