:020000040800F2
:100000008807002001010008614500082535000827
:100010005D4500081D0B0008694E00080000000047
:10002000000000000000000000000000394A000845
:100030002D0E000800000000294A00083D4A000873
:100040001B0100081B0100081B0100081B01000820
:100050001B0100081B0100081B0100081B01000810
:10006000310E00081B0100081B0100081B010008DD
:100070009D0D0008A90D00081B0100081B010008C8
:100080001B0100081B0100081B0100081B010008E0
:100090001B0100081B0100081B010008390E0008A5
:1000A0001B0100081B0100081B0100081B010008C0
:1000B000454A00081B010008514A00081B010008BE
:1000C0001B0100081B0100081B0100081B010008A0
:1000D0001B0100081B0100081B0100085D4E000801
:1000E0001B0100081B0100081B010008DFF80CD0F1
:1000F00000F0A0FC004800477D5D00088807002054
:100100000648804706480047FEE7FEE7FEE7FEE7B1
:10011000FEE7FEE7FEE7FEE7FEE7FEE7414A0008EE
:10012000ED0000082DE9F0410024061B254671F181
:10013000000605DA01240027D0EB070067EB010178
:10014000161E73F1000605DA0027D2EB070201251F
:1001500067EB030300F029FB86460E4617469C46D4
:10016000AC4204D00025D0EB050E65EB010624B1AE
:100170000020D2EB000760EB030C704631463A4694
:100180006346BDE8F08130B504460020034600E038
:100190005B1C934203D2E05CCD5C401BF8D030BDC9
:1001A000F0B480EA0102D40F4200B2EB410F02D258
:1001B0000246084611464A0042D0C30DDDB2C1F3E3
:1001C000C752AD1A202D35DAC1F3160141F40002F1
:1001D00004B15242C5F1200602FA06F12A41104448
:1001E000B3EBD05F23D0C4B1012DA0EBC35009DC29
:1001F000F0BC4FF0004202EAC352DBB200F500004F
:1002000000F02EBB400000F1807000EBC350A0F165
:10021000807040EAD170490009E0490841EAC071A4
:10022000A0EBC35000F50000400800EBC350F0BC49
:1002300000F00DBB6142012202EB4101001BF6E719
:10024000F0BC704781F00041AAE780F00040A7E7CA
:1002500080EA010210B502F00043400022D04A00BB
:100260001FD0010E01EB1261C0F35600C2F356021B
:1002700040F4000042F40002A0FB022000047F3999
:10028000140400D0401C50EA124001D44000491E22
:10029000C2B20C0604EBD010401C4008802A02D0E9
:1002A00003E0002010BD20F00100002900DA00204A
:1002B000184310BD30B480EA010202F0004530F06E
:1002C000004221F0004013D090B1C30DD40DC2F311
:1002D0001601C0F31600E41A41F4000140F40002D4
:1002E0007D34914201D3641C00E04900002C02DA05
:1002F00030BC002070474FF400000023914201D32E
:10030000891A034340084FEA4101F7D151B19142A4
:1003100002D14FF0004105E002D24FF0010101E0AF
:100320006FF0010103EBC450284430BC00F08FBAD9
:100330002DE9FE4F804681EA0300C00F0C46009075
:1003400021F0004123F00045B8EB0200A94105D29D
:100350004046214690461C460B46024623F000408C
:10036000104347D0270DC7F30A00C3F30A51029088
:10037000401A019040286BDAC3F3130040F4801B4D
:100380000098924620B10023D2EB030A63EB0B0BDB
:1003900001985946C0F14002504600F037FA06462F
:1003A0000D4650465946019A00F03FFA10EB0800FE
:1003B0006141002487EA115284EAE7731A4340D06E
:1003C000009A62B3019A012A4FEA075215DC001B1A
:1003D00061EB02014FF0004202EA0752CDE9004210
:1003E000001C41F5801132462B4600F076FA03B02E
:1003F000BDE8F08F40462146F9E7001B61EB0201A2
:10040000001C41F5801300185B412018A2F500176D
:1004100047EB030140EAD570B6196D4111E06D0854
:100420004FEA360645EAC0754FEA0752001B61EBFA
:100430000201001C41F5801149084FEA3000001903
:10044000514132462B4603B0BDE8F04F00F036BABA
:100450000098012240000023D0EB020263EBE0731E
:10046000009821464FEAE074B8EB000061EB04010C
:10047000E9E783F000435BE781F0004158E72DE9AD
:10048000FE4F81EA030404F0004421F0004100948F
:100490004FF0000B23F0004350EA01045ED052EA13
:1004A00003045BD0C3F30A54C1F30A552C44A4F2ED
:1004B000F3340194A0FB0254C1F3130141F4801101
:1004C000C3F3130343F4801301FB024400FB034E08
:1004D000840A970A44EA815447EA8357A4FB0768D1
:1004E00002958D0A05FB07854FEA932C04FB0C54FB
:1004F0002705029D4FEA065847EA1637B5EB08056F
:100500006EEB070C870E920E47EA811742EA8312C0
:10051000A7FB0201B6EB0B0164EB00042B0D43EAD1
:100520000C335E1844EB1C50DA465146E7FB0201DF
:10053000C5F313044FEA0B3343EA14534FEA043272
:10054000019C43EA0603A4F10C040294009CCDE94B
:1005500000B400F0C2F903B0BDE8F08F00200146FE
:10056000F9E72DE9F04D81EA030404F0004B21F096
:10057000004514464FF0000A23F0004150EA0502FE
:1005800020D054EA01021DD0C5F30A570246C5F334
:100590001303C1F31300C1F30A5640F4801543F46A
:1005A0008013A7EB0608101BD64608F2FD3873EB44
:1005B000050002D308F1010801E092185B41B8F18F
:1005C000000F03DA00200146BDE8F08D00204FF453
:1005D0008011064684460EE0171B73EB050705D312
:1005E000121B63EB050306434CEA010C49084FEA72
:1005F000300092185B4150EA0107EDD152EA030046
:1006000012D082EA040083EA0501084305D0101BDA
:10061000AB4106D20122002306E000224FF0004346
:1006200002E06FF0010253101AEB06004CEB085188
:1006300010EB0A0041EB0B01BDE8F04D00F03EB9B4
:10064000002801DBC0F10040002901DBC1F10041BD
:10065000814201D80120704700207047002801DB4B
:10066000C0F10040002901DBC1F10041814201D20B
:100670000120704700207047002801DBC0F10040D6
:10068000002901DBC1F10041814201D901207047FD
:1006900000207047002801DBC0F10040002901DB89
:1006A000C1F10041814201D1012070470020704713
:1006B000C10F80EAE0700844CA079623002100F0C9
:1006C000CFB896230022114600F0CAB80EB5C10F6C
:1006D00080EAE0700844CA07002140F233438DE805
:1006E0000E000A460B4600F0F8F803B000BD00F01B
:1006F000004220F00040C10DC0F3160040F400009D
:100700007F2901DA00207047962903DCC1F19601A8
:10071000C84001E096398840002AF4D04042704732
:1007200000F0004230F000400AD0C10D01F56071C8
:10073000C0F3160042EA0151C20840071143704756
:1007400000200146704701F0004330B421F0004121
:1007500050EA010206D00A0DA2F56072C1F313013E
:10076000002A02DC30BC00207047440F44EAC10478
:10077000C100E01830BC00EBC25000F068B830B5E2
:100780000B46014600202022012409E021FA02F54F
:100790009D4205D303FA02F5491B04FA02F52844E9
:1007A000151EA2F10102F1DC30BD2DE9F05F054616
:1007B000002092469B4688460646814640241BE020
:1007C000284641464746224600F046F953465A46D7
:1007D000C01A914110D311461846224600F016F86F
:1007E0002D1A67EB01084F4622460120002100F038
:1007F0000DF817EB00094E41201EA4F10104DFDCC7
:10080000484631462A464346BDE8F09F202A04DB8D
:10081000203A00FA02F1002070479140C2F1200313
:1008200020FA03F3194390407047202A06DBCB17C8
:10083000203A41FA02F043EAE07306E041FA02F39B
:10084000D040C2F120029140084319467047002968
:10085000A8BF7047401C490008BF20F00100704746
:1008600010B4B0FA80FC00FA0CF050EA010404BFA6
:1008700010BC704749B1CCF1200421FA04F411FAFC
:100880000CF118BF012121430843A3EB0C01CB1D40
:100890004FEA00614FEA102042BF002010BC7047B1
:1008A00000EBC35010440029A4BF10BC7047401C8B
:1008B000490008BF20F0010010BC704710B5141E9D
:1008C00073F1000408DA401C41F1000192185B4109
:1008D0001A4301D120F0010010BD2DE9F04D9246E0
:1008E0009B4611B1B1FA81F202E0B0FA80F22032F7
:1008F0009046FFF78BFF04460F4640EA0A0041EAA4
:100900000B0153465A46084313D0114653EA0100DF
:1009100019D0C8F14002504600F09EF805460E4638
:10092000504659464246FFF771FF084305D0012063
:1009300004E020463946BDE8F08D0020054346EA34
:10094000E0762C4337430A986305E40AA0EB0800DD
:100950000022FD0A44EA47540A3002D5002001462D
:10096000E9E7010510196941DDE908450019694108
:10097000BDE8F04DA2E770B521F0004303430CD071
:10098000C1F30A550024D5EB040564EB0403D61724
:10099000AD1AB34102DB0020014670BD201841EBC7
:1009A000025170BDC1F30A52C1F3130140F2FF338B
:1009B00041F480119A4202DA00200146704740F269
:1009C00033439A42A2F2334202DC524200F044B86E
:1009D000FFF71CBF30B5041E71F1000404DB4FF0BB
:1009E0000044404264EB0101141E73F1000405DB76
:1009F0001C464FF00043524263EB04038B4208BF96
:100A0000824230BD30B5041E71F1000404DB4FF0AA
:100A10000044404264EB0101141E73F1000405DB45
:100A20001C464FF00043524263EB0403994208BF57
:100A3000904230BD064C074D06E0E06840F00103EF
:100A400094E8070098471034AC42F6D3FFF752FB06
:100A5000F89F000818A00008202A04DB203A21FA99
:100A600002F00021704721FA02F3D040C2F12002C7
:100A700091400843194670472DE9F04D00231A466E
:100A80001B1A8A4103DB00200146BDE8F08DC1F34B
:100A90000A52C1F3130141F480154FF0000BD10746
:100AA00002D100186D41521E0027044640F2FF118A
:100AB000384601EB620A3E468046024600204FF46B
:100AC0008011FFF7C9FFC2197141BB1846EB010045
:100AD000B4EB030C75EB000C04D3E41A65EB0005D2
:100AE00017460E46241908F101006D41804634284E
:100AF000E3DDF91946EB0600091BA84103D24FF0CC
:100B0000FF32134601E0002213461BEB070046EBC1
:100B10000A51BDE8F04DFFF7D1BE0000FEE700002E
:100B20002DE9F04F83B040F26420C2F2000003F0E0
:100B30007DFF40F2A0044042C2F20004A06140F2F6
:100B4000F420C2F2000003F071FFE06104F1200024
:100B500004F1240104F1280205F058FAA01C211D1B
:100B6000A21D03F0BDF904F1080004F10A0104F12B
:100B70000C0203F093F940F2810040F28201C2F2CC
:100B80000000C2F200010078097850EA010201D1A8
:100B9000002011E0012802D1E06A0538E062E06A35
:100BA000012908BF053010F1310F03DB3128C8BF20
:100BB000322001E06FF0310040F2830140F2840204
:100BC000C2F20001C2F200020978127840F20C0968
:100BD00051EA0203C2F20009E06207D149F69A1114
:100BE0004FF0000AC3F6197116E000BF012902D1C7
:100BF000236B0A332363D4F830A0012A12D11AF1EF
:100C0000BE0FD8BF6FF0BD0ABAF1D20FA8BF4FF028
:100C1000D20AAAF10A0A0021C4F830A0C9F81810B3
:100C200013E000BF1AF1C80FD8BF6FF0C70ABAF1BE
:100C3000C80FA8BF4FF0C80A0129C4F830A04FF070
:100C4000000114BF012AC9F81810D4E90612081AC5
:100C50001044FFF72DFD616905460846FFF728FDA2
:100C600043F23331C3F63371FFF7F2FA49F69A11C2
:100C70000646C3F699612846FFF7EAFA3146FFF7C0
:100C80008FFAFFF734FD21694BF2E0170144CFF6EC
:100C9000FF776061B942C8BF0F4644F620618F42BA
:100CA000A8BF0F462178D9F80C80D9F81050012937
:100CB000276102BF002121612170FFF7F9FC064680
:100CC0003846FFF7F5FC01462846FFF7C1FA05460E
:100CD00040463146FFF7BCFA2946FFF761FAFFF7B5
:100CE00006FD0290FFF7E4FC0146D9E90007D9F8B8
:100CF0001420D9F808500192FFF752FA8046B4F94F
:100D00000200666AB4F906B0FFF7D2FC81463046AD
:100D10004146FFF797FA064628464946FFF798FAF4
:100D2000054638463146FFF793FA2946FFF738FA69
:100D3000FFF7DDFC07465846FFF7BAFC054650466C
:100D4000FFF7B6FC40F20C01C2F2000189690646C9
:100D500008462946FFF77CFA054601983146FFF719
:100D600077FA2946FFF71CFAFFF7C1FCC11944F8CE
:100D7000441F029944F8080C381A254645F8040D1A
:100D800044E904172846214603F032F82868216810
:100D900003B0BDE8F04F03F04BB8000040F2841000
:100DA000C2F2000000F0FCB810B540F24010C2F2F0
:100DB000000000F0F5F840F28003C2F20003597918
:100DC000481EC0B2062819700AD810A111F800E018
:100DD00010A10C5C11A213A1125C11F800C005E077
:100DE0004FF0000E002400224FF0000C40F23C3087
:100DF00083F801E09C70DA70591DC2F200000122F4
:100E000083F804C0BDE8104002F0D6BA010000002B
:100E100000000000000000000100000000000000D1
:100E20000000010000000100000000007047000009
:100E3000042000F069BA0000202000F065BA00002C
:100E4000EFF3108072B600BFFEE7000010B582B06D
:100E500040F60004C4F2010420460821012200F0FB
:100E60006FFB5A20019000BF00BF0198411E019105
:100E700078B100BF0198411E019150B100BF0198A7
:100E8000411E019128B100BF0198411E0028019127
:100E9000EAD120460821002202B0BDE8104000F04F
:100EA0004FBB0000014690F82100022816D10868C7
:100EB000D1E90FC3026822F00E020260026822F03C
:100EC00001020260012000FA03F2CCF8042081F84C
:100ED00021000020002281F8202070470420886330
:100EE0000120002281F820207047000080B590F892
:100EF0002110022924D10268116821F00E0111602D
:100F00002F211368C4F202018A4240F20401C4F2A4
:100F1000020123F00103136016DD3023C4F2020343
:100F20009A421DD04423C4F202039A421CD0582393
:100F3000C4F202039A421DD14FF4803322E000BF75
:100F400004218163012080BD0823C4F202039A4278
:100F50000ED01C23C4F202039A420BD1102311E0DD
:100F60004FF480730EE000BF4FF480530AE000BFDF
:100F7000012307E001F1680C4FF08073624508BF60
:100F80004FF480130B60012180F82110426B002187
:100F900080F820100AB190470021084680BD00006B
:100FA00010B5D0E90FCE0168DCF800300A6823FAEA
:100FB0000EF35C072AD512F0040427D00A689206C3
:100FC00003D40A6822F004020A602F22C4F202024B
:100FD000914240F20402C4F202025BDD3023C4F20B
:100FE0000203994272D04423C4F20203994273D09F
:100FF0005823C4F20203994240F07A804FF48023D0
:101000001360C16A002940F098806FE09C0727D5E3
:1010100012F0020424D00A68920606D40A6822F06C
:101020000A020A60012280F821202F22C4F2020263
:10103000914240F20402C4F202023BDD3023C4F2CA
:101040000203994260D04423C4F2020399425FD064
:101050005823C4F20203994260D14FF4003365E093
:101060001B0743D512F0080208BF10BD0A6822F022
:101070000E020A60012101FA0EF2CCF8042081630D
:1010800080F82110016B0022002980F8202054D123
:101090002CE000BF0823C4F20203994222D01C2393
:1010A000C4F20203994223D140231360C16A00298C
:1010B00043D11BE00823C4F2020399422CD01C2325
:1010C000C4F20203994229D120232FE04FF4806318
:1010D0001360C16A89BB09E04FF480431360C16AA1
:1010E00059BB03E004231360C16A31BB10BD00BFCC
:1010F00002F168044FF08063A14208BF4FF48003FF
:101100001360C16AC9B9F1E74FF400730EE000BF84
:101110004FF400530AE000BF022307E002F1680425
:101120004FF00073A14208BF4FF400131360816AAF
:101130000022002980F82020D8D0BDE810400847C0
:10114000014600284FF0010008BF70472DE9F04329
:10115000D1F800C04FF6F873CBF6FD734CF6CD42D4
:101160006344CCF6CC42A3FB02236FF0030707EAEB
:1011700093030027C4F2020701F10C09C1E90F73C0
:101180000223D1E9012E99E87002D1F81C8081F880
:101190002130DCF8003043F6F077BB431A4342EAD3
:1011A0000E0222432A43324342EA090242EA08027B
:1011B000CCF8002000228A6381F8210081F82020E9
:1011C0000020BDE8F0437047F0B590F820C0BCF1B6
:1011D000010F32D04FF0010E80F820E090F821C0CE
:1011E000BCF1010F26D14FF0020C80F821C04FF066
:1011F000000CC0F838C0D0E900C4C56AC66BDCF882
:101200000070102C27F00107CCF80070006C0EFA6B
:1012100000F070600846CCF8043004BF10460A465F
:10122000CCF80800CCF80C20DCF8000045B140F008
:101230000E000DE0002180F820100220F0BD00BF5C
:1012400020F00400CCF80000DCF8000040F00A00B8
:10125000CCF80000DCF8000040F00100CCF8000001
:101260000020F0BDB0B5044600F070F9054640F22C
:101270000400C2F200000078611C18BF044400BFE3
:1012800000F064F9401BA042FAD3B0BD10B520288D
:1012900016D0042818BF10BD40F60000C4F20100AB
:1012A000042100F047F901280ED140F2AC20C2F22F
:1012B0000000016800224A62BDE8104000F096BFBD
:1012C000BDE81040FFF72CBC40F2AC24C2F2000491
:1012D000204600F0BFFF206840F28804406AC2F256
:1012E0000004208080B2FFF7F1F94CF29C4246F6F0
:1012F0007203CBF22002C3F69173FFF7C0F8FFF739
:1013000022FA606010BD000040F21441C4F20101F5
:101310000A68024214BF08607047FFF7B7BF0000B9
:101320002DE9F04F82B041F20042C4F201020E6892
:101330000423904208BF0323002E009300F0F680A0
:1013400040F2004C4FF6FF7E0022C4F2010C012453
:10135000C1F2100E4FF0000A4FF0000947E000BF45
:10136000012502F00C040F27A7402BEA070705FA16
:1013700004F43C4343F82640D1F804B040F20C4555
:101380005FEACB23DCF8083054BF23EA080343EAC2
:101390000803C4F20105CCF808302B685FEA8B24FF
:1013A00054BF23EA080343EA08032B605FEA8B3447
:1013B000DCF8043054BF23EA080343EA08035FEA79
:1013C000CB34CCF80430DCF800304FF0010454BFCB
:1013D00023EA080343EA0803CCF800300E680AF158
:1013E000010A36FA0AF302F1040200F09F8004FABF
:1013F0000AF816EA080FF1D04B68734512DC122B7D
:1014000056D8DFE803F0350B454955555555555528
:10141000555555555555554D510000BFD1F80C90B7
:1014200046E000BF4FF6FF75C1F22105AB420FDC6D
:101430000025C1F21105AB421AD00025C1F21205F8
:10144000AB4215D00025C1F22105AB4210D02FE0F0
:101450000025C1F22205AB420AD00025C1F23105B8
:10146000AB4205D00025C1F23205AB4220D100BF0E
:101470008B684BB1012B14BFC0F81480C0F81080EA
:101480004FF0080914E000BF4FF0040910E000BF5E
:10149000CB6803F108090BE04FF0000908E000BF3A
:1014A000CB6803F1040903E0CB6803F10C0900BF2A
:1014B00013460546BAF1080F24BF203B04352E68B9
:1014C0000F279F40BE4309FA03F333432B60CB79C8
:1014D000DB067FF583AF41F21804C4F202042368EF
:1014E0004FEA9A0643F001032360236840F60004A4
:1014F00003F001030193019BACF57E7353F826B012
:10150000C4F20104A0420FD040F60044C4F201042A
:10151000A0423FF425AF41F20004C4F20104009D53
:10152000A04208BF02251CE700251AE702B0BDE86B
:10153000F08F00008068084018BF0120704700004D
:10154000002A08BF090401617047000040F284309E
:10155000C2F200000068704770B5B8B3044690F856
:101560003D0028B9002084F83C00204600F05CF9DA
:10157000242084F83D002068016821F00101016009
:10158000016841F400410160016821F400410160FB
:1015900000F01CFB48F28041C0F21E0140F600132F
:1015A000D4F804E088424FF00001C0F23D0348F255
:1015B000A16C4FF0000238BF01219842C0F2010C2B
:1015C00038BF0122E64538BF0A460AB1012070BD86
:1015D0004DF68361C4F21B31A0FB01122168950C0A
:1015E0004B684FF4967623F03F0343EA92437543EA
:1015F00044F6D3564B60C1F262060B6AA5FB065651
:10160000B50923F03F03E64538BF950C6A1C1A4321
:101610000A62CA6948F2A0664CF6FF73C0F201067E
:10162000B64522EA03020BD801384FEA4E03B0FB5D
:10163000F3F001306FF31F30042898BF04201EE040
:10164000A368013863B119230EFB03F3B0FBF3F079
:1016500001306FF31F3078B100F5804008E000BF23
:101660000EEB4E03B0FBF3F001306FF31F3028B1E7
:1016700000F5004003E000BF012000E0012010431E
:10168000C8610868D4E9072320F0C000104318435C
:101690000860886848F2FF3204F10C0690434CCE93
:1016A00018431043A5698860C86820F0FF003043E4
:1016B0002843C860086840F001000860002020212D
:1016C000206484F83D10206384F83E0070BD000063
:1016D0002DE9F04383B0994616460F460446FFF7BE
:1016E00035FF94F83D10202920D10546206800BF21
:1016F0008169890716D5FFF729FF411B20681A2940
:10170000F6D381698907F3D500202021206384F86E
:101710003D1084F83E00216C41F02001216484F8E2
:101720003C0003E094F83C10012903D1022003B0EF
:10173000BDE8F083012284F83C200368DDE90B1842
:101740000A9ADB0703D1036843F0010303600368CF
:1017500023F400630360212084F83D00402084F8D6
:101760003E000020206462626185608D39462085DC
:101770000020CFF6FF70E062204632464B46CDF89F
:101780000080019501F0D0FE20B1012003B0BDE83A
:10179000F08300BF208D98B9204641462A4601F0CB
:1017A00027FF88B3206C0428EFD12068016841F43A
:1017B00000710160012003B0BDE8F0830004EBD0AC
:1017C000204641462A4602F0CDF80028EAD1616A57
:1017D0002268084610F8013B1361238D6062581E91
:1017E0002085678D013F678557697F07E6D5070428
:1017F000E4D048781061881C6062981E2085618D55
:1018000001396185DAE700BF2068016841F40071A1
:101810000160202084F83D00002084F83E0084F818
:101820003C0003B0BDE8F08310B586B0006845F217
:101830000042C4F2000200219042049102D006B09E
:1018400010BD00BF41F21804C4F20204206802A9CE
:1018500040F008002060206800F008000190019826
:101860004FF440700290122003900320059040F640
:101870000040C4F20100FFF753FD0420C4F2010050
:10188000016841F0E06141F002010160606840F4EC
:1018900000106060606800F400100190019806B0CC
:1018A00010BD000040F2040040F28431C2F200009A
:1018B000C2F2000100780A68104408607047000016
:1018C00080B542F20000C4F20200016841F010014C
:1018D0000160032000F08AF80F2000F005F800F006
:1018E00027F8002080BD000070B540F20406C2F267
:1018F000000640F27C013278C2F200014FF47A73A4
:101900000968B3FBF2F20446B1FBF2F1084600F0BD
:101910005FFB0F2C4FF0010508D838B94FF0FF30AE
:1019200021460022002500F035F87460284670BD7D
:1019300082B041F21800C4F202000168022241F0B4
:1019400001010160016801F0010101910199416803
:1019500041F080514160406800F080500090009854
:101960000420C4F20100016862F31A61016002B050
:1019700070470000002848BF704700F01F01012297
:1019800002FA01F14EF200124009CEF2000242F8D2
:101990002010704710B54EF60C5CCEF2000CDCF84F
:1019A0000030C3F3022E8EF00704042C28BF042459
:1019B000BEF103034FF0FF3E0EFA04F438BF0023DC
:1019C000A14399400EFA03F39A43114300F00F022A
:1019D000043A624409010C3200F16043B0F1FF3F68
:1019E000C8BF03F56442117010BD00004EF60C51E3
:1019F000CEF200010A684FF6FF031A4060F30A2294
:101A000042F0806040F0FD70086070472DE9F043BF
:101A100081B0002800F0858042F20008C4F202087C
:101A20000446D8F800000D4600F0070088420CD2AA
:101A3000D8F8000020F007002843C8F80000D8F8C4
:101A4000000000F00700A8426BD1206841F20409B1
:101A50008107C4F2020917D5410705D5D9F800104E
:101A600041F4E061C9F80010010705D5D9F800106C
:101A700041F46051C9F80010D9F80010A26821F0B3
:101A8000F0011143C9F80010C00741D1D8F8000097
:101A900000F00700A8420CD9D8F8000020F0070099
:101AA0002843C8F80000D8F8000000F00700A8425A
:101AB00037D12068410707D5D9F80010E26821F432
:101AC000E0611143C9F80010000708D5D9F80000FB
:101AD000216920F4605040EAC100C9F80000D9F83B
:101AE000002002F00C00082841F20020C0F27A0029
:101AF00050D149F2A033C2F38341C0F60003595CD0
:101B0000D2033BD440F60010C0F23D00484341E010
:101B1000606802280AD001282AD159F8041C8903D8
:101B200008D4012001B0BDE8F08300BF59F8041CBF
:101B30008901F6D5D9F8001021F003010843C9F84E
:101B40000000FFF703FD064641F28837D9F8000090
:101B5000616800F00C00B0EB810F97D0FFF7F6FC46
:101B6000801BB842F2D9032001B0BDE8F08300BF6A
:101B700059F8041C8907D4D5DCE700BFD9F8002048
:101B800049F29E33C2F34042C0F600039A5C4843D8
:101B9000B0FBF2F0D9F8001048F67E32C1F3031121
:101BA000C0F60002515C40F27C0220FA01F140F2E2
:101BB0000800C2F200000068C2F200021160FFF7E4
:101BC00093FE002001B0BDE8F083000040F27C00ED
:101BD00041F20401C2F20000C4F202010068096887
:101BE00048F68E32C1F30221C0F60002515CC840B3
:101BF0007047000040F27C0041F20401C2F2000094
:101C0000C4F202010068096848F68E32C1F3C221AD
:101C1000C0F60002515CC840704700002DE9F04159
:101C200082B0002868D00446007841F20006C00760
:101C3000C4F2020625D0706800F00C0004281BD006
:101C4000706800F00C00082802D17068C00313D43B
:101C50006068002800F06881B0F5A02F00F07C815A
:101C6000B0F5803F00F07C81306820F48030306037
:101C7000306820F4802076E13068800301D5606808
:101C8000D0B32078800718D5706810F00C0F07D0FB
:101C9000706800F00C0008286ED17068C0036BD427
:101CA0003068800702D52069012825D13068616934
:101CB00020F0F80040EAC1003060207800071FD40F
:101CC0002078400732D4E56995B1706800F00C00C7
:101CD000082840F08F80012D0ED07068216A00F432
:101CE00080328A4208D1616A00F47010884203D1C0
:101CF000002002B0BDE8F081012002B0BDE8F08113
:101D0000A069002862D00020C4F242200121C0F85E
:101D10008014FFF71BFC0546706A800700F18C8079
:101D2000FFF714FC401B0228F6D92AE1F06910F0F5
:101D3000805808D1F06940F08050F061F06900F0FF
:101D400080500090009847F20007C4F200073868FE
:101D5000C00529D4386840F480703860FFF7F6FB7E
:101D6000054600BF3868C0051ED4FFF7EFFB401BD7
:101D70006428F7D905E100BF2069002840F200007F
:101D8000C4F2422000F0828001210160FFF7DEFBF7
:101D9000054600BF306880073FF588AFFFF7D6FBE8
:101DA000401B0228F6D9ECE0E068002800F08080B3
:101DB000052800F09780012800F09880306A20F014
:101DC00001003062306A20F0040092E00020C4F28A
:101DD00042200021C0F88014FFF7B8FB054600BF81
:101DE000706A80077FF56CAFFFF7B0FB401B0228DD
:101DF000F6D9C6E00027C4F2422700203866FFF774
:101E0000A5FB022D05460BD13068800140F1BE8054
:101E1000FFF79CFB401B02284FF00300F4D968E752
:101E2000306880017FF564AFFFF790FB401B02280C
:101E30004FF00300F4D95CE740F27C00C2F20000EE
:101E4000006844F6D351C1F26201A0FB0101480AC7
:101E5000019000BF00BF0198411E002801913FF48E
:101E60002FAF00BF0198411E002801913FF428AF19
:101E700000BF0198411E002801913FF421AF00BF2F
:101E80000198411E00280191E4D119E70021016069
:101E9000FFF75CFB054600BF306880077FF50DAF9C
:101EA000FFF754FB401B02284FF00300F4D920E752
:101EB000306A20F001003062306A20F004003062A5
:101EC000FFF744FB054641F2883700BF306A8007C0
:101ED00020D5FFF73BFB401BB8424FF00300F5D97C
:101EE00007E700BF306A40F004003062306A40F01B
:101EF00001003062FFF72AFB054641F2883700BF38
:101F0000306A800706D4FFF721FB401BB842F7D99F
:101F100037E000BFB8F1000F7FF4D5AEF06920F0D4
:101F20008050F061CFE600BF306820F48030306030
:101F3000306820F480203060FFF708FB054600BFC2
:101F4000306880037FF59DAEFFF700FB401B6428DF
:101F50004FF00300F4D9CCE6306840F480203060C4
:101F6000306840F480303060FFF7F0FA054600BF7B
:101F7000306880033FF585AEFFF7E8FA401B642820
:101F8000F6D9032002B0BDE8F08100BF206AB0F5A9
:101F9000803F05D17168A26821F40031114371605E
:101FA0007168626A21F47411104308437060012063
:101FB0003866FFF7CBFA0446306880013FF598AEEB
:101FC000FFF7C4FA001B02284FF00300F4D990E693
:101FD000411E0020B0EB116F1CBF012070474EF274
:101FE0001002CEF2000251604EF62351CEF20001F3
:101FF000F0230B700721906011607047704700005C
:1020000070470000B0B590F83C20012A04BF0220C0
:10201000B0BD01F108053CCDD1E900CE23F47C53DD
:1020200022F470521A432EF4F0431A432CF4E04386
:102030001A4324F4C0431A432A43C96922F4804254
:10204000036811435964002180F83C100846B0BD74
:1020500010B590F83C20012A4FF0020233D080F8EE
:102060003D200268D2F804E0D2F808C00C682EF0D7
:102070007003234340F2FF74C4F20004A242536091
:102080000ADCB2F1804F13D040F20043C4F20003E7
:102090009A420DD011E000BF42F60043C4F20103A2
:1020A0009A4205D040F60003C4F200039A4204D1DC
:1020B00049682CF08003194391600121002280F8C7
:1020C0003D1080F83C20104610BD0000002804BFE1
:1020D0000120704710B5044690F83D0028B9002053
:1020E00084F83C00204600F067F8022084F83D00A8
:1020F000206840F2FF730268C4F2000342F6004C0D
:102100009842C4F2010C15DCB0F1804F1AD040F2B5
:102110000041C4F20001884214D0984218DCB0F1AA
:10212000804F1DD040F20041C4F20001884217D018
:102130001AE000BF604505D040F60001C4F200017E
:102140008842EAD1A16822F070020A439842E6DD93
:10215000604505D040F60001C4F20001884203D179
:10216000216922F440720A43A36922F08001D4F865
:1021700004E0E268194360450160C262C0F828E0EB
:1021800002D16169CCF8301001214161002084F84E
:10219000461084F83E1084F83F1084F8401084F80C
:1021A000411084F8421084F8431084F8441084F8F5
:1021B000451084F83D1010BD81B0006840F2004128
:1021C000C4F20001884201D001B0704741F21C0006
:1021D000C4F20200016841F002010160006800F0F1
:1021E00002000090009801B07047000090F83D1088
:1021F00001291CBF01207047022180F83D100068B2
:1022000040F2FF71C4F20001884209DCB0F1804F56
:1022100012D040F20041C4F2000188420CD012E01A
:1022200042F60041C4F20101884205D040F60001A7
:10223000C4F20001884206D1816801F00701062935
:1022400004BF00207047016841F0010101600020D7
:10225000704700000146006841F21113026A1A42F9
:1022600004D00122002081F83D207047026A40F22C
:1022700044431A42F5D1026822F0010202600122B1
:10228000002081F83D20704780B590F83C20012A5D
:102290004FF0020200F0C28080F83D20D0F800C06C
:1022A0004FF67772DCF8083023EA0202CCF80820F7
:1022B0000B684F2B28DC1F2B44DD202B45D0302B07
:1022C00043D0402B40F0AC80D1F804E0C968DCF882
:1022D0002030DCF8202022F00102CCF82020DCF8AD
:1022E000182022F0F00242EA011123F00A0242EA29
:1022F0000E02CCF81810CCF82020DCF8081041F0C1
:10230000470121F0300180E06F2B27DDB3F5005F3E
:1023100048D0B3F5805F7AD0702B40F08180D1E94E
:1023200001E3C968DCF8082043EA0E0322F47F4287
:1023300043EA01211143CCF80810DCF8081041F001
:10234000770162E00BB1102B6AD1DCF8081021F0A4
:102350007001194341F0070157E000BF502B35D001
:10236000602B5DD1D1F804E0C968DCF82030DCF8DE
:10237000202022F01002CCF82020DCF8182022F4D3
:10238000704242EA013123F0A00242EA0E12CCF878
:102390001810CCF82020DCF8081041F0670121F07B
:1023A000100132E0D1E901E3C968DCF8082043EA12
:1023B0000E0322F47F4243EA01211143CCF80810B6
:1023C000DCF8081041F480411FE000BFD1F804E0C0
:1023D000C968DCF82030DCF8202022F00102CCF8BB
:1023E0002020DCF8182022F0F00242EA011123F04C
:1023F0000A0242EA0E02CCF81810CCF82020DCF8D1
:10240000081041F0570121F02001CCF808100022FB
:10241000012180F83D10002180F83C10104680BD5D
:102420000122F5E7002804BF012070472DE9F04F95
:1024300081B0044690F83D000D4628B9002084F88C
:102440003C00204600F094F8022084F83D0020680B
:1024500044F20702816840F2FF7391438160026891
:10246000C4F2000342F6004C9842C4F2010C15DCA1
:10247000B0F1804F1AD040F20041C4F2000188420E
:1024800014D0984218DCB0F1804F1DD040F20041CA
:10249000C4F20001884217D01AE000BF604505D0A1
:1024A00040F60001C4F200018842EAD1A16822F09E
:1024B00070020A439842E6DD604505D040F600010F
:1024C000C4F20001884203D1216922F440720A4318
:1024D000A36922F08001D4F804E0E2681943604562
:1024E0000160C262C0F828E002D16169CCF8301006
:1024F0004FF00109C0F814908268D0F818E0D0F8C5
:1025000020C0D5E90038D5E9027B43EA020AAB696D
:102510004FF6FF712EEA010E47EA03234FF6FC4700
:10252000BB43D5E907724BEA0E012E69194341EA14
:10253000072141EA061141EA02312CF022026B69BF
:1025400042EA080242EA0312C0F808A0816102626E
:1025500084F8469084F83E9084F83F9084F8429046
:1025600084F8439084F83D90002001B0BDE8F08FDE
:1025700010B586B0006840F60001C4F20001884240
:102580004FF00001CDE90411CDE9021120D0B0F1E6
:10259000804F4AD141F21800C4F2020041681C2465
:1025A00041F001014160416801F00101019101998F
:1025B000016841F004010160006800F0040001902E
:1025C00001980320029040F60000C4F201001EE0D2
:1025D00041F21800C4F2020041681E2441F00401D7
:1025E0004160416801F0040101910199016841F0E5
:1025F00008010160006800F0080001900198C02007
:10260000029040F60000C4F2010000F58060002155
:10261000CDE9031102A9FEF783FE20460021002226
:10262000FFF7B8F92046FFF7A5F906B010BD000086
:1026300080B590F83E2090F83F3090F842E090F856
:1026400043C004290AD0B9B9012A4FF0010208BFDA
:10265000BEF1010F34D0104680BD00BF012B4FF0FA
:10266000010208BFBCF1010FF5D1022180F83F1033
:1026700080F8431000681EE0012A4FF0010208BFF5
:10268000012BE8D1BEF1010FE5D1BCF1010FE2D180
:10269000022280F83E2080F83F2080F8422080F817
:1026A000432091B10068016A21F001010162016AD1
:1026B00041F00101016210216FF0100209E000BF3A
:1026C000022180F83E1080F84210006801216FF06E
:1026D0000102036A1A400262026A11430162016840
:1026E000002241F001010160104680BD70470000EA
:1026F00010B5016804460869800744BFC8685FEAEE
:10270000807039D40869400744BFC8685FEA4070E8
:102710003ED40869000744BFC8685FEA007045D42A
:102720000869C00644BFC8685FEAC0604AD4086947
:10273000C0071CBFC8685FEAC07051D108690006B5
:1027400044BFC8685FEA006052D40869400644BFCD
:10275000C8685FEA406053D40869800646BFC8680D
:102760005FEA806010BD6FF0200220460A61BDE87C
:102770001040FFF745BC00BF6FF002000861012068
:1027800020778869800743D02046FFF7AFFF45E0F8
:102790006FF00400086102202077886910F4407F00
:1027A00040D02046FFF7A2FF42E000BF6FF00800D4
:1027B000086104202077C86980073DD02046FFF7D4
:1027C00095FF3FE06FF01000086108202077C8698E
:1027D00010F4407F3AD02046FFF788FF3CE000BF6E
:1027E0006FF001000861204600F040FA2168A5E77B
:1027F0006FF0800008612046FFF700FC2168A4E725
:102800006FF040000861204600F032FA2168A3E72B
:10281000204600F025F8204600F0B6F92168002097
:1028200020776FE7204600F01BF8204600F0ACF957
:102830002168002020776CE7204600F011F8204640
:1028400000F0A2F921680020207769E7204600F017
:1028500007F8204600F098F921680020207766E705
:10286000704700002DE9F04390F83C30012B04BF85
:102870000220BDE8F0834FEAB202032A3CD8DFE829
:1028800002F003437FB900BF036842F600461D6AA9
:102890001A6AC4F2010622F001021A621A465C6842
:1028A00052F818CFB3428E68D1F800E025F0020547
:1028B00045EA06050CD1CE68D1E9057824F44074C8
:1028C00025F00C0526F004063C43354344EA080491
:1028D0002CF0730747EA0E075C609F614F68096937
:1028E0005F631D629F6947F008079F619F6927F03A
:1028F00004079F61AEE000BF0121002280F83C2068
:102900000846BDE8F08300BF036842F600461D6A32
:102910001A6AC4F2010622F010021A621A46D3F8AB
:1029200004C052F8184FB3428E68D1F800E025F089
:10293000200545EA06150FD1CE68D1E905986FF05C
:10294000400707EA06162CF4406725F0C00547EA61
:102950008907354347EA880C24F4E64444EA0E2705
:10296000C3F804C09F614F6809699F631D629F6936
:1029700047F400679F619F6927F480679F6168E063
:10298000036842F600461D6A1A6AC4F2010622F480
:1029900080721A621A46D3F804C052F81CEFB34290
:1029A0008E680C6825F4007545EA06250FD1CE68BF
:1029B000D1E90598360240F2FF47BE432CF4405758
:1029C00025F4406547EA0917354347EA081C2EF00D
:1029D00073072743C3F804C0DF614F680969DF63E9
:1029E0001D62DF6947F00807DF61DF6927F0040730
:1029F000DF612FE0036842F60047D3F820C01A6A6F
:102A0000C4F2010722F480521A621A465C6852F836
:102A10001C5FD1F800E08E68BB4204D14F6924F4FA
:102A2000804444EA87142CF4005747EA063725F41B
:102A3000E64646EA0E265C60DE614E6809691E6461
:102A40001F62DF6947F40067DF61DF6927F4806791
:102A5000DF6109021368194311600021002280F828
:102A60003C200846BDE8F083002804BF01207047E1
:102A700010B5044690F83D0028B9002084F83C00C9
:102A8000204600F067F8022084F83D00206840F2FC
:102A9000FF730268C4F2000342F6004C9842C4F28D
:102AA000010C15DCB0F1804F1AD040F20041C4F2A5
:102AB0000001884214D0984218DCB0F1804F1DD03C
:102AC00040F20041C4F20001884217D01AE000BF72
:102AD000604505D040F60001C4F200018842EAD109
:102AE000A16822F070020A439842E6DD604505D0F5
:102AF00040F60001C4F20001884203D1216922F4AA
:102B000040720A43A36922F08001D4F804E0E2682D
:102B1000194360450160C262C0F828E002D16169D2
:102B2000CCF8301001214161002084F8461084F86F
:102B30003E1084F83F1084F8401084F8411084F867
:102B4000421084F8431084F8441084F8451084F847
:102B50003D1010BD81B0006842F60041C4F2010191
:102B6000884201D001B0704741F21800C4F202005F
:102B7000016841F400610160006800F400600090A9
:102B8000009801B0704700007047000041B108296B
:102B900010D0042914BF00F1410200F13F020BE004
:102BA00090F83E20012A1CBF01207047022280F8C5
:102BB0003E2013E000F140021278012A1CBF0120E0
:102BC00070470222082907D0042914BF80F8412049
:102BD00080F83F2002E000BF80F84020006801F04C
:102BE0001F010122036A8A4023EA02010162036A8B
:102BF00042F64441C4F201011A43A1F14403984250
:102C000002620FD040F2FF71C4F20001884213DC6F
:102C1000B0F1804F1CD040F20041C4F20001884264
:102C200016D01CE00A6842F400420A6040F2FF71CC
:102C3000C4F200018842EBDD42F60041C4F201011A
:102C4000884205D040F60001C4F20001884206D156
:102C5000816801F00701062904BF00207047016860
:102C600041F0010101600020704700007047000042
:102C7000704700007047000070470000B0B582B098
:102C8000044600680168C368426901F02F05202DE1
:102C900003F0200506D12DB1204602B0BDE8B040BA
:102CA00002F05CB85FEA017C1EBF02F0010E03F483
:102CB000907212EB0E0255D1226B012A05D111F050
:102CC000100218BF13F0100236D10A0622D513F0F5
:102CD00080021FD094F84110212941D1A168B1F59B
:102CE000805F03D12169002900F07282216A4A1CA9
:102CF000226209784160E18C01390A04E1842FD114
:102D0000C16821F08001C160C16841F04001C1602B
:102D100002B0B0BD490623D513F0400120D0C168F0
:102D200021F04001C1602021204684F8411002B00A
:102D3000BDE8B04000F0F4BB0021019101680191B1
:102D40004168019101994169490600F18F80A18D87
:102D5000E28DE38D002B1CBF891A5FEA01420CD182
:102D600002B0B0BDCA0718BF13F4807240F03881BA
:102D70004A0700F13B8140E1206850E8030F2268D8
:102D800020F4907042E80303DBB1206850E8030FA1
:102D9000226820F4907042E8030393B1206850E861
:102DA000030F226820F4907042E803034BB12068BF
:102DB00050E8030F226820F4907042E80303002BD0
:102DC000DAD1206850E8050F226820F0010042E8BF
:102DD0000503DBB1206850E8050F226820F00100F0
:102DE00042E8050393B1206850E8050F226820F0FF
:102DF000010042E805034BB1206850E8050F226846
:102E000020F0010042E80503002BDAD1202084F8ED
:102E1000420000202063206850E8030F226820F061
:102E2000100042E80303DBB1206850E8030F22687A
:102E300020F0100042E8030393B1206850E8030F2C
:102E4000226820F0100042E803034BB1206850E8EC
:102E5000030F226820F0100042E80303002BDAD1B0
:102E6000022289B220466263B4E000BFE16B0A68C7
:102E7000526893B2002B3FF473AFA58DAB42BFF401
:102E80006FAFE2858969202900F09D8050E8030F2B
:102E9000216820F4807041E80302EAB1206850E81C
:102EA000030F216820F4807041E80302A2B120687A
:102EB00050E8030F216820F4807041E803025AB102
:102EC000206850E8030F216820F4807041E8030275
:102ED00012B12068DAE700BF206850E8050F2168CA
:102EE00020F0010041E80502DAB1206850E8050F42
:102EF000216820F0010041E8050292B1206850E805
:102F0000050F216820F0010041E805024AB1206860
:102F100050E8050F216820F0010041E80502002A71
:102F2000DAD1206850E8050F216820F0400041E820
:102F30000502DAB1206850E8050F216820F0400052
:102F400041E8050292B1206850E8050F216820F0A1
:102F5000400041E805024AB1206850E8050F2168A9
:102F600020F0400041E80502002ADAD1202084F850
:102F7000420000202063206850E8030F216820F001
:102F8000100041E80302DAB1206850E8030F21681D
:102F900020F0100041E8030292B1206850E8030FCE
:102FA000216820F0100041E803024AB1206850E88F
:102FB000030F216820F0100041E80302002ADAD153
:102FC000E06BFDF76FFF02206063A08DE18D401A7A
:102FD00081B2204602B0BDE8B040FFF74BBE00BF53
:102FE000626C42F0010262644A0706D5BEF1000F2E
:102FF00003D0626C42F0020262648A0706D5BEF119
:10300000000F03D0626C42F004026264BCF1000F56
:1030100006D555EA0E0203D0626C42F008026264E3
:10302000626C002A3FF49CAE11F0200118BF002D05
:1030300003D0204601F092FE20684169626C01F0E5
:10304000400102F00802891800F0A28050E8030F46
:10305000216820F4907041E80302C2B3206850E870
:10306000030F216820F4907041E803027AB32068CE
:1030700050E8030F216820F4907041E8030232B356
:10308000206850E8030F216820F4907041E80302A3
:10309000EAB12068DAE700BF206850E8050F216830
:1030A00020F0010041E80502DAB1206850E8050F80
:1030B000216820F0010041E8050292B1206850E843
:1030C000050F216820F0010041E805024AB120689F
:1030D00050E8050F216820F0010041E80502002AB0
:1030E000DAD1206B012824D1206850E8030F216831
:1030F00020F0100041E80302DAB1206850E8030F25
:10310000216820F0100041E8030292B1206850E8E5
:10311000030F216820F0100041E803024AB1206843
:1031200050E8030F216820F0100041E80302002A54
:10313000DAD1202084F84200002020632068416911
:1031400049063FD550E8050F216820F0400041E8CE
:1031500005022AB3206850E8050F216820F04000DE
:1031600041E80502E2B1206850E8050F216820F02F
:10317000400041E805029AB1206850E8050F216837
:1031800020F0400041E8050252B12068DAE700BFB4
:103190002046FFF771FD0020606402B0B0BD00BFA3
:1031A000E06B78B144F65D21C0F600014163FDF7A4
:1031B0009DFE00283FF4D4ADE06B416B02B0BDE84A
:1031C000B0400847204602B0BDE8B040FFF754BD0C
:1031D000216A31F8022B6FF35F22426021628AE597
:1031E000002804BF0120704710B5044690F8410044
:1031F00028B9002084F84000204600F061F824201F
:1032000084F841002068D4E90212C36823F4005313
:10321000C360036923F440531A430261D4E90423D1
:103220001143C268194341F20C639A431143C160D0
:103230004169A26921F44071114343F60002C4F2CE
:1032400001029042416103D0FEF7C0FC02E000BFE2
:10325000FEF7D0FC6268192148439100B0FBF1F001
:1032600048F21F51C5F2EB11A0FB01235A096FF080
:10327000630302FB0300322303EB0010A0FB0101F8
:10328000F02303EA5113206803EB0212C1F3431148
:1032900011448160016921F490410161416921F08B
:1032A0002A014161C16841F40051C1600020202120
:1032B000606484F8411084F84210606310BD00001F
:1032C0002DE9F04186B040F600450446C4F2010500
:1032D0000068A5F5444100278842049702D006B053
:1032E000BDE8F08141F21800C4F20200416802AE6C
:1032F00041F480214160416840F21C0801F48021C2
:10330000019101990168C4F2020841F008010160CD
:103310000068314600F00800019001984FF4806089
:10332000029002200390032005902846FDF7F8FF45
:103330004FF40060CDE90207284631460497FDF7B7
:10334000EFFF40F2401508F11400C2F2000580269C
:10335000C5E900072846C5E90276C5E90477C5E94D
:103360000677FDF7EDFE002818BFFDF769FDE56360
:103370006C6240F28415C2F2000510200021202268
:10338000C5E900802846C5E90216C5E90411C5E96A
:103390000621FDF7D5FE002818BFFDF751FD2720B7
:1033A00000210022A5636C62FEF7F4FA2720FEF7E5
:1033B000E1FA06B0BDE8F08170B582B0044690F83D
:1033C000420020280AD113460A4600294FF0010086
:1033D00018BF002B06D102B070BD00BF022002B0A2
:1033E00070BD00BF002522202563A262A38565640D
:1033F00084F842002168E06B44F6E53C44F6455E03
:1034000044F66926C0F6000CC0F6000EC0F60006B1
:103410000431C0E90ACEC0E90C65FDF7D5FE01957F
:10342000206801680191416801910199216929B3DE
:1034300050E8030F216840F4807041E80302EAB1CC
:10344000206850E8030F216840F4807041E80302CF
:10345000A2B1206850E8030F216840F4807041E871
:1034600003025AB1206850E8030F216840F48070CD
:1034700041E8030212B12068DAE700BF206850E893
:10348000050F216840F0010041E80502E2B1206823
:1034900050E8050F216840F0010041E805029AB1AB
:1034A000206850E8050F216840F0010041E805025E
:1034B00052B1206850E8050F216840F0010041E852
:1034C0000502002ADAD100BF206850E8050F216804
:1034D00040F0400041E80502DAB1206850E8050FED
:1034E000216840F0400041E8050292B1206850E8B0
:1034F000050F216840F0400041E805024AB120680C
:1035000050E8050F216840F0400041E80502002A1C
:10351000DAD1002002B070BD704700007047000093
:1035200070470000FEE700002DE9F04383B0044639
:1035300000680D4601680A9F0B9E41F48071994610
:103540009046016020464FF0011100223B46009654
:1035500000F0AEF850B120680068C00544BF4FF4D9
:1035600000702064032003B0BDE8F083206805F0FC
:10357000FE0101610221C0F2010120463A463346B4
:1035800000F080F920B1012003B0BDE8F08300BF56
:1035900000200290206832464169029180693946D4
:1035A00002900298204600F0DDF958B1206C042802
:1035B000E9D12068016841F400710160012003B085
:1035C000BDE8F083B9F1010F0AD020684FEA182155
:1035D000016120463946324600F0C4F90028E5D1A1
:1035E00020685FFA88F10161002003B0BDE8F08334
:1035F00070B50368044653F8140F400711D40E4603
:10360000481C29D086BB00BF1868400527D4FDF7A9
:103610009DFF236853F8140F400739D518684007F9
:10362000F2D5002070BD00BF18684007F9D41868B3
:10363000400514D418684007F3D4186840050ED428
:1036400018684007EDD41868400508D4186840078A
:103650004FF0000048BF70BD18684005E4D56FF416
:1036600080601860042014E0154603E053F8140F3E
:103670004007D6D418684005F1D4FDF767FF401B1A
:103680002368B042F2D958694007EFD4202000E007
:10369000202000212022216384F83D2084F83E1060
:1036A000226C10432064012084F83C1070BD00009F
:1036B0002DE9F041054600681E46144601F47F02DC
:1036C00001338FB242D0DDF81880B2F5803F40F070
:1036D000878040693840C01BB0FA80F04009A042A2
:1036E00040F0C8804EB924E040693840C01BB0FAB1
:1036F00080F04009A04240F0BD80FDF727FFA0EB1D
:1037000008012868B142EFD941693940C91BB1FAB3
:1037100081F14909A142E7D19BE000BF40693840EF
:10372000C01BB0FA80F04009A0424FF0000040F00A
:10373000A680FDF70BFF286841693940C91BB1FA23
:1037400081F14909A142E9D183E000BFB2F5803F90
:1037500024D100BF41693940C91BB1FA81F149093F
:10376000A14240F0878041693940C91BB1FA81F11B
:103770004909A14240F07E8041693940C91BB1FA34
:1037800081F14909A14275D141693940C91BB1FA9A
:1037900081F14909A142DDD06CE000BF8169394067
:1037A000C91BB1FA81F14909A14263D1816939404C
:1037B000C91BB1FA81F14909A1425BD18169394044
:1037C000C91BB1FA81F14909A14253D1816939403C
:1037D000C91BB1FA81F14909A142DFD04AE000BF1B
:1037E00080693840C01BB0FA80F04009A04241D146
:1037F00046B923E080693840C01BB0FA80F0400928
:10380000A0423BD1FDF7A2FEA0EB08012868B1421F
:10381000F0D981693940C91BB1FA81F14909A14246
:10382000E8D116E080693840C01BB0FA80F040094A
:10383000A0424FF0000018BFBDE8F081FDF786FE02
:10384000286881693940C91BB1FA81F14909A1424F
:10385000E8D100202021286385F83D1085F83E003E
:10386000296C41F02001296485F83C000120BDE865
:10387000F08100BF0020BDE8F08100BF0020BDE85E
:10388000F0810000F0B581B0044600681D46436930
:103890008FB203EA0701B94202D1002001B0F0BDA6
:1038A00041691646013201F4806125D0002940D1DA
:1038B000CEB100BFFDF74AFE411B2068B14203D9DB
:1038C00041693940B9424BD141693940B942E4D0EC
:1038D00041694905EED52CE041693940B942DCD057
:1038E0004169490525D4FDF731FE20684169394019
:1038F000B942F1D0202024E0D9B941693940B94218
:10390000CBD04169490514D441693940B942C4D08A
:10391000416949050DD441693940B942BDD0416979
:10392000490506D441693940B942B6D041694905D3
:10393000E3D5016841F4007101606FF48061416179
:10394000042000212022216384F83D2084F83E10C9
:10395000226C1043206484F83C10012001B0F0BDBB
:103960002020EEE770B50368044653F8140F0006F4
:1039700011D40E46481C29D086BB00BF18684005EC
:1039800027D4FDF7E3FD236853F8140F000639D55B
:1039900018680006F2D5002070BD00BF1868000648
:1039A000F9D41868400514D418680006F3D41868D0
:1039B00040050ED418680006EDD41868400508D4F8
:1039C000186800064FF0000048BF70BD1868400539
:1039D000E4D56FF480601860042014E0154603E01D
:1039E00053F8140F0006D6D418684005F1D4FDF73B
:1039F000ADFD401B2368B042F2D958690006EFD4F0
:103A0000202000E0202000212022216384F83D2096
:103A100084F83E10226C10432064012084F83C108E
:103A200070BD000010B584B041F21800C4F202006D
:103A3000016840F6004441F0080101600068C4F2EA
:103A4000010400F008000090009818200090032066
:103A500003901120019069462046FDF761FC204645
:103A600008210022FDF76CFD204610210122FDF700
:103A700067FD204608210122FDF762FD04B010BD5C
:103A80002DE9F04F83B040F60045C4F201050190E6
:103A9000284610210122FDF753FD28460821FDF795
:103AA00049FD0290284610210022FDF749FD2846D5
:103AB00010210122FDF744FD28460821FDF73AFDBB
:103AC0008246284610210022FDF73AFD28461021A3
:103AD0000122FDF735FD28460821FDF72BFD834621
:103AE000284610210022FDF72BFD28461021012237
:103AF000FDF726FD28460821FDF71CFD0446284653
:103B000010210022FDF71CFD284610210122FDF79F
:103B100017FD28460821FDF70DFD06462846102111
:103B20000022FDF70DFD284610210122FDF708FDBA
:103B300028460821FDF7FEFC0746284610210022F2
:103B4000FDF7FEFC284610210122FDF7F9FC28466E
:103B50000821FDF7EFFC8046284610210022FDF7E2
:103B6000EFFC284610210122FDF7EAFC2846082137
:103B7000FDF7E0FC8146284610210022FDF7E0FC1D
:103B80000198A8B1284608210022FDF7D9FC284653
:103B900010210122FDF7D4FC284610210022FDF758
:103BA000CFFC284608210122FDF7CAFC0FE000BF28
:103BB000284608210122FDF7C3FC284610210122D6
:103BC000FDF7BEFC284610210022FDF7B9FC029843
:103BD000002818BF0120BAF1000F18BF4FF0010AEA
:103BE0004AEA40008000BBF1000F18BF4FF0010B04
:103BF00040EA4B00002C18BF012420448000002E16
:103C000018BF012640EA4600002F18BF012738449C
:103C10008000B8F1000F18BF4FF0010840EA4800DB
:103C2000B9F1000F18BF4FF001094844C0B203B00A
:103C3000BDE8F08FB0B540F60044C4F2010405467B
:103C4000C20920460821FDF77BFC204610210122F5
:103C5000FDF776FC204610210022FDF771FCC5F32C
:103C6000801220460821FDF76BFC2046102101221E
:103C7000FDF766FC204610210022FDF761FCC5F32C
:103C8000401220460821FDF75BFC2046102101224E
:103C9000FDF756FC204610210022FDF751FCC5F32C
:103CA000001220460821FDF74BFC2046102101227E
:103CB000FDF746FC204610210022FDF741FCC5F32C
:103CC000C00220460821FDF73BFC204610210122BE
:103CD000FDF736FC204610210022FDF731FCC5F32C
:103CE000800220460821FDF72BFC204610210122EE
:103CF000FDF726FC204610210022FDF721FCC5F32C
:103D0000400220460821FDF71BFC2046102101221D
:103D1000FDF716FC204610210022FDF711FC05F0EE
:103D2000010220460821FDF70BFC2046102101224C
:103D3000FDF706FC204610210022FDF701FC20467D
:103D400008210122BDE8B040FDF7FABB10B540F6EE
:103D50000044C4F20104204608210122FDF7F0FBD3
:103D6000204610210122FDF7EBFB2046082100220E
:103D7000FDF7E6FB204610210022BDE81040FDF7CC
:103D8000DFBB000010B540F60044C4F20104204639
:103D900008210022FDF7D4FB204610210122FDF767
:103DA000CFFB204608210122BDE81040FDF7C8BB2B
:103DB000B0B540F60044C4F20104204608210122B7
:103DC000FDF7BEFB204610210122FDF7B9FB20467E
:103DD0000821FDF7AFFB0546002820464FF01001F3
:103DE0004FF0000218BF0125FDF7AAFB2846B0BD21
:103DF00003684EF2E032B3F5E15FCFF6FF720BDD00
:103E00004FF4E15303600868B0F5E15F0CDC9042C9
:103E1000B8BF0A60704700BF93421346B8BF036043
:103E20000868B0F5E15FF2DD4FF4E1520A607047D7
:103E30002DE9F04140F600454FF00108C4F20105BC
:103E40000C460646C20F88EAD07728464FF4005148
:103E5000FDF776FB28464FF480513A46FDF770FB9C
:103E600040F21C27C2F20007002E48BF7642386895
:103E7000E20F066428464FF4804188EAD476FDF7C5
:103E80005FFB28464FF400413246FDF759FB002CFA
:103E900048BF644238684463BDE8F08170B582B0C1
:103EA00014460D4606460DF1020368203B2106220A
:103EB00000F096F810B102B070BD00BFBDF802105E
:103EC000BDF8042009BA090C318011BABDF80620EA
:103ED000090C298011BA090C218002B070BD0000C4
:103EE00070B582B014460D4606460DF102036820F7
:103EF0004321062200F074F810B102B070BD00BF7B
:103F0000BDF80210BDF8042009BA090C318011BABD
:103F1000BDF80620090C298011BA090C218002B0D5
:103F200070BD000010B5FFF77DFD6B20802100F013
:103F30008FF86420FDF796F96B20002100F088F8D7
:103F40001B20182100F084F81C20002100F080F8CC
:103F50001920092100F07CF81A20032100F078F8DC
:103F60003820002100F074F86A20002100F070F879
:103F70002320002100F06CF83720802100F068F841
:103F8000FFF7E4FED020FFF755FEFFF711FF752085
:103F9000FFF750FEFFF70CFFFFF7D8FED120FFF729
:103FA00049FEFFF705FF0020FFF76AFD0446FFF713
:103FB000E9FE682C1CBF012010BD6B20012100F020
:103FC00047F86C200021002400F042F81920092154
:103FD00000F03EF81A20032100F03AF8204610BD08
:103FE000F0B581B01C4615460E460746FFF7AEFEFB
:103FF0007F00F8B2FFF71EFEFFF7DAFE30B10124B2
:10400000FFF7C0FE204601B0F0BD00BF3046FFF70D
:1040100011FEFFF7CDFEFFF799FE47F00100C0B299
:10402000FFF708FEFFF7C4FE06E000BF0020FFF721
:1040300027FD04F8010B013DE8B20128F6D008B1D4
:104040000120F4E70024FFF79DFE204601B0F0BDFB
:10405000B0B50C460546FFF779FED020FFF7EAFD24
:10406000FFF7A6FE20B1FFF78DFE0120B0BD00BF17
:104070002846FFF7DFFDFFF79BFE2046FFF7DAFD3E
:10408000FFF796FE0446002818BF0124FFF77AFECA
:104090002046B0BDF0B581B01C4615460E46074619
:1040A000FFF754FE7800C0B2FFF7C4FDFFF780FEB3
:1040B00030B10124FFF766FE204601B0F0BD00BF1D
:1040C0003046FFF7B7FDFFF773FE55B12078FFF7D5
:1040D000B1FDFFF76DFE0028EBD1013D04F10104B5
:1040E000F4D10024FFF74EFE204601B0F0BD0000E1
:1040F00080B582B041F21400C4F2020001680022CF
:1041000041F0010101600068002100F00100019010
:1041100001980C20FDF73EFC0C20FDF72BFC0D2038
:1041200000210022FDF736FC0D2002B0BDE88040E2
:10413000FDF720BC2DE9F04F85B041F21800C4F224
:104140000200016840F6000541F0100101600168BD
:10415000C4F2010501F0100101910199016805F512
:10416000006741F0200101600168002201F0200198
:104170000191019901684FF4005641F0040101607A
:1041800001684FF0000801F00401019101990168F4
:1041900041F00801016000684FF4005100F0080090
:1041A000019001983846FDF7CBF9284608210022F6
:1041B0004FF0080BFDF7C4F905F5806420464FF277
:1041C00018010022FDF7BCF9019601AE4FF001097C
:1041D0004FF0030A38463146CDE90298CDF810A0D9
:1041E000FDF79EF800270420C1F22107019007F592
:1041F0008010CDE9020828463146FDF791F828469F
:104200003146CDE901B9CDE9038AFDF789F84FF2CE
:104210001800CDE901090220049020463146CDF86E
:104220000C80FDF77DF8202001A981E8810220465D
:104230003146FDF775F8082000210022FDF7AAFBA2
:104240000820FDF797FB172000210022FDF7A2FBB5
:104250001720FDF78FFB05B0BDE8F08F80B540F269
:10426000C81045F20041C2F20000C4F2000148F259
:10427000A06200234FF4804CC0F2010280E80E00DF
:10428000C0E9033CC0E90533C0E90733FDF764F931
:10429000002808BF80BDBDE88040FCF7D1BD00000C
:1042A00070B598B042F6004540F21C20C4F20105FA
:1042B0000021C2F2000041F61F421191CDE90F1119
:1042C000CDE90D11CDE90B11CDE90911CDE90711AA
:1042D000CDE90511CDE90311CDE90111C0E9005186
:1042E000C0E90212C0E904118161FEF7BDFB00289C
:1042F00018BFFCF7A5FD40F21C20C2F2000010A977
:10430000FDF7A6FE002818BFFCF79AFD6020099073
:104310004FF4E1500A900020CDE90B00CDE90D00EB
:104320000F9040F21C20C2F2000009A90022FEF703
:1043300099FA002818BFFCF783FD40F21C20C2F256
:10434000000009A90C22FEF78DFA002818BFFCF71F
:1043500077FD40F21C244FF40050C2F20004002606
:10436000069001A920460596CDE90366CDE90166D0
:104370000896FDF747FE002818BFFCF761FD20688E
:104380001696A84202D018B070BD00BF41F21800C6
:10439000C4F20200016841F004010160006814A940
:1043A00000F00400139013984FF410601490022052
:1043B00015901790A5F51050FCF7B2FF18B070BD1E
:1043C00080B58CB040F264200021C2F200004FF0B2
:1043D0008042C0E9002103224FF6FF73CDE903219B
:1043E0000122CDE90011C0E9021301618161CDE92B
:1043F0000521CDE90711CDE909210B9103A9FEF7AC
:1044000011F8002818BFFCF71BFD40F26420C2F22F
:1044100000006946FDF71CFE002818BFFCF710FDE0
:1044200040F26420C2F200003C21FEF701F90CB01A
:1044300080BD000080B586B040F2AC2040F2004262
:104440000021C2F20000C4F2000247234FF6FF7CB5
:104450000591CDE90311CDE90011C0E90023C0E9C0
:10446000021C01618161FDF731FE002818BFFCF7D5
:10447000E7FC4FF48050029040F2AC20C2F2000002
:1044800002A9FDF701FF002818BFFCF7D9FC40F294
:10449000AC20C2F200006946FDF7DAFD002818BF23
:1044A000FCF7CEFC06B080BD80B58CB040F2F420A5
:1044B00040F600020021C2F20000C4F20002C0E98E
:1044C000002103224FF6FF73CDE903210122CDE93C
:1044D0000011C0E9021301618161CDE90521CDE937
:1044E0000711CDE909210B9103A9FDF79BFF0028D6
:1044F00018BFFCF7A5FC40F2F420C2F200006946A8
:10450000FDF7A6FD002818BFFCF79AFC40F2F42046
:10451000C2F200003C21FEF78BF80CB080BD000019
:1045200080B540F23C3044F60001C2F20000C4F213
:10453000000100234FF00C0C4FF4E13280E80E0034
:10454000C0E90333C0E905C3C361FEF749FE002893
:1045500008BF80BDBDE88040FCF772BCFEE70000EC
:10456000FEE700002DE9F04F85B040F2C8140025A9
:104570004FF480760127C2F200040DF1120B0DF109
:1045800013084FF0000900BF09F1B0008DF81000CA
:1045900004A8CDE9000720467821002201230296D5
:1045A000FDF796F80DF11100CDE9000720467821BE
:1045B000002201238DF811500296FDF789F8102092
:1045C0008DF812002046782100220123CDE900B7A2
:1045D0000296FDF77DF84FF0000A00BF20467821D3
:1045E000402201238DF81350CDE900870296FDF794
:1045F0006FF80AF101004FFA80FABAF1FF3FEDDCE3
:10460000B9F1070F09F10109BED305B0BDE8F08F7C
:1046100080B5C820FCF726FEBDE8804000F026BC2F
:104620002DE9F04F89B0064640B20D460028A2F1B0
:10463000200744BF02350026102BA5F1500040F0A2
:104640003F8140F2C8148DF818004FF0010906A808
:10465000C2F200044FF48078CDE9000920467821A9
:1046600000220123CDF80880FDF732F83009103020
:1046700005908DF819000DF11900CDE900092046CB
:10468000782100220123CDF80880FDF721F806F0FB
:104690000F0004908DF81A000DF11A00CDE9000901
:1046A0002046782100220123CDF80880FDF710F87C
:1046B000F8B248F6BE520101C0F60002515C02EBAE
:1046C00000168DF81B100DF11B07204678214022A3
:1046D0000123CDE90079CDF80880FCF7F9FF707867
:1046E000317996F802A096F803B003918DF81B007B
:1046F0002046782140220123CDE90079CDF80880B9
:10470000FCF7E6FF20467821402201238DF81BA00C
:10471000CDE90079CDF80880FCF7DAFF2046782152
:10472000402201238DF81BB0CDE90079CDF8088037
:10473000FCF7CEFF039878218DF81B00204640221D
:104740000123CDE90079CDF80880FCF7C1FF70792D
:1047500078218DF81B00204640220123CDE9007905
:10476000CDF80880FCF7B4FFB07978218DF81B00F4
:10477000204640220123CDE90079CDF80880FCF7DE
:10478000A7FFF07978218DF81B00204640220123F5
:10479000CDE90079CDF80880FCF79AFFA5F14F002C
:1047A0008DF81C0007A8CDE90009204678210022D9
:1047B0000123CDF80880FCF78BFF059878218DF850
:1047C0001D000DF11D00CDE9000920460022012346
:1047D000CDF80880FCF77CFF049878218DF81E0046
:1047E0000DF11E00CDE90009204600220123CDF87D
:1047F0000880FCF76DFF307A0DF11F058DF81F0062
:104800002046782140220123CDE90059CDF80880C7
:10481000FCF75EFF707A78218DF81F002046402259
:104820000123CDE90059CDF80880FCF751FFB07A9B
:1048300078218DF81F00204640220123CDE9005940
:10484000CDF80880FCF744FFF07A78218DF81F003E
:10485000204640220123CDE90059CDF80880FCF71D
:1048600037FF307B78218DF81F002046402201233E
:10487000CDE90059CDF80880FCF72AFF707B78213C
:104880008DF81F00204640220123CDE90059CDF8C4
:104890000880FCF71DFFB07B78218DF81F002046B3
:1048A00040220123CDE90059CDF80880FCF710FF24
:1048B000F07BCDE900598DF81F00204689E000BF4C
:1048C00040F2C81B8DF820004FF0010A08A8C2F280
:1048D000000B4FF48078CDE9000A58467821002279
:1048E0000123CDF80880FCF7F3FE300910308DF875
:1048F00021000DF12100CDE9000A5846782100225F
:104900000123CDF80880FCF7E3FE06F00F008DF8D8
:1049100022000DF12200CDE9000A5846782100223C
:104920000123CDF80880FCF7D3FEF8B248F69631A3
:1049300000EB4000C0F6000111F8102001EB40052B
:104940008DF823200DF123065846782140220123BB
:10495000CDE9006ACDF80880FCF7BAFE6878AF7838
:10496000EC7895F804908DF8230058467821402281
:104970000123CDE9006ACDF80880FCF7A9FE58466E
:104980007821402201238DF82370CDE9006ACDF80B
:104990000880FCF79DFE58467821402201238DF8BF
:1049A0002340CDE9006ACDF80880FCF791FE584617
:1049B0007821402201238DF82390CDE9006ACDF8BB
:1049C0000880FCF785FE6879CDE9006A8DF8230040
:1049D0005846782140220123CDF80880FCF778FE64
:1049E00009B0BDE8F08F00002DE9F04115461278BE
:1049F000002A08BFBDE8F08198460E46074600240D
:104A0000F8B2F1B2D2B24346FFF70AFE0837F8B265
:104A100001347828E0B288BF02362A5C88BF0027BC
:104A2000002AEDD1BDE8F081704700000168002246
:104A3000486A4A6200B2704770470000FCF732BF14
:104A40007047000040F26420C2F20000FDF750BE43
:104A500040F2F420C2F20000FDF74ABE406A002195
:104A6000C185C184FEF708B9406A01684A6990F8B7
:104A70004130212B2ED112F080022BD00022C28493
:104A800051E8031F026821F0C00142E80313EBB1B3
:104A9000016851E8031F026821F0C00142E80313D6
:104AA000A3B1016851E8031F026821F0C00142E888
:104AB00003135BB1016851E8031F026821F0C001D4
:104AC00042E8031313B10168DAE700BF202180F840
:104AD000411001684A6990F84230222B7CD112F0D3
:104AE000400279D00022C28551E8031F026821F4F8
:104AF000907142E80313C3B3016851E8031F0268D1
:104B000021F4907142E803137BB3016851E8031F5D
:104B1000026821F4907142E8031333B3016851E84D
:104B2000031F026821F4907142E80313EBB101689E
:104B3000DAE700BF016851E8051F026821F00101B2
:104B400042E80513DBB1016851E8051F026821F056
:104B5000010142E8051393B1016851E8051F02689D
:104B600021F0010142E805134BB1016851E8051F2E
:104B7000026821F0010142E80513002BDAD1016B34
:104B8000012924D1016851E8031F026821F01001B6
:104B900042E80313DBB1016851E8031F026821F00A
:104BA000100142E8031393B1016851E8031F026842
:104BB00021F0100142E803134BB1016851E8031FD3
:104BC000026821F0100142E80313002BDAD1202102
:104BD00080F8421000210163416C41F010014164F2
:104BE000FEF74AB80168406A0968890600F19F80AB
:104BF0000021C185016851E8031F026821F480711A
:104C000042E80313E3B1016851E8031F026821F48D
:104C1000807142E803139BB1016851E8031F0268E9
:104C200021F4807142E8031353B1016851E8031F76
:104C3000026821F4807142E80313002BDAD100BF2F
:104C4000016851E8051F026821F0010142E80513DF
:104C5000BBB3016851E8051F026821F0010142E879
:104C6000051373B3016851E8051F026821F00101C3
:104C700042E805132BB3016851E8051F026821F0D3
:104C8000010142E80513002BDAD11AE0016851E86E
:104C9000051F026821F0400142E80513DBB10168FD
:104CA00051E8051F026821F0400142E8051393B165
:104CB000016851E8051F026821F0400142E8051330
:104CC0004BB1016851E8051F026821F0400142E83C
:104CD0000513002BDAD1202180F84210016B012945
:104CE00025D100BF016851E8031F026821F01001BF
:104CF00042E80313DBB1016851E8031F026821F0A9
:104D0000100142E8031393B1016851E8031F0268E0
:104D100021F0100142E803134BB1016851E8031F71
:104D2000026821F0100142E80313002BDAD10021C0
:104D30004163016B012918BFFEF7EEBB818DFDF7C2
:104D400099BF0000406A01214163016B012918BF2E
:104D5000FEF7E4BB818D4908FDF78CBF81B090F868
:104D60004210222920D18368B3F5805F08D1016900
:104D7000002965D000F128010A6803685B680AE031
:104D8000014651F8282F13B90369002BF5D00368A9
:104D90005B6803F07F0313700A6801320A60C18DFB
:104DA00001390A04C18501D001B070470168CA68A1
:104DB00022F02002CA60CA6822F48072CA604A697E
:104DC00022F001024A61202280F842200022426340
:104DD000036B012B3ED1026351E8031F026821F0EF
:104DE000100142E803130168DBB151E8031F0268B8
:104DF00021F0100142E80313016893B151E8031F49
:104E0000026821F0100142E8031301684BB151E838
:104E1000031F026821F0100142E803130168002B10
:104E2000DAD10A68D20606D5002200920A680092FA
:104E3000496800910099818D01B0FDF71BBF00BF4B
:104E40000168826A49686FF35F2122F8021B82625F
:104E5000A5E700BF01B0FEF75FBB000040F23C30A9
:104E6000C2F20000FDF70ABFFEE70000F0B583B014
:104E700040F2C81440F26007C2F200044FF480759B
:104E80000126C2F200072046782100220123CDE945
:104E900000760295FCF71CFC781CCDE90006204644
:104EA0007821002201230295FCF712FCB81CCDE901
:104EB000000620467821002201230295FCF708FC19
:104EC000F81CCDE900062046782100220123029536
:104ED000FCF7FEFB381DCDE90006204678210022B4
:104EE00001230295FCF7F4FB781DCDE9000620466E
:104EF0007821002201230295FCF7EAFBB81DCDE9D9
:104F0000000620467821002201230295FCF7E0FBF1
:104F1000F81DCDE9000620467821002201230295E4
:104F2000FCF7D6FB07F10800CDE900062046782102
:104F3000002201230295FCF7CBFB07F10900CDE924
:104F4000000620467821002201230295FCF7C0FBD1
:104F500007F10A00CDE9000620467821002201234E
:104F60000295FCF7B5FB07F10B00CDE900062046E2
:104F70007821002201230295FCF7AAFB07F10C001F
:104F8000CDE9000620467821002201230295FCF796
:104F90009FFB07F10D00CDE9000620467821002295
:104FA00001230295FCF794FB07F10E00CDE9000602
:104FB00020467821002201230295FCF789FB07F1A6
:104FC0000F00CDE90006204678210022012302953A
:104FD000FCF77EFB07F11000CDE9000620467821A2
:104FE000002201230295FCF773FB07F11100CDE9C4
:104FF000000620467821002201230295FCF768FB79
:1050000007F11200CDE90006204678210022012395
:105010000295FCF75DFB07F11300CDE90006204681
:105020007821002201230295FCF752FB07F11400BE
:10503000CDE9000620467821002201230295FCF7E5
:1050400047FB07F11500CDE9000620467821002234
:1050500001230295FCF73CFB07F11600CDE90006A1
:1050600020467821002201230295FCF731FB07F14D
:105070001700CDE900062046782100220123029581
:10508000FCF726FB07F11800CDE900062046782141
:10509000002201230295FCF71BFB07F11900CDE963
:1050A000000620467821002201230295FCF710FB20
:1050B00007F11A00CDE900062046782100220123DD
:1050C0000295FCF705FB03B0F0BD00002DE9F041AF
:1050D00086B004464CF60220C0F6E3100DF102053E
:1050E000CDF80200682004212A4602F0DFFBA3204D
:1050F0006FF03F018DF8020014F0400608BF6FF01A
:105100005C016FF037026FF03D0308BF6FF05C0287
:1051100008BF6FF05C038DF803106FF03B018DF852
:1051200004208DF8053014F4C07708BF6FF05C01DF
:105130006FF033026FF0390308BF6FF05C0208BFF5
:105140006FF05C038DF806104AF2A3318DF807204A
:10515000ADF809108DF80B0040F6A7200A212A4669
:105160008DF8083002F0A2FB202014F0030808BFDD
:105170006FF027008DF8020040F6B62001212A4684
:1051800002F094FBA0060BD4C720059048F6B000AF
:10519000CCF2C35004904AF6B820CAF6AA200AE01E
:1051A0005D20059049F6B400C3F20D5004904AF614
:1051B000B820C8F6B350039003AA4FF497600921B2
:1051C00002F074FB2FB36FF04D016FF0740214F412
:1051D000807008BF6FF04F0108BF6FF07F026FF063
:1051E00049036FF0640508BF6FF04B03002808BF48
:1051F0006FF06F058DF802108DF803200DF102029B
:1052000040F6A22004218DF804308DF8055002F0FC
:105210004DFBE00708D1D8208DF802000DF1020205
:105220004FF40B60012150E0F8208DF802000DF1E1
:1052300002024FF40B60012102F038FB0720FA2133
:1052400000F000FB3F208DF80C0003AA4FF4A4707F
:10525000012102F02BFB00208DF80C0003AA40F284
:105260004F10012102F022FB4FF4A050ADF80C00CA
:1052700003AA4FF4EF70022102F018FB4FF4C8406C
:10528000ADF80C0003AA4FF4ED70022102F00EFB02
:1052900048F60060C9F2F900039003AA4FF4AE701B
:1052A000042102F003FB4FF40060ADF80C0003AAE8
:1052B0004FF4AD70022102F0F9FA4FF40070ADF82E
:1052C0000C0003AA4FF4AC70022102F0EFFAA00721
:1052D0006FF0260058BF6FF027008DF802000DF127
:1052E000020240F23D70012102F0E0FA600752BF75
:1052F0004FF08B304CF2C020CCF2C460039003AA74
:1053000040F69820042102F0D1FA01F0D9FAE00623
:1053100052BF4FF0A33042F62000C3F63000039096
:1053200003AA40F69E20042102F0C0FA01F0C8FA58
:1053300040F2900544F00800C2F20005A88001F098
:10534000BFFA002E18BF0626002F18BF063614F02D
:10535000140F18BF46F01006B8F1000F18BF04363E
:1053600000202E7006B0BDE8F081000049F2B03197
:10537000C0F6000140F6F6304FF48062C82301F019
:1053800091B800002DE9F04F89B01446DDE912A272
:105390000F46002140F29009AAF80010C2F200095D
:1053A00099F800100DF104088346084641461E4650
:1053B00001F028FA20B14FF0FF3009B0BDE8F08FBE
:1053C000B9F804C01CF0140F5AD09DF805209DF8C0
:1053D00004109DF806301204B6469DF8076042EAB4
:1053E000016141EA0322324422609DF809209DF8C0
:1053F0000830120442EA03629DF80A309DF80B60FF
:1054000042EA0323334463609DF80D309DF80C603D
:105410001B0443EA06639DF80E609DF80F5043EAB3
:1054200006262E441214A6609DF8116009145243FA
:105430009DF8105001FB012136041A1446EA056656
:1054400002FB0211321402FB02119DF812506FF0A0
:1054500088529DF8130011444FF6FE7246EA052566
:10546000CFF6FF5228449142E06071D801F028FA4B
:105470000020AAF800004FF0FF3009B0BDE8F08F1F
:1054800000215FEA4C6026D541F0010218F80100C6
:1054900018F8022041F0030342EA002041F0020222
:1054A00018F8022018F80330388043EA022041F04F
:1054B000040241F0050318F8022018F80330788040
:1054C00043EA0220B880BAF8000041F0060140F03B
:1054D0000800AAF800001CF4C07F18D038F80100BA
:1054E00008EB010200BA5388000CABF8000018BAB0
:1054F0009288000CABF8020010BA000CABF8040064
:10550000BAF80000063140F07000AAF800005FEA27
:105510008C7016D008EB01056878EC78C10709D0CB
:10552000D9F8082032B104F00700411CC4F3C200CE
:1055300090476878000704D5D9F80C1009B1A00984
:105540008847304600F008FD002009B0BDE8F08F24
:10555000BAF80000102140F480707646AAF80000E6
:105560005FEA4C6090D4B6E7B0B584B004460DF164
:10557000020000F0D1FE40F23811C2F200010988A9
:10558000BDF8020001F003024B0754F822204FF04F
:105590000C034FEAC03C48BF524203EA510388065D
:1055A000E358C1F3811048BF5B4254F82000C9059D
:1055B00048BF40428CFB00018CFB02E2800F8CFB59
:1055C000035440EA810C900D8DF80400900B8DF887
:1055D000050090098DF80600A00D8DF80800A00BBD
:1055E0008DF80900A0098DF80A00880D8DF80C00CF
:1055F000880B4FEA9E73AD0F8DF80D00880943EAC2
:10560000820345EA84058DF80E0001AA4FF4257047
:105610000C218DF807308DF80B508DF80FC002F07B
:1056200045F904B0B0BD000010B586B004464AF696
:10563000BB70CDF6DF7005904FF2AA10CDF6DF708B
:1056400004904FF2FE20CCF2AB40C82C039017D848
:10565000E0B2C821B1FBF0F0002101388DF8041050
:105660008DF8050001AA40F21620022102F01EF971
:1056700030B903AA40F6C1200C2102F017F918B185
:105680004FF0FF3006B010BD40F23C10C2F20000F7
:105690000480002006B010BD70B582B040F2381111
:1056A000C2F2000109884EF2093401F0030250F8F9
:1056B00022200C264B0748BF5242C0F2CA2406EAF9
:1056C0005106C1F3811582FB0423865950F82550F9
:1056D000880648BF7642C8054FEA935148BF6D42DD
:1056E000900F8DF80410990B40EA83008DF8051097
:1056F00099098DF806108DF8070001AA4FF474700F
:10570000042102F0D3F868B986FB0401800F40EA57
:10571000810000BA019001AA4FF47570042102F0D3
:10572000C5F818B14FF0FF3002B070BD85FB040121
:10573000800F40EA8100010E8DF80410010C8DF8F5
:105740000510010A8DF806108DF8070001AA4FF424
:105750007670042102F0AAF802B070BDB0B582B034
:10576000054648F67B31C0F60001C5F3C10300F0E1
:105770000300CC5C0A5C8DF8054048F678348DF85F
:105780000420C5F38112C0F60004895C205C8DF80A
:1057900006108DF80000E05CA15C8DF801008DF82A
:1057A000021001AA40F22640032102F07FF850BB0C
:1057B0006A4640F22A40032102F078F818BB45F20D
:1057C0003660C0F27600019044F22660C0F26600B6
:1057D000690700901CD4A80622D4E80505D57720D7
:1057E0008DF8060067208DF8020001AA4FF488604A
:1057F000032102F05BF830B96A4640F231400321E0
:1058000002F054F8B0B14FF0FF3002B0B0BD00BFAD
:1058100037208DF8040027208DF80000A806DCD57D
:1058200057208DF8050047208DF80100E805D6D4F3
:10583000DBE700BF40F23810C2F200000580002014
:1058400002B0B0BDF0B583B00446B1F5C86F4FF0FB
:10585000FF3055D814F0070252D00846FAF731FF4E
:105860000021C4F24831FAF725FD05460DF1070085
:1058700000F034FD9DF8070002384FEA7002072A55
:105880004FF0FF303CD80026C4F240664FF08D4107
:10589000DFE802F01504360A363636100026C4F268
:1058A000C0564FF08C410AE00026C4F240564FF03B
:1058B0008B4104E00026C4F2C0464FF08A412846DE
:1058C000FAF7C6FC074628463146FAF7C1FCFAF754
:1058D0000EFF06463846FAF70AFF010A8DF808104F
:1058E0008DF80900300A02A98D1C8DF80A00E00726
:1058F0008DF80B6006D1A00714D4600722D40020D5
:1059000003B0F0BD02AA4FF4EA70022101F0CEFF0D
:1059100038BB4FF4927002212A4601F0C7FF00BB4A
:10592000E9E700BF02AA4FF4EC70022101F0BEFFCC
:10593000B8B94FF4947002212A4601F0B7FF80B93C
:10594000DBE700BF02AA4FF4EE70022101F0AEFFC8
:1059500038B94FF4967002212A4601F0A7FF0028BB
:10596000CDD04FF0FF3003B0F0BD00002DE9F04F77
:1059700085B040F2280705460120C2F200070C4618
:10598000ADF80800D7E9031016460078897C02AB11
:105990000222FEF77FFB002840F0C280C820FBF700
:1059A00061FC00208DF80800D7E9031002AB0078F5
:1059B000C97B0122FEF76EFB002840F0B180D7E9D9
:1059C000031002AB007849790122FEF763FB00283F
:1059D00040F0A680D7E9031002AB0078897C012251
:1059E000FEF758FB002840F09B80D7E9031002AB7C
:1059F0000078C97D0122FEF74DFB002840F0908021
:105A0000D7E9031002AB007809790122FEF742FBC7
:105A1000002840F085800C208DF80800D7E903109D
:105A200002AB007809790122FEF734FB002877D118
:105A30000F20FBF717FC786BF968407A3A698DF80C
:105A400008001078897802AB0122FEF723FB0028BA
:105A500066D1786BF968007A3A698DF80800107899
:105A6000497802AB0122FEF715FB002858D1786B6C
:105A7000D7E90312807A002E18BF40F0E0008DF8BD
:105A800008001078897902AB0122FEF703FB002899
:105A900046D12EB1786BC07A60F01F0001E000BFE4
:105AA00018208DF80800D7E9031002AB0078C979F7
:105AB0000122FEF7EFFA98BB16B1C820FBF7D2FB24
:105AC00040208DF80800D7E9031002AB007809796F
:105AD0000122FEF7DFFA18BB78208DF80800D7E91D
