:020000040800F2
:10000000F8080020A901000849370008E92700087E
:10001000453700086D0D0008453C00080000000051
:10002000000000000000000000000000213C00086B
:10003000F50E000800000000113C0008253C0008F7
:10004000C3010008C3010008C3010008C301000880
:10005000C3010008C3010008C3010008C301000870
:10006000C3010008C3010008C3010008C301000860
:10007000C3010008C3010008C3010008C301000850
:10008000C3010008C3010008C3010008C301000840
:10009000C3010008C3010008C3010008F90E0008ED
:1000A000C3010008C3010008C3010008C301000820
:1000B0002D3C0008C3010008393C0008C3010008BA
:1000C000C3010008C3010008C3010008C301000800
:1000D000C3010008C3010008C3010008C3010008F0
:1000E000C3010008C3010008C301000800F002F8C2
:1000F00000F04AF80AA090E8000C82448344AAF178
:100100000107DA4501D100F03FF8AFF2090EBAE875
:100110000F0013F0010F18BFFB1A43F0010318473B
:100120003C9F00005C9F0000103A24BF78C878C153
:10013000FAD8520724BF30C830C144BF04680C60ED
:10014000704700000023002400250026103A28BF35
:1001500078C1FBD8520728BF30C148BF0B60704739
:10016000662908F0FE83642900F08C800020704727
:100170001FB500F081FC04000020002107F088FA80
:10018000E0601FBD10B510BD00F07AFD1146FFF70D
:10019000EFFF04F0E1FC00F098FD03B4FFF7F2FF7D
:1001A00003BC00F0DBFD0000094880470948004718
:1001B000FEE7FEE7FEE7FEE7FEE7FEE7FEE7FEE717
:1001C000FEE7FEE704480549054A064B7047000074
:1001D000293C0008ED000008F8020020F808002083
:1001E000F8040020F804002053EA020C23D010B5D4
:1001F0004C1084EA530404D54042C1F1000138BFD9
:10020000491E1B4204D55242C3F1000338BF5B1E96
:1002100000F02AF914F0804F04D04042C1F10001EF
:1002200038BF491E14F0004F04D05242C3F10003FE
:1002300038BF5B1E10BD13B540424FF0000070EB9D
:100240000104B8BF012001F0004100281CBF6FF07D
:1002500000414FF0FF30AFF300801CBD0FB41CB560
:10026000074B06AA7B4469460090059800F0EBFB1B
:100270000020694600F0FAFB1CBC5DF814FB00008E
:10028000050800002DE9F041064600241068752994
:10029000314616A510D0AFF30080002802DA4042A4
:1002A00013A507E031688A0701D512A502E04907C6
:1002B00004D511A5012401E0AFF3008000210A223A
:1002C00006F1240709E0B0FBF2FCB0FBF2F302FBFD
:1002D0001C00303078541846491C0028F3D12346BE
:1002E0002A463046BDE8F04100F041B90000000068
:1002F0002D0000002B000000200000002DE9F04739
:100300004FF0000A89460446C0F820A02046E16864
:100310008847002876D0252806D0D4E901219047C7
:10032000206A401C2062F1E7E168204600258847EA
:10033000C4F81CA006460027C4F818A02A2E09D02D
:10034000304606F061FE38B304EB8708303EC8F84B
:10035000186019E059F8041B204604EB87029161EC
:10036000E1688847012F064618D1E069002820DAA5
:1003700025F020051DE0D8F8180000EB800006EB02
:1003800040003038C8F818002046E1688847064623
:1003900006F03AFE0028EED1012F0AD02E2E08D109
:1003A0002046E16888477F1C0646022F45F020055D
:1003B000C4DBA069002803DA404245F00105A061D2
:1003C000E80701D025F01005B6B1A6F141001928C3
:1003D00002D8203645F400654A463146204625605D
:1003E0004D46FFF7BDFE58B1012806D0ED1D25F0A2
:1003F000070000F1080989E704E005F1040985E731
:1004000030468AE7206ABDE8F08740EA010310B56C
:100410009B070FD1042A0DD310C808C9121F9C4294
:10042000F8D020BA19BA884201D9012010BD4FF086
:10043000FF3010BD1AB1D30703D0521C07E00020D3
:1004400010BD10F8013B11F8014B1B1B07D110F830
:10045000013B11F8014B1B1B01D1921EF1D1184633
:1004600010BD70477047704753EA020C00F0698076
:100470002DE9F04B4FF00006002B1FBFB3FA83F5B8
:1004800003FA05F424FA05F65E4012BF1643B2FAE9
:1004900082F502FA05F4C5F120051EBF22FA05FC1B
:1004A00044EA0C04203556EA044C4FEA144418BFC1
:1004B000641C4FF000084FF00009904271EB030CF0
:1004C00039D3002919BFB1FA81F701FA07F6B0FA5A
:1004D00080F700FA07F6C7F120071EBF20FA07FCD5
:1004E00046EA0C062037B6FBF4FCA7EB0507103FE5
:1004F00007F01F0BCBF120062CFA06F60CFA0BFBCB
:1005000044BFB3460026202FA4BF5E464FF0000B29
:100510005BEA060C08BF4FF0010B19EB0B0948EB27
:100520000608ABFB027C06FB02CC0BFB03CCC01B1A
:1005300071EB0C01C1E70B46024641464846BDE857
:10054000F08B13B5084318BF4FF0FF300146AFF3EF
:100550000080BDE81C40704710B500F091FA0068BB
:1005600010BD10B5044600F08BFA046010BD2DE9F3
:10057000F0470D4699469246044600F1240801686A
:10058000880604D5E06921F01001216000E0012017
:10059000A84201DD471B00E00027A1697A1902EBA0
:1005A0000900081AA0612078C00602D42046AFF3E3
:1005B0000080002608E0D4E901211AF806009047DF
:1005C000206A401C761C20624E45F4DB2078C00671
:1005D0000AD52046AFF3008006E0D4E9012130209F
:1005E0009047206A401C2062381EA7F10107F4DC06
:1005F00007E0D4E9012118F805009047206A401C63
:100600002062281EA5F10105F3DC2046AFF300802F
:100610002078000602D50220BDE8F0870120FBE724
:100620002DE9FF4F0C461E464FF0FF378BB0D2E945
:100630000001DDF860800A908A46C1F30A5505B9C9
:100640003D46002108464FF00000BAF1000F00F4CB
:10065000400005DA00EB80004FF4400101EA500051
:100660004FEA9059B9F1010F00DDB9460A9850EAF6
:100670004A000ED044F61050A5F2FF3545432F1422
:10068000B8F1000F1ED07542291E1EDDC9F100020F
:100690001CE0B8F1010F4FF0000001D0302103E061
:1006A000F24305E02154401CB042FBDB30460022FF
:1006B000002121540B99C1F80880C1E900200FB036
:1006C000BDE8F08FBD1B6D1CDEE74A4600DA6942CB
:1006D00006A800F05FFA06AB93E8070003AB83E8D7
:1006E000070050460A9906F04BF88DE80700A0F580
:1006F00000501F3800900398002D0ADD42F21F01C0
:100700004A460844002303A90390684606F0B4FA59
:1007100009E0A0F500504A461F38002303A90390C2
:10072000684606F0BEFA8DE807000004000C03D00E
:100730004FF0FF30410800E01046B8F1000F03D041
:100740000022009215461EE0751E05D400F09CF9AB
:10075000303262556D1EF9D5B3460122084302D0EE
:1007600000227F1C04E02078302801D100227F1E67
:10077000002A099784D01DE0112D07DA00F084F9D2
:10078000303262556D1C50EA0102F5D1084302D0A7
:100790000098C8B10EE00021681E05E0235C625C91
:1007A00063542254401E491C8142F7DBAB46A81B10
:1007B000401E0990002004F80B000B98099AC0F81D
:1007C0000880C0E9002B7AE711264FF0000857E7B0
:1007D0002DE9F04F88460446D21D22F0070191B062
:1007E000D1E90001CDE90A0106F092FB02460B981F
:1007F000C00F01D02D2007E02068810701D52B20F4
:1008000002E0202101EAC000032A099001D0072A52
:1008100005DB03464146204600F07CF90BE12078D9
:10082000800601D5E06900E00620B8F1650F814639
:1008300006D0B8F1660F18D0B8F1670F70D131E06B
:100840000020B9F1110F009001DB112301E009F143
:1008500001030AAA01A90CA8FFF7E2FEDDE90C706A
:10086000002609F10105834647E001204B46009030
:100870004FF000470AAA01A90CA8FFF7D1FEDDE955
:100880000DB00C995D46002610B909F101000D1854
:10089000B9EB050003D4C0F1FF3609F10105A5EB62
:1008A00009002BE0B9F1010F01DA4FF00109002036
:1008B000B9F1110F0090484601DD112300E0034615
:1008C0000AAA01A90CA8FFF7ABFEDDE90C704D46A2
:1008D00000268346207800070AD4AB4500DA5D463F
:1008E00001A8012D04DD411911F8011C302907D0A0
:1008F0004F4502DA17F1040F04DA012082460FE0B7
:100900006D1EEEE7002F02DCED1B3E4403E0781C79
:10091000A84200DD7D1CB81B00F1010A4FF0004722
:100920002078000703D4AA4501DB4FF0FF3A0021ED
:10093000B7F1004F0DF143088DF8431024D0022089
:100940002B23002F01DA7F422D230A21021EA0F162
:10095000010000DC5FB197FBF1FC97FBF1F201FBBA
:100960001C7C17460CF1300C08F801CDEEE7A8F11D
:10097000010003702188090501D5452100E06521AA
:10098000A0F1010800F8011C09980FA9A1EB0807C4
:10099000FF1D00B10120411901EBEA70A169384443
:1009A000081A401EA0612078C00602D42046AFF38A
:1009B0000080099828B1D4E901219047206A401CA1
:1009C00020622078C00622D52046AFF300801EE0CA
:1009D000002E04DBB34502DD01A8805D00E030207D
:1009E000D4E901219047206A401C2062761CAAF1BC
:1009F00001005FEA000A0AD100F03EF8C068016811
:100A0000405CD4E901219047206A401C2062281EE6
:100A1000A5F10105DCDC07E0D4E9012118F8010BA0
:100A20009047206A401C2062381EA7F10107F3DCC2
:100A30002046AFF30080032011B041E601694A1C53
:100A400002610878704700B58FB0CDE9013100210F
:100A5000059105497944CDE9031011466846FFF731
:100A60004DFC0FB000BD0000E5FFFFFF0A6802F873
:100A7000010B0A60704700000048704788000020A2
:100A8000004870476800002030B5B0F10A0271F1EB
:100A900000034FEA900E4EEA817EB0EB0E0061EB50
:100AA00091014FEA101E4EEA017E10EB0E0041EB61
:100AB00011114FEA102E4EEA016E10EB0E0041EBC1
:100AC00011214FEA104E4EEA014E10EB0E0041EBA1
:100AD0001141401841F100014FEAD00040EA417055
:100AE0004FEAD1014FEA810444EA907410EB80058B
:100AF00044EB01046D1944EB0404521BA3414FF075
:100B0000000348BF0A3200D530BD401C41F100014E
:100B100030BD00002DE9F0411F4604460326016860
:100B2000072A01F4006004DB08B116A505E016A54C
:100B300003E008B115A500E015A521F01000206024
:100B4000A069C01EA0610FB1401EA0612046AFF396
:100B500000804FB1D4E9012138469047206A401CFB
:100B60002062C01C206206E0206AFAE7D4E9012175
:100B700015F8010B9047761EF8D22046AFF300809F
:100B8000BDE8F0814E414E006E616E00494E460058
:100B9000696E66002DE9F047814616468AB03548F1
:100BA00078440DC88DE80D0032487844801C03ACB1
:100BB0000DC884E80D0041F69B300844372190FBB6
:100BC000F1F290FBF1F5A5F1800501FB12041B3C4D
:100BD00002D56442012000E00020DFF898A08046A2
:100BE0000027FA44AAF1BE0A0EE0E0070AD0324616
:100BF000684607EB470101230AEB810106F051F833
:100C00008DE8070064107F1C002CEED1194F7F4443
:100C1000AE3F19E0E80715D007EB04100DF1180AF4
:100C200090E80E008AE80E00C068F04201D19819E1
:100C300008903246012306A903A806F032F803AB58
:100C400083E807006D10641C002DE3D14FF0010311
:100C500032466946B8F1000F03A802D006F00CF83E
:100C600001E006F01EF8C9E90001C9F808200AB041
:100C7000BDE8F08720800000004870476800002031
:100C80007546FFF7F9FFAE4605006946534620F06A
:100C90000700854618B020B5FFF794FABDE820405C
:100CA0004FF000064FF000074FF000084FF0000B28
:100CB000AC46ACE8C009ACE8C009ACE8C009ACE897
:100CC000C00921F007018D46704710B50446AFF307
:100CD00000802046BDE81040FFF75FBA4FF0013CAE
:100CE00050F8042B51F8043B9A4221D1A2EB0C039B
:100CF000934313EACC1317D150F8042B51F8043B5B
:100D00009A4215D1A2EB0C03934313EACC130BD1F7
:100D100050F8042B51F8043B9A4209D1A2EB0C0382
:100D2000934313EACC13DBD04FF00000704700BFB1
:100D3000D01A01BAB1FA81F101F0180122FA01F0DA
:100D4000CB40DBB2C0B2C01AC1F120012CFA01F3D2
:100D5000D11A914311EAC311E6D170470149182015
:100D6000ABBEFEE72600020070470000FEE7000071
:100D70002DE9F04740F21C20C2F2000002F04AFFC9
:100D800040F2D8044042C2F20004606240F2AC205B
:100D9000C2F2000002F03EFFA06204F12C0004F158
:100DA000300104F1340203F0EFFFA01C211DA21D4D
:100DB00002F0F8F904F1080004F10A0104F10C0250
:100DC00002F0CEF9A06BD4E90912081A104407F01A
:100DD000F3FB216A0546084607F0EEFB43F2333188
:100DE000C3F6337107F07CFC49F69A110646C3F648
:100DF0009961284607F074FC314607F033FA07F092
:100E0000BFFBE1694BF2E0160144CFF6FF762062AA
:100E1000B142C8BF0E4644F620618E42A8BF0E46BE
:100E20002178D4F81480A7690129E66102BF002166
:100E3000E161217007F0C0FB0546304607F0BCFBBE
:100E40000146384607F04CFC06464046294607F066
:100E500047FC314607F006FA07F092FB804607F0A0
:100E6000ABFB40F20802C2F200020146D2E9000ADE
:100E700007F0F8F90646B4F90200256BB4F90690BC
:100E800007F09AFB07462846314607F0F5FC216932
:100E900005460846394607F023FC064650462946D3
:100EA00007F01EFC314607F0DDF907F069FB074645
:100EB000484606F0B6FE43F23333CBF6E3734FF009
:100EC000333206F0C5FE06F07DFE391A44F84C1F99
:100ED00044F8080C3844254645F8040D28462146B8
:100EE00044E9048702F0E6F828682168BDE8F04785
:100EF00002F000B970470000202000F021B8000087
:100F0000EFF3108072B600BFFEE70000B0B50446F4
:100F100000F038F9054640F20000C2F20000007807
:100F2000611C18BF044400BF00F02CF9401BA04214
:100F3000FAD3B0BD202808BFFFF71ABF70470000E2
:100F400040F21441C4F201010A68024214BF086071
:100F50007047FFF7EFBF00002DE9F04F82B041F27C
:100F60000042C4F201020E680423904208BF03232A
:100F7000002E009300F0F68040F2004C4FF6FF7E0A
:100F80000022C4F2010C0124C1F2100E4FF0000A3D
:100F90004FF0000947E000BF012502F00C040F27C5
:100FA000A7402BEA070705FA04F43C4343F8264020
:100FB000D1F804B040F20C455FEACB23DCF80830EE
:100FC00054BF23EA080343EA0803C4F20105CCF83E
:100FD00008302B685FEA8B2454BF23EA080343EAF6
:100FE00008032B605FEA8B34DCF8043054BF23EA3B
:100FF000080343EA08035FEACB34CCF80430DCF89A
:1010000000304FF0010454BF23EA080343EA080309
:10101000CCF800300E680AF1010A36FA0AF302F140
:10102000040200F09F8004FA0AF816EA080FF1D0D3
:101030004B68734512DC122B56D8DFE803F0350BF2
:101040004549555555555555555555555555554D74
:10105000510000BFD1F80C9046E000BF4FF6FF757D
:10106000C1F22105AB420FDC0025C1F21105AB42F4
:101070001AD00025C1F21205AB4215D00025C1F2ED
:101080002105AB4210D02FE00025C1F22205AB4272
:101090000AD00025C1F23105AB4205D00025C1F2CE
:1010A0003205AB4220D100BF8B684BB1012B14BF7E
:1010B000C0F81480C0F810804FF0080914E000BF99
:1010C0004FF0040910E000BFCB6803F108090BE002
:1010D0004FF0000908E000BFCB6803F1040903E00A
:1010E000CB6803F10C0900BF13460546BAF1080F9F
:1010F00024BF203B04352E680F279F40BE4309FACA
:1011000003F333432B60CB79DB067FF583AF41F2EA
:101110001804C4F2020423684FEA9A0643F001035C
:101120002360236840F6000403F001030193019B50
:10113000ACF57E7353F826B0C4F20104A0420FD080
:1011400040F60044C4F20104A0423FF425AF41F24E
:101150000004C4F20104009DA04208BF02251CE760
:1011600000251AE702B0BDE8F08F00008068084053
:1011700018BF012070470000002A08BF0904016160
:101180007047000040F2F420C2F20000006870478F
:1011900070B5B8B3044690F83D0028B9002084F833
:1011A0003C00204600F05CF9242084F83D002068D3
:1011B000016821F001010160016841F40041016012
:1011C000016821F40041016000F01CFB48F28041FD
:1011D000C0F21E0140F60013D4F804E088424FF03C
:1011E0000001C0F23D0348F2A16C4FF0000238BF8D
:1011F00001219842C0F2010C38BF0122E64538BFF8
:101200000A460AB1012070BD4DF68361C4F21B315C
:10121000A0FB01122168950C4B684FF4967623F0E1
:101220003F0343EA9243754344F6D3564B60C1F201
:1012300062060B6AA5FB0656B50923F03F03E64597
:1012400038BF950C6A1C1A430A62CA6948F2A06644
:101250004CF6FF73C0F20106B64522EA03020BD832
:1012600001384FEA4E03B0FBF3F001306FF31F304B
:10127000042898BF04201EE0A368013863B1192335
:101280000EFB03F3B0FBF3F001306FF31F3078B1C6
:1012900000F5804008E000BF0EEB4E03B0FBF3F01A
:1012A00001306FF31F3028B100F5004003E000BFAC
:1012B000012000E001201043C8610868D4E9072339
:1012C00020F0C000104318430860886848F2FF32DD
:1012D00004F10C0690434CCE18431043A569886076
:1012E000C86820F0FF0030432843C860086840F019
:1012F0000100086000202021206484F83D10206354
:1013000084F83E0070BD00002DE9F04383B099469B
:1013100016460F460446FFF735FF94F83D10202986
:1013200020D10546206800BF8169890716D5FFF7DF
:1013300029FF411B20681A29F6D381698907F3D553
:1013400000202021206384F83D1084F83E00216CA9
:1013500041F02001216484F83C0003E094F83C1043
:10136000012903D1022003B0BDE8F083012284F8F3
:101370003C200368DDE90B180A9ADB0703D10368F8
:1013800043F001030360036823F40063036021203A
:1013900084F83D00402084F83E0000202064626212
:1013A0006185608D394620850020CFF6FF70E062B0
:1013B000204632464B46CDF80080019501F016FAE2
:1013C00020B1012003B0BDE8F08300BF208D98B9A3
:1013D000204641462A4601F06DFA88B3206C042865
:1013E000EFD12068016841F400710160012003B071
:1013F000BDE8F0830004EBD0204641462A4601F0C8
:1014000013FC0028EAD1616A2268084610F8013B03
:101410001361238D6062581E2085678D013F6785AB
:1014200057697F07E6D50704E4D048781061881C27
:101430006062981E2085618D01396185DAE700BF01
:101440002068016841F400710160202084F83D00AB
:10145000002084F83E0084F83C0003B0BDE8F0832F
:1014600010B586B0006845F20042C4F200020021C7
:101470009042049102D006B010BD00BF41F21804A2
:10148000C4F20204206802A940F00800206020682D
:1014900000F00800019001984FF440700290122073
:1014A00003900320059040F60040C4F20100FFF7CE
:1014B00053FD0420C4F20100016841F0E06141F0F5
:1014C00002010160606840F400106060606800F430
:1014D00000100190019806B010BD000040F200001D
:1014E00040F2F421C2F20000C2F2000100780A6862
:1014F000104408607047000080B542F20000C4F25A
:101500000200016841F010010160032000F08AF838
:101510000F2000F005F800F027F8002080BD000043
:1015200070B540F20006C2F2000640F26401327863
:10153000C2F200014FF47A730968B3FBF2F2044679
:10154000B1FBF2F1084600F04BFB0F2C4FF0010508
:1015500008D838B94FF0FF3021460022002500F0AE
:1015600035F87460284670BD82B041F21800C4F2AC
:1015700002000168022241F001010160016801F0EE
:10158000010101910199416841F080514160406839
:1015900000F08050009000980420C4F2010001681F
:1015A00062F31A61016002B070470000002848BF72
:1015B000704700F01F01012202FA01F14EF2001201
:1015C0004009CEF2000242F82010704710B54EF6E6
:1015D0000C5CCEF2000CDCF80030C3F3022E8EF06F
:1015E0000704042C28BF0424BEF103034FF0FF3E80
:1015F0000EFA04F438BF0023A14399400EFA03F316
:101600009A43114300F00F02043A624409010C327C
:1016100000F16043B0F1FF3FC8BF03F564421170B1
:1016200010BD00004EF60C51CEF200010A684FF6D4
:10163000FF031A4060F30A2242F0806040F0FD7020
:10164000086070472DE9F04381B0002800F08580E4
:1016500042F20008C4F202080446D8F800000D4621
:1016600000F0070088420CD2D8F8000020F00700F4
:101670002843C8F80000D8F8000000F00700A8428E
:101680006BD1206841F204098107C4F2020917D521
:10169000410705D5D9F8001041F4E061C9F8001000
:1016A000010705D5D9F8001041F46051C9F80010C0
:1016B000D9F80010A26821F0F0011143C9F8001018
:1016C000C00741D1D8F8000000F00700A8420CD9AB
:1016D000D8F8000020F007002843C8F80000D8F828
:1016E000000000F00700A84237D12068410707D565
:1016F000D9F80010E26821F4E0611143C9F8001044
:10170000000708D5D9F80000216920F4605040EAAC
:10171000C100C9F80000D9F8002002F00C00082828
:1017200041F20020C0F27A0050D149F20443C2F3E2
:101730008341C0F60003595CD2033BD440F600104D
:10174000C0F23D00484341E0606802280AD0012809
:101750002AD159F8041C890308D4012001B0BDE83E
:10176000F08300BF59F8041C8901F6D5D9F80010A0
:1017700021F003010843C9F80000FFF703FD064606
:1017800041F28837D9F80000616800F00C00B0EB36
:10179000810F97D0FFF7F6FC801BB842F2D90320E7
:1017A00001B0BDE8F08300BF59F8041C8907D4D507
:1017B000DCE700BFD9F8002049F20243C2F34042FF
:1017C000C0F600039A5C4843B0FBF2F0D9F8001071
:1017D00048F6E232C1F30311C0F60002515C40F258
:1017E000640220FA01F140F20400C2F20000006835
:1017F000C2F200021160FFF793FE002001B0BDE8C5
:10180000F083000040F2640041F20401C2F20000E3
:10181000C4F202010068096848F6F232C1F30221FD
:10182000C0F60002515CC840704700002DE9F0414D
:1018300082B0002868D00446007841F20006C00754
:10184000C4F2020625D0706800F00C0004281BD0FA
:10185000706800F00C00082802D17068C00313D42F
:101860006068002800F06881B0F5A02F00F07C814E
:10187000B0F5803F00F07C81306820F4803030602B
:10188000306820F4802076E13068800301D56068FC
:10189000D0B32078800718D5706810F00C0F07D0EF
:1018A000706800F00C0008286ED17068C0036BD41B
:1018B0003068800702D52069012825D13068616928
:1018C00020F0F80040EAC1003060207800071FD403
:1018D0002078400732D4E56995B1706800F00C00BB
:1018E000082840F08F80012D0ED07068216A00F426
:1018F00080328A4208D1616A00F47010884203D1B4
:10190000002002B0BDE8F081012002B0BDE8F08106
:10191000A069002862D00020C4F242200121C0F852
:101920008014FFF72FFC0546706A800700F18C8059
:10193000FFF728FC401B0228F6D92AE1F06910F0D5
:10194000805808D1F06940F08050F061F06900F0F3
:1019500080500090009847F20007C4F200073868F2
:10196000C00529D4386840F480703860FFF70AFC5D
:10197000054600BF3868C0051ED4FFF703FC401BB6
:101980006428F7D905E100BF2069002840F2000073
:10199000C4F2422000F0828001210160FFF7F2FBD7
:1019A000054600BF306880073FF588AFFFF7EAFBC8
:1019B000401B0228F6D9ECE0E068002800F08080A7
:1019C000052800F09780012800F09880306A20F008
:1019D00001003062306A20F0040092E00020C4F27E
:1019E00042200021C0F88014FFF7CCFB054600BF61
:1019F000706A80077FF56CAFFFF7C4FB401B0228BD
:101A0000F6D9C6E00027C4F2422700203866FFF767
:101A1000B9FB022D05460BD13068800140F1BE8034
:101A2000FFF7B0FB401B02284FF00300F4D968E732
:101A3000306880017FF564AFFFF7A4FB401B0228EC
:101A40004FF00300F4D95CE740F26400C2F20000FA
:101A5000006844F6D351C1F26201A0FB0101480ABB
:101A6000019000BF00BF0198411E002801913FF482
:101A70002FAF00BF0198411E002801913FF428AF0D
:101A800000BF0198411E002801913FF421AF00BF23
:101A90000198411E00280191E4D119E7002101605D
:101AA000FFF770FB054600BF306880077FF50DAF7C
:101AB000FFF768FB401B02284FF00300F4D920E732
:101AC000306A20F001003062306A20F00400306299
:101AD000FFF758FB054641F2883700BF306A8007A0
:101AE00020D5FFF74FFB401BB8424FF00300F5D95C
:101AF00007E700BF306A40F004003062306A40F00F
:101B000001003062FFF73EFB054641F2883700BF17
:101B1000306A800706D4FFF735FB401BB842F7D97F
:101B200037E000BFB8F1000F7FF4D5AEF06920F0C8
:101B30008050F061CFE600BF306820F48030306024
:101B4000306820F480203060FFF71CFB054600BFA2
:101B5000306880037FF59DAEFFF714FB401B6428BF
:101B60004FF00300F4D9CCE6306840F480203060B8
:101B7000306840F480303060FFF704FB054600BF5A
:101B8000306880033FF585AEFFF7FCFA401B642800
:101B9000F6D9032002B0BDE8F08100BF206AB0F59D
:101BA000803F05D17168A26821F400311143716052
:101BB0007168626A21F47411104308437060012057
:101BC0003866FFF7DFFA0446306880013FF598AECB
:101BD000FFF7D8FA001B02284FF00300F4D990E673
:101BE000411E0020B0EB116F1CBF012070474EF268
:101BF0001002CEF2000251604EF62351CEF20001E7
:101C0000F0230B700721906011607047704700004F
:101C100070470000B0B590F83C20012A04BF0220B4
:101C2000B0BD01F108053CCDD1E900CE23F47C53D1
:101C300022F470521A432EF4F0431A432CF4E0437A
:101C40001A4324F4C0431A432A43C96922F4804248
:101C5000036811435964002180F83C100846B0BD68
:101C600010B590F83C20012A4FF0020233D080F8E2
:101C70003D200268D2F804E0D2F808C00C682EF0CB
:101C80007003234340F2FF74C4F20004A242536085
:101C90000ADCB2F1804F13D040F20043C4F20003DB
:101CA0009A420DD011E000BF42F60043C4F2010396
:101CB0009A4205D040F60003C4F200039A4204D1D0
:101CC00049682CF08003194391600121002280F8BB
:101CD0003D1080F83C20104610BD0000002804BFD5
:101CE0000120704710B5044690F83D0028B9002047
:101CF00084F83C00204600F067F8022084F83D009C
:101D0000206840F2FF730268C4F2000342F6004C00
:101D10009842C4F2010C15DCB0F1804F1AD040F2A9
:101D20000041C4F20001884214D0984218DCB0F19E
:101D3000804F1DD040F20041C4F20001884217D00C
:101D40001AE000BF604505D040F60001C4F2000172
:101D50008842EAD1A16822F070020A439842E6DD87
:101D6000604505D040F60001C4F20001884203D16D
:101D7000216922F440720A43A36922F08001D4F859
:101D800004E0E268194360450160C262C0F828E0DF
:101D900002D16169CCF8301001214161002084F842
:101DA000461084F83E1084F83F1084F8401084F800
:101DB000411084F8421084F8431084F8441084F8E9
:101DC000451084F83D1010BD81B0006840F200411C
:101DD000C4F20001884201D001B0704741F21C00FA
:101DE000C4F20200016841F002010160006800F0E5
:101DF00002000090009801B07047000080B590F894
:101E00003C20012A4FF0020200F0C28080F83D2001
:101E1000D0F800C04FF67772DCF8083023EA0202EF
:101E2000CCF808200B684F2B28DC1F2B44DD202B1F
:101E300045D0302B43D0402B40F0AC80D1F804E0AB
:101E4000C968DCF82030DCF8202022F00102CCF850
:101E50002020DCF8182022F0F00242EA011123F0E1
:101E60000A0242EA0E02CCF81810CCF82020DCF866
:101E7000081041F0470121F0300180E06F2B27DD91
:101E8000B3F5005F48D0B3F5805F7AD0702B40F097
:101E90008180D1E901E3C968DCF8082043EA0E0338
:101EA00022F47F4243EA01211143CCF80810DCF808
:101EB000081041F0770162E00BB1102B6AD1DCF819
:101EC000081021F07001194341F0070157E000BFED
:101ED000502B35D0602B5DD1D1F804E0C968DCF817
:101EE0002030DCF8202022F01002CCF82020DCF892
:101EF000182022F4704242EA013123F0A00242EAA3
:101F00000E12CCF81810CCF82020DCF8081041F0A4
:101F1000670121F0100132E0D1E901E3C968DCF882
:101F2000082043EA0E0322F47F4243EA01211143D1
:101F3000CCF80810DCF8081041F480411FE000BF25
:101F4000D1F804E0C968DCF82030DCF8202022F069
:101F50000102CCF82020DCF8182022F0F00242EA3E
:101F6000011123F00A0242EA0E02CCF81810CCF854
:101F70002020DCF8081041F0570121F02001CCF8B6
:101F800008100022012180F83D10002180F83C104B
:101F9000104680BD0122F5E7002804BF01207047EC
:101FA0002DE9F04F81B0044690F83D000D4628B968
:101FB000002084F83C00204600F094F8022084F8C9
:101FC0003D00206844F20702816840F2FF739143AC
:101FD00081600268C4F2000342F6004C9842C4F2E9
:101FE000010C15DCB0F1804F1AD040F20041C4F270
:101FF0000001884214D0984218DCB0F1804F1DD007
:1020000040F20041C4F20001884217D01AE000BF3C
:10201000604505D040F60001C4F200018842EAD1D3
:10202000A16822F070020A439842E6DD604505D0BF
:1020300040F60001C4F20001884203D1216922F474
:1020400040720A43A36922F08001D4F804E0E268F8
:10205000194360450160C262C0F828E002D161699D
:10206000CCF830104FF00109C0F814908268D0F815
:1020700018E0D0F820C0D5E90038D5E9027B43EA62
:10208000020AAB694FF6FF712EEA010E47EA0323FD
:102090004FF6FC47BB43D5E907724BEA0E012E69A8
:1020A000194341EA072141EA061141EA02312CF0C5
:1020B00022026B6942EA080242EA0312C0F808A051
:1020C0008161026284F8469084F83E9084F83F90E3
:1020D00084F8429084F8439084F83D90002001B049
:1020E000BDE8F08F10B586B0006840F60001C4F27C
:1020F000000188424FF00001CDE90411CDE9021141
:1021000020D0B0F1804F4AD141F21800C4F2020051
:1021100041681C2441F001014160416801F0010166
:1021200001910199016841F004010160006800F02B
:102130000400019001980320029040F60000C4F2D0
:1021400001001EE041F21800C4F2020041681E24A2
:1021500041F004014160416801F0040101910199DD
:10216000016841F008010160006800F0080001907A
:102170000198C020029040F60000C4F2010000F572
:1021800080600021CDE9031102A9FEF7E5FE20469B
:1021900000210022FFF71AFA2046FFF707FA06B0DF
:1021A00010BD000080B590F83E2090F83F3090F8C8
:1021B00042E090F843C004290AD0B9B9012A4FF08F
:1021C000010208BFBEF1010F34D0104680BD00BF30
:1021D000012B4FF0010208BFBCF1010FF5D1022124
:1021E00080F83F1080F8431000681EE0012A4FF08D
:1021F000010208BF012BE8D1BEF1010FE5D1BCF10E
:10220000010FE2D1022280F83E2080F83F2080F8C2
:10221000422080F8432091B10068016A21F0010159
:102220000162016A41F00101016210216FF01002A8
:1022300009E000BF022180F83E1080F842100068DB
:1022400001216FF00102036A1A400262026A11431F
:1022500001620168002241F001010160104680BD69
:102260007047000010B5016804460869800744BF44
:10227000C8685FEA807039D40869400744BFC868FD
:102280005FEA40703ED40869000744BFC8685FEA4F
:10229000007045D40869C00644BFC8685FEAC060E2
:1022A0004AD40869C0071CBFC8685FEAC07051D132
:1022B0000869000644BFC8685FEA006052D4086934
:1022C000400644BFC8685FEA406053D4086980068E
:1022D00046BFC8685FEA806010BD6FF020022046EC
:1022E0000A61BDE81040FFF793BC00BF6FF0020029
:1022F0000861012020778869800743D02046FFF7D6
:10230000AFFF45E06FF00400086102202077886984
:1023100010F4407F40D02046FFF7A2FF42E000BF0C
:102320006FF00800086104202077C86980073DD05D
:102330002046FFF795FF3FE06FF01000086108208E
:102340002077C86910F4407F3AD02046FFF788FF15
:102350003CE000BF6FF001000861204600F040FA49
:102360002168A5E76FF0800008612046FFF74EFC6A
:102370002168A4E76FF040000861204600F032FABF
:102380002168A3E7204600F025F8204600F0B6F9C2
:102390002168002020776FE7204600F01BF82046D8
:1023A00000F0ACF92168002020776CE7204600F0AF
:1023B00011F8204600F0A2F921680020207769E793
:1023C000204600F007F8204600F098F92168002028
:1023D000207766E7704700002DE9F04390F83C3025
:1023E000012B04BF0220BDE8F0834FEAB202032AAA
:1023F0003CD8DFE802F003437FB900BF036842F630
:1024000000461D6A1A6AC4F2010622F001021A622D
:102410001A465C6852F818CFB3428E68D1F800E0D3
:1024200025F0020545EA06050CD1CE68D1E905780C
:1024300024F4407425F00C0526F004063C43354393
:1024400044EA08042CF0730747EA0E075C609F61BA
:102450004F6809695F631D629F6947F008079F61C4
:102460009F6927F004079F61AEE000BF01210022B1
:1024700080F83C200846BDE8F08300BF036842F6C0
:1024800000461D6A1A6AC4F2010622F010021A629E
:102490001A46D3F804C052F8184FB3428E68D1F8E8
:1024A00000E025F0200545EA06150FD1CE68D1E9F8
:1024B00005986FF0400707EA06162CF4406725F0F0
:1024C000C00547EA8907354347EA880C24F4E64407
:1024D00044EA0E27C3F804C09F614F6809699F63EF
:1024E0001D629F6947F400679F619F6927F48067B9
:1024F0009F6168E0036842F600461D6A1A6AC4F2EA
:10250000010622F480721A621A46D3F804C052F807
:102510001CEFB3428E680C6825F4007545EA062569
:102520000FD1CE68D1E90598360240F2FF47BE438D
:102530002CF4405725F4406547EA0917354347EA2C
:10254000081C2EF073072743C3F804C0DF614F68EF
:102550000969DF631D62DF6947F00807DF61DF6932
:1025600027F00407DF612FE0036842F60047D3F845
:1025700020C01A6AC4F2010722F480521A621A4675
:102580005C6852F81C5FD1F800E08E68BB4204D151
:102590004F6924F4804444EA87142CF4005747EA36
:1025A000063725F4E64646EA0E265C60DE614E6894
:1025B00009691E641F62DF6947F40067DF61DF6934
:1025C00027F48067DF610902136819431160002155
:1025D000002280F83C200846BDE8F083002804BFB4
:1025E0000120704710B5044690F83D0028B900203E
:1025F00084F83C00204600F067F8022084F83D0093
:10260000206840F2FF730268C4F2000342F6004CF7
:102610009842C4F2010C15DCB0F1804F1AD040F2A0
:102620000041C4F20001884214D0984218DCB0F195
:10263000804F1DD040F20041C4F20001884217D003
:102640001AE000BF604505D040F60001C4F2000169
:102650008842EAD1A16822F070020A439842E6DD7E
:10266000604505D040F60001C4F20001884203D164
:10267000216922F440720A43A36922F08001D4F850
:1026800004E0E268194360450160C262C0F828E0D6
:1026900002D16169CCF8301001214161002084F839
:1026A000461084F83E1084F83F1084F8401084F8F7
:1026B000411084F8421084F8431084F8441084F8E0
:1026C000451084F83D1010BD81B0006842F600410D
:1026D000C4F20101884201D001B0704741F21800F4
:1026E000C4F20200016841F400610160006800F476
:1026F00000600090009801B0704700007047000033
:1027000041B1082910D0042914BF00F1410200F1A1
:102710003F020BE090F83E20012A1CBF01207047C9
:10272000022280F83E2013E000F140021278012AD4
:102730001CBF012070470222082907D0042914BFBA
:1027400080F8412080F83F2002E000BF80F8402060
:10275000006801F01F010122036A8A4023EA020196
:102760000162036A42F64441C4F201011A43A1F135
:102770004403984202620FD040F2FF71C4F200019C
:10278000884213DCB0F1804F1CD040F20041C4F20B
:102790000001884216D01CE00A6842F400420A6038
:1027A00040F2FF71C4F200018842EBDD42F60041C5
:1027B000C4F20101884205D040F60001C4F20001D4
:1027C000884206D1816801F00701062904BF002074
:1027D0007047016841F0010101600020704700006E
:1027E0007047000070470000FEE700002DE9F0434D
:1027F00083B0044600680D4601680A9F0B9E41F4B1
:10280000807199469046016020464FF001110022E8
:102810003B46009600F0AEF850B120680068C00555
:1028200044BF4FF400702064032003B0BDE8F08380
:10283000206805F0FE0101610221C0F2010120467D
:102840003A46334600F080F920B1012003B0BDE8DC
:10285000F08300BF00200290206832464169029157
:102860008069394602900298204600F0DDF958B19F
:10287000206C0428E9D12068016841F400710160EE
:10288000012003B0BDE8F083B9F1010F0AD0206840
:102890004FEA1821016120463946324600F0C4F95A
:1028A0000028E5D120685FFA88F10161002003B0BB
:1028B000BDE8F08370B50368044653F8140F400771
:1028C00011D40E46481C29D086BB00BF18684005AD
:1028D00027D4FEF757FC236853F8140F400739D567
:1028E00018684007F2D5002070BD00BF1868400787
:1028F000F9D41868400514D418684007F3D4186850
:1029000040050ED418684007EDD41868400508D477
:10291000186840074FF0000048BF70BD18684005B8
:10292000E4D56FF480601860042014E0154603E0DD
:1029300053F8140F4007D6D418684005F1D4FEF7B9
:1029400021FC401B2368B042F2D958694007EFD4FC
:10295000202000E0202000212022216384F83D2057
:1029600084F83E10226C10432064012084F83C104F
:1029700070BD00002DE9F041054600681E46144672
:1029800001F47F0201338FB242D0DDF81880B2F536
:10299000803F40F0878040693840C01BB0FA80F02B
:1029A0004009A04240F0C8804EB924E04069384058
:1029B000C01BB0FA80F04009A04240F0BD80FEF795
:1029C000E1FBA0EB08012868B142EFD94169394029
:1029D000C91BB1FA81F14909A142E7D19BE000BFCF
:1029E00040693840C01BB0FA80F04009A0424FF067
:1029F000000040F0A680FEF7C5FB28684169394019
:102A0000C91BB1FA81F14909A142E9D183E000BFB4
:102A1000B2F5803F24D100BF41693940C91BB1FAEA
:102A200081F14909A14240F0878041693940C91BC1
:102A3000B1FA81F14909A14240F07E8041693940F3
:102A4000C91BB1FA81F14909A14275D141693940E7
:102A5000C91BB1FA81F14909A142DDD06CE000BF88
:102A600081693940C91BB1FA81F14909A14263D199
:102A700081693940C91BB1FA81F14909A1425BD191
:102A800081693940C91BB1FA81F14909A14253D189
:102A900081693940C91BB1FA81F14909A142DFD0EE
:102AA0004AE000BF80693840C01BB0FA80F040099E
:102AB000A04241D146B923E080693840C01BB0FA3A
:102AC00080F04009A0423BD1FEF75CFBA0EB08017F
:102AD0002868B142F0D981693940C91BB1FA81F146
:102AE0004909A142E8D116E080693840C01BB0FA1C
:102AF00080F04009A0424FF0000018BFBDE8F0810F
:102B0000FEF740FB286881693940C91BB1FA81F1A1
:102B10004909A142E8D100202021286385F83D1011
:102B200085F83E00296C41F02001296485F83C00BD
:102B30000120BDE8F08100BF0020BDE8F08100BFAA
:102B40000020BDE8F0810000F0B581B004460068C7
:102B50001D4643698FB203EA0701B94202D1002042
:102B600001B0F0BD41691646013201F4806125D003
:102B7000002940D1CEB100BFFEF704FB411B206805
:102B8000B14203D941693940B9424BD14169394019
:102B9000B942E4D041694905EED52CE0416939409C
:102BA000B942DCD04169490525D4FEF7EBFA20682B
:102BB00041693940B942F1D0202024E0D9B94169B6
:102BC0003940B942CBD04169490514D441693940F3
:102BD000B942C4D0416949050DD441693940B9426F
:102BE000BDD04169490506D441693940B942B6D0E2
:102BF00041694905E3D5016841F4007101606FF452
:102C000080614161042000212022216384F83D205D
:102C100084F83E10226C1043206484F83C1001209C
:102C200001B0F0BD2020EEE770B50368044653F80C
:102C3000140F000611D40E46481C29D086BB00BFD5
:102C40001868400527D4FEF79DFA236853F8140F3F
:102C5000000639D518680006F2D5002070BD00BF07
:102C600018680006F9D41868400514D418680006DE
:102C7000F3D4186840050ED418680006EDD418681F
:102C8000400508D4186800064FF0000048BF70BD2A
:102C900018684005E4D56FF480601860042014E0E3
:102CA000154603E053F8140F0006D6D41868400503
:102CB000F1D4FEF767FA401B2368B042F2D9586995
:102CC0000006EFD4202000E02020002120222163F4
:102CD00084F83D2084F83E10226C104320640120CB
:102CE00084F83C1070BD000010B584B041F21800AB
:102CF000C4F20200016840F6004441F0080101609E
:102D00000068C4F2010400F0080000900098182048
:102D10000090032003901120019069462046FEF7A1
:102D20001BF9204608210022FEF726FA2046102132
:102D30000122FEF721FA204608210122FEF71CFAA3
:102D400004B010BD2DE9F04F83B040F60045C4F249
:102D500001050190284610210122FEF70DFA2846B0
:102D60000821FEF703FA0290284610210022FEF700
:102D700003FA284610210122FEF7FEF92846082111
:102D8000FEF7F4F98246284610210022FEF7F4F9F6
:102D9000284610210122FEF7EFF928460821FEF708
:102DA000E5F98346284610210022FEF7E5F928467A
:102DB00010210122FEF7E0F928460821FEF7D6F996
:102DC0000446284610210022FEF7D6F92846102195
:102DD0000122FEF7D1F928460821FEF7C7F9064679
:102DE000284610210022FEF7C7F9284610210122AB
:102DF000FEF7C2F928460821FEF7B8F9074628462B
:102E000010210022FEF7B8F9284610210122FEF712
:102E1000B3F928460821FEF7A9F980462846102173
:102E20000022FEF7A9F9284610210122FEF7A4F995
:102E300028460821FEF79AF98146284610210022EB
:102E4000FEF79AF90198A8B1284608210022FEF75A
:102E500093F9284610210122FEF78EF92846102109
:102E60000022FEF789F9284608210122FEF784F99D
:102E70000FE000BF284608210122FEF77DF9284611
:102E800010210122FEF778F9284610210022FEF7D2
:102E900073F90298002818BF0120BAF1000F18BF7B
:102EA0004FF0010A4AEA40008000BBF1000F18BF52
:102EB0004FF0010B40EA4B00002C18BF01242044C6
:102EC0008000002E18BF012640EA4600002F18BFE0
:102ED000012738448000B8F1000F18BF4FF00108F7
:102EE00040EA4800B9F1000F18BF4FF0010948440B
:102EF000C0B203B0BDE8F08FB0B540F60044C4F2F4
:102F000001040546C20920460821FEF735F920468E
:102F100010210122FEF730F9204610210022FEF791
:102F20002BF9C5F3801220460821FEF725F920462B
:102F300010210122FEF720F9204610210022FEF781
:102F40001BF9C5F3401220460821FEF715F920466B
:102F500010210122FEF710F9204610210022FEF771
:102F60000BF9C5F3001220460821FEF705F92046AB
:102F700010210122FEF700F9204610210022FEF761
:102F8000FBF8C5F3C00220460821FEF7F5F82046FD
:102F900010210122FEF7F0F8204610210022FEF752
:102FA000EBF8C5F3800220460821FEF7E5F820463D
:102FB00010210122FEF7E0F8204610210022FEF742
:102FC000DBF8C5F3400220460821FEF7D5F820467D
:102FD00010210122FEF7D0F8204610210022FEF732
:102FE000CBF805F0010220460821FEF7C5F820467F
:102FF00010210122FEF7C0F8204610210022FEF722
:10300000BBF8204608210122BDE8B040FEF7B4B865
:1030100010B540F60044C4F2010420460821012204
:10302000FEF7AAF8204610210122FEF7A5F8204657
:1030300008210022FEF7A0F8204610210022BDE85A
:103040001040FEF799B8000010B540F60044C4F2F5
:103050000104204608210022FEF78EF820461021A8
:103060000122FEF789F8204608210122BDE8104020
:10307000FEF782B8B0B540F60044C4F20104204621
:1030800008210122FEF778F8204610210122FEF7E0
:1030900073F820460821FEF769F805460028204607
:1030A0004FF010014FF0000218BF0125FEF764F841
:1030B0002846B0BD03684EF2E032B3F5E15FCFF6CB
:1030C000FF720BDD4FF4E15303600868B0F5E15F78
:1030D0000CDC9042B8BF0A60704700BF93421346B1
:1030E000B8BF03600868B0F5E15FF2DD4FF4E1526C
:1030F0000A6070472DE9F04140F600454FF00108A5
:10310000C4F201050C460646C20F88EAD07728466D
:103110004FF40051FEF730F828464FF480513A46FC
:10312000FEF72AF840F2D417C2F20007002E48BF7B
:1031300076423868E20F066428464FF4804188EAF8
:10314000D476FEF719F828464FF400413246FEF7D0
:1031500013F8002C48BF644238684463BDE8F0812E
:1031600070B582B014460D4606460DF10203682084
:103170003B21062200F096F810B102B070BD00BFEE
:10318000BDF80210BDF8042009BA090C318011BA4B
:10319000BDF80620090C298011BA090C218002B063
:1031A00070BD000070B582B014460D4606460DF1A4
:1031B000020368204321062200F074F810B102B027
:1031C00070BD00BFBDF80210BDF8042009BA090C9B
:1031D000318011BABDF80620090C298011BA090CFA
:1031E000218002B070BD000010B5FFF77DFD6B209F
:1031F000802100F08FF86420FDF788FE6B2000210D
:1032000000F088F81B20182100F084F81C20002111
:1032100000F080F81920092100F07CF81A20032121
:1032200000F078F83820002100F074F86A200021BE
:1032300000F070F82320002100F06CF83720802186
:1032400000F068F8FFF7E4FED020FFF755FEFFF727
:1032500011FF7520FFF750FEFFF70CFFFFF7D8FEB8
:10326000D120FFF749FEFFF705FF0020FFF76AFDB9
:103270000446FFF7E9FE682C1CBF012010BD6B203F
:10328000012100F047F86C200021002400F042F8F2
:103290001920092100F03EF81A20032100F03AF825
:1032A000204610BDF0B581B01C4615460E460746B7
:1032B000FFF7AEFE7F00F8B2FFF71EFEFFF7DAFE63
:1032C00030B10124FFF7C0FE204601B0F0BD00BFC1
:1032D0003046FFF711FEFFF7CDFEFFF799FE47F0EE
:1032E0000100C0B2FFF708FEFFF7C4FE06E000BF12
:1032F0000020FFF727FD04F8010B013DE8B201288B
:10330000F6D008B10120F4E70024FFF79DFE204627
:1033100001B0F0BDB0B50C460546FFF779FED020F0
:10332000FFF7EAFDFFF7A6FE20B1FFF78DFE0120B3
:10333000B0BD00BF2846FFF7DFFDFFF79BFE20462C
:10334000FFF7DAFDFFF796FE0446002818BF0124B8
:10335000FFF77AFE2046B0BDF0B581B01C46154699
:103360000E460746FFF754FE7800C0B2FFF7C4FDD3
:10337000FFF780FE30B10124FFF766FE204601B062
:10338000F0BD00BF3046FFF7B7FDFFF773FE55B144
:103390002078FFF7B1FDFFF76DFE0028EBD1013D6E
:1033A00004F10104F4D10024FFF74EFE204601B0E1
:1033B000F0BD00002DE9F04385B041F21800C4F2E1
:1033C0000200016840F6004441F01001016001680C
:1033D000C4F2010401F0100101910199016804F5A2
:1033E000806541F0200101600168002201F02001A8
:1033F0000191019901684FF4005641F00401016008
:1034000001684FF0000901F0040101910199016880
:1034100041F00801016000684FF4005100F008001D
:10342000019001982846FDF7A7FE20464FF21801AB
:1034300000224FF21808FDF79FFE0196032001AE0F
:103440000127049028463146CDE90279FDF784FD35
:103450000220049020463146CDE90187CDF80C903A
:10346000FDF77AFD202001900020C1F22100CDE976
:10347000020720463146FDF76FFD05B0BDE8F08339
:1034800080B540F2801045F20041C2F20000C4F263
:10349000000148F2A06200234FF4804CC0F2010208
:1034A00080E80E00C0E9033CC0E90533C0E90733FA
:1034B000FDF76EFE002808BF80BDBDE88040FDF727
:1034C0001FBD000070B598B042F6004540F2D41020
:1034D000C4F201050021C2F2000041F61F42119121
:1034E000CDE90F11CDE90D11CDE90B11CDE9091190
:1034F000CDE90711CDE90511CDE90311CDE90111A0
:10350000C0E90051C0E90212C0E904118161FFF76E
:1035100065F8002818BFFDF7F3FC40F2D410C2F2A2
:10352000000010A9FEF79CFB002818BFFDF7E8FC7F
:10353000602009904FF4E1500A900020CDE90B0083
:10354000CDE90D000F9040F2D410C2F2000009A99D
:103550000022FEF741FF002818BFFDF7D1FC40F222
:10356000D410C2F2000009A90C22FEF735FF002892
:1035700018BFFDF7C5FC40F2D4144FF40050C2F25E
:1035800000040026069001A920460596CDE90366B1
:10359000CDE901660896FEF73DFB002818BFFDF750
:1035A000AFFC20681696A84202D018B070BD00BFCC
:1035B00041F21800C4F20200016841F00401016008
:1035C000006814A900F00400139013984FF41060E1
:1035D0001490022015901790A5F51050FDF7BCFC33
:1035E00018B070BD80B58CB040F21C200021C2F232
:1035F00000004FF08042C0E9002103224FF6FF7324
:10360000CDE903210122CDE90011C0E902130161D6
:103610008161CDE90521CDE90711CDE909210B91A2
:1036200003A9FEF7B9FC002818BFFDF769FC40F2BA
:103630001C20C2F200006946FEF712FB002818BFEA
:10364000FDF75EFC40F21C20C2F200003C21FEF7B8
:10365000A9FD0CB080BD000080B586B040F26420AA
:1036600040F200420021C2F20000C4F200024FF614
:10367000FF730591CDE90311CDE90011C0E90021E7
:10368000C0E9021301618161FEF728FB002818BF21
:10369000FDF736FC4FF48050029040F26420C2F2F5
:1036A000000002A9FEF7AAFB002818BFFDF728FCBE
:1036B00040F26420C2F200006946FEF7D1FA002809
:1036C00018BFFDF71DFC06B080BD000080B58CB0B2
:1036D00040F2AC2040F600020021C2F20000C4F229
:1036E0000002C0E9002103224FF6FF73CDE9032158
:1036F0000122CDE90011C0E9021301618161CDE928
:103700000521CDE90711CDE909210B9103A9FEF7A8
:1037100043FC002818BFFDF7F3FB40F2AC20C2F2D7
:1037200000006946FEF79CFA002818BFFDF7E8FB89
:1037300040F2AC20C2F200003C21FEF733FD0CB099
:1037400080BD0000FEE70000FEE700002DE9F04F1D
:1037500085B040F2801400254FF480760127C2F234
:1037600000040DF1120B0DF113084FF0000900BF1A
:1037700009F1B0008DF8100004A8CDE9000720463B
:103780007821002201230296FDF7BEFD0DF1110004
:10379000CDE9000720467821002201238DF8115041
:1037A0000296FDF7B1FD10208DF812002046782119
:1037B00000220123CDE900B70296FDF7A5FD4FF0E9
:1037C000000A00BF20467821402201238DF81350C3
:1037D000CDE900870296FDF797FD0AF101004FFA47
:1037E00080FABAF1FF3FEDDCB9F1070F09F10109E9
:1037F000BED305B0BDE8F08F80B5C820FDF786FBCD
:10380000BDE8804000F020BA2DE9F04F89B00646AF
:1038100040B20D460028A2F1200744BF0235002621
:10382000102BA5F1500040F03F8140F280148DF83C
:1038300018004FF0010906A8C2F200044FF4807886
:10384000CDE900092046782100220123CDF8088027
:10385000FDF75AFD3009103005908DF819000DF173
:103860001900CDE900092046782100220123CDF876
:103870000880FDF749FD06F00F0004908DF81A004E
:103880000DF11A00CDE9000920467821002201231C
:10389000CDF80880FDF738FDF8B248F62262010144
:1038A000C0F60002515C02EB00168DF81B100DF102
:1038B0001B072046782140220123CDE90079CDF86D
:1038C0000880FDF721FD7078317996F802A096F80E
:1038D00003B003918DF81B0020467821402201237C
:1038E000CDE90079CDF80880FDF70EFD204678215E
:1038F000402201238DF81BA0CDE90079CDF8088086
:10390000FDF702FD20467821402201238DF81BB0EF
:10391000CDE90079CDF80880FDF7F6FC0398782111
:103920008DF81B00204640220123CDE90079CDF817
:103930000880FDF7E9FC707978218DF81B0020469E
:1039400040220123CDE90079CDF80880FDF7DCFCA9
:10395000B07978218DF81B00204640220123CDE963
:103960000079CDF80880FDF7CFFCF07978218DF84B
:103970001B00204640220123CDE90079CDF80880C4
:10398000FDF7C2FCA5F14F008DF81C0007A8CDE99A
:1039900000092046782100220123CDF80880FDF798
:1039A000B3FC059878218DF81D000DF11D00CDE9BF
:1039B0000009204600220123CDF80880FDF7A4FC71
:1039C000049878218DF81E000DF11E00CDE9000944
:1039D000204600220123CDF80880FDF795FC307ABF
:1039E0000DF11F058DF81F0020467821402201238C
:1039F000CDE90059CDF80880FDF786FC707A782172
:103A00008DF81F00204640220123CDE90059CDF852
:103A10000880FDF779FCB07A78218DF81F002046E8
:103A200040220123CDE90059CDF80880FDF76CFC58
:103A3000F07A78218DF81F00204640220123CDE93D
:103A40000059CDF80880FDF75FFC307B78218DF8B8
:103A50001F00204640220123CDE90059CDF80880FF
:103A6000FDF752FC707B78218DF81F002046402224
:103A70000123CDE90059CDF80880FDF745FCB07B66
:103A800078218DF81F00204640220123CDE90059FE
:103A9000CDF80880FDF738FCF07BCDE900598DF8B2
:103AA0001F00204689E000BF40F2801B8DF82000F7
:103AB0004FF0010A08A8C2F2000B4FF48078CDE95C
:103AC000000A5846782100220123CDF80880FDF72E
:103AD0001BFC300910308DF821000DF12100CDE9DB
:103AE000000A5846782100220123CDF80880FDF70E
:103AF0000BFC06F00F008DF822000DF12200CDE93D
:103B0000000A5846782100220123CDF80880FDF7ED
:103B1000FBFBF8B248F6FA3100EB4000C0F60001BA
:103B200011F8102001EB40058DF823200DF123063C
:103B30005846782140220123CDE9006ACDF808805B
:103B4000FDF7E2FB6878AF78EC7895F804908DF893
:103B500023005846782140220123CDE9006ACDF8A0
:103B60000880FDF7D1FB58467821402201238DF8CB
:103B70002370CDE9006ACDF80880FDF7C5FB5846F3
:103B80007821402201238DF82340CDE9006ACDF849
:103B90000880FDF7B9FB58467821402201238DF8B3
:103BA0002390CDE9006ACDF80880FDF7ADFB687978
:103BB000CDE9006A8DF82300584678214022012380
:103BC000CDF80880FDF7A0FB09B0BDE8F08F00003C
:103BD0002DE9F04115461278002A08BFBDE8F081B2
:103BE00098460E4607460024F8B2F1B2D2B24346D8
:103BF000FFF70AFE0837F8B201347828E0B288BF30
:103C000002362A5C88BF0027002AEDD1BDE8F0818A
:103C10007047000001680022486A4A6200B270479B
:103C200070470000FDF75ABC7047000040F21C20AE
:103C3000C2F20000FEF716BB40F2AC20C2F2000058
:103C4000FEF710BBFEE70000F0B583B040F2801431
:103C500040F24807C2F200044FF480750126C2F218
:103C600000072046782100220123CDE90076029545
:103C7000FDF74AFB781CCDE900062046782100229A
:103C800001230295FDF740FBB81CCDE90006204654
:103C90007821002201230295FDF736FBF81CCDE9BF
:103CA000000620467821002201230295FDF72CFB17
:103CB000381DCDE900062046782100220123029517
:103CC000FDF722FB781DCDE9000620467821002271
:103CD00001230295FDF718FBB81DCDE9000620462B
:103CE0007821002201230295FDF70EFBF81DCDE996
:103CF000000620467821002201230295FDF704FBEF
:103D000007F10800CDE900062046782100220123B2
:103D10000295FDF7F9FA07F10900CDE90006204602
:103D20007821002201230295FDF7EEFA07F10A003F
:103D3000CDE9000620467821002201230295FDF7F7
:103D4000E3FA07F10B00CDE90006204678210022B6
:103D500001230295FDF7D8FA07F10C00CDE9000622
:103D600020467821002201230295FDF7CDFA07F1C4
:103D70000D00CDE90006204678210022012302959E
:103D8000FDF7C2FA07F10E00CDE9000620467821C2
:103D9000002201230295FDF7B7FA07F10F00CDE9E4
:103DA000000620467821002201230295FDF7ACFA97
:103DB00007F11000CDE900062046782100220123FA
:103DC0000295FDF7A1FA07F11100CDE900062046A2
:103DD0007821002201230295FDF796FA07F11200DF
:103DE000CDE9000620467821002201230295FDF747
:103DF0008BFA07F11300CDE9000620467821002256
:103E000001230295FDF780FA07F11400CDE90006C1
:103E100020467821002201230295FDF775FA07F16B
:103E20001500CDE9000620467821002201230295E5
:103E3000FDF76AFA07F11600CDE900062046782161
:103E4000002201230295FDF75FFA07F11700CDE983
:103E5000000620467821002201230295FDF754FA3E
:103E600007F11800CDE90006204678210022012341
:103E70000295FDF749FA07F11900CDE90006204641
:103E80007821002201230295FDF73EFA07F11A007E
:103E9000CDE9000620467821002201230295FDF796
:103EA00033FA03B0F0BD00002DE9F04186B00446BE
:103EB0004CF60220C0F6E3100DF10205CDF8020029
:103EC000682004212A4602F0AFFBA3206FF03F01D7
:103ED0008DF8020014F0400608BF6FF05C016FF02F
:103EE00037026FF03D0308BF6FF05C0208BF6FF050
:103EF0005C038DF803106FF03B018DF804208DF802
:103F0000053014F4C07708BF6FF05C016FF0330226
:103F10006FF0390308BF6FF05C0208BF6FF05C03FD
:103F20008DF806104AF2A3318DF80720ADF809107C
:103F30008DF80B0040F6A7200A212A468DF808309C
:103F400002F072FB202014F0030808BF6FF0270076
:103F50008DF8020040F6B62001212A4602F064FBEB
:103F6000A0060BD4C720059048F6B000CCF2C35091
:103F700004904AF6B820CAF6AA200AE05D2005900F
:103F800049F6B400C3F20D5004904AF6B820C8F6C2
:103F9000B350039003AA4FF49760092102F044FB49
:103FA0002FB36FF04D016FF0740214F4807008BFEE
:103FB0006FF04F0108BF6FF07F026FF049036FF0A1
:103FC000640508BF6FF04B03002808BF6FF06F0552
:103FD0008DF802108DF803200DF1020240F6A220A8
:103FE00004218DF804308DF8055002F01DFBE00728
:103FF00008D1D8208DF802000DF102024FF40B60B9
:10400000012150E0F8208DF802000DF102024FF47A
:104010000B60012102F008FB0720FA2100F000FBF1
:104020003F208DF80C0003AA4FF4A470012102F088
:10403000FBFA00208DF80C0003AA40F24F1001217A
:1040400002F0F2FA4FF4A050ADF80C0003AA4FF4BE
:10405000EF70022102F0E8FA4FF4C840ADF80C000E
:1040600003AA4FF4ED70022102F0DEFA48F6006078
:10407000C9F2F900039003AA4FF4AE70042102F0D4
:10408000D3FA4FF40060ADF80C0003AA4FF4AD7002
:10409000022102F0C9FA4FF40070ADF80C0003AA37
:1040A0004FF4AC70022102F0BFFAA0076FF02600B7
:1040B00058BF6FF027008DF802000DF1020240F2A8
:1040C0003D70012102F0B0FA600752BF4FF08B3013
:1040D0004CF2C020CCF2C460039003AA40F69820B2
:1040E000042102F0A1FA01F0A9FAE00652BF4FF054
:1040F000A33042F62000C3F63000039003AA40F636
:104100009E20042102F090FA01F098FA40F2C805CE
:1041100044F00800C2F20005A88001F08FFA002EDA
:1041200018BF0626002F18BF063614F0140F18BF4C
:1041300046F01006B8F1000F18BF043600202E70AC
:1041400006B0BDE8F081000049F21441C0F600015C
:1041500040F6F6304FF48062C82301F061B80000E9
:104160002DE9F04F89B01446DDE912A20F46002177
:1041700040F2C809AAF80010C2F2000999F800102C
:104180000DF104088346084641461E4601F0F8F941
:1041900020B14FF0FF3009B0BDE8F08FB9F804C08E
:1041A0001CF0140F5AD09DF805209DF804109DF8BE
:1041B00006301204B6469DF8076042EA016141EA02
:1041C0000322324422609DF809209DF80830120431
:1041D00042EA03629DF80A309DF80B6042EA03232D
:1041E000334463609DF80D309DF80C601B0443EA76
:1041F00006639DF80E609DF80F5043EA06262E4494
:104200001214A6609DF81160091452439DF81050D5
:1042100001FB012136041A1446EA056602FB02116D
:10422000321402FB02119DF812506FF088529DF873
:10423000130011444FF6FE7246EA0525CFF6FF52F1
:1042400028449142E06071D801F0F8F90020AAF802
:1042500000004FF0FF3009B0BDE8F08F00215FEAA9
:104260004C6026D541F0010218F8010018F8022030
:1042700041F0030342EA002041F0020218F8022054
:1042800018F80330388043EA022041F0040241F07C
:10429000050318F8022018F80330788043EA02205A
:1042A000B880BAF8000041F0060140F00800AAF812
:1042B00000001CF4C07F18D038F8010008EB0102A0
:1042C00000BA5388000CABF8000018BA9288000CB2
:1042D000ABF8020010BA000CABF80400BAF800000A
:1042E000063140F07000AAF800005FEA8C7016D02A
:1042F00008EB01056878EC78C10709D0D9F80820E7
:1043000032B104F00700411CC4F3C2009047687842
:10431000000704D5D9F80C1009B1A0098847304628
:1043200000F0D8FC002009B0BDE8F08FBAF800001A
:10433000102140F480707646AAF800005FEA4C60D5
:1043400090D4B6E7B0B584B004460DF1020000F099
:10435000A1FE40F27811C2F200010988BDF8020006
:1043600001F003024B0754F822204FF00C034FEAF0
:10437000C03C48BF524203EA51038806E358C1F3E8
:10438000811048BF5B4254F82000C90548BF404235
:104390008CFB00018CFB02E2800F8CFB035440EA93
:1043A000810C900D8DF80400900B8DF8050090099C
:1043B0008DF80600A00D8DF80800A00B8DF80900FF
:1043C000A0098DF80A00880D8DF80C00880B4FEAC3
:1043D0009E73AD0F8DF80D00880943EA820345EA0C
:1043E00084058DF80E0001AA4FF425700C218DF87C
:1043F00007308DF80B508DF80FC002F015F904B09E
:10440000B0BD000010B586B004464AF6BB70CDF6CC
:10441000DF7005904FF2AA10CDF6DF7004904FF2D6
:10442000FE20CCF2AB40C82C039017D8E0B2C821D4
:10443000B1FBF0F0002101388DF804108DF8050073
:1044400001AA40F21620022102F0EEF830B903AAC8
:1044500040F6C1200C2102F0E7F818B14FF0FF3010
:1044600006B010BD40F27C10C2F2000004800020B3
:1044700006B010BD70B582B040F27811C2F20001F2
:1044800009884EF2093401F0030250F822200C266C
:104490004B0748BF5242C0F2CA2406EA5106C1F394
:1044A000811582FB0423865950F82550880648BFA1
:1044B0007642C8054FEA935148BF6D42900F8DF880
:1044C0000410990B40EA83008DF8051099098DF8C6
:1044D00006108DF8070001AA4FF47470042102F051
:1044E000A3F868B986FB0401800F40EA810000BA96
:1044F000019001AA4FF47570042102F095F818B1EB
:104500004FF0FF3002B070BD85FB0401800F40EA20
:104510008100010E8DF80410010C8DF80510010AC0
:104520008DF806108DF8070001AA4FF4767004216B
:1045300002F07AF802B070BDB0B582B0054648F618
:10454000DF31C0F60001C5F3C10300F00300CC5C0D
:104550000A5C8DF8054048F6DC348DF80420C5F37C
:104560008112C0F60004895C205C8DF806108DF87D
:104570000000E05CA15C8DF801008DF8021001AA3A
:1045800040F22640032102F04FF850BB6A4640F249
:104590002A40032102F048F818BB45F23660C0F209
:1045A0007600019044F22660C0F266006907009030
:1045B0001CD4A80622D4E80505D577208DF806007E
:1045C00067208DF8020001AA4FF48860032102F0F1
:1045D0002BF830B96A4640F23140032102F024F84A
:1045E000B0B14FF0FF3002B0B0BD00BF37208DF842
:1045F000040027208DF80000A806DCD557208DF890
:10460000050047208DF80100E805D6D4DBE700BFA0
:1046100040F27810C2F200000580002002B0B0BD68
:10462000F0B583B00446B1F5C86F4FF0FF3055D8F0
:1046300014F0070252D0084603F0D6FF0021C4F25E
:10464000483103F0A7FE05460DF1070000F004FD18
:104650009DF8070002384FEA7002072A4FF0FF303A
:104660003CD80026C4F240664FF08D41DFE802F0EE
:104670001504360A363636100026C4F2C0564FF0FE
:104680008C410AE00026C4F240564FF08B4104E012
:104690000026C4F2C0464FF08A41284604F020F8B4
:1046A00007462846314604F01BF803F069FF06462A
:1046B000384603F065FF010A8DF808108DF80900EF
:1046C000300A02A98D1C8DF80A00E0078DF80B60F6
:1046D00006D1A00714D4600722D4002003B0F0BD97
:1046E00002AA4FF4EA70022101F09EFF38BB4FF49A
:1046F000927002212A4601F097FF00BBE9E700BF54
:1047000002AA4FF4EC70022101F08EFFB8B94FF409
:10471000947002212A4601F087FF80B9DBE700BFD1
:1047200002AA4FF4EE70022101F07EFF38B94FF477
:10473000967002212A4601F077FF0028CDD04FF075
:10474000FF3003B0F0BD00002DE9F04F85B040F21E
:10475000100705460120C2F200070C46ADF808001C
:10476000D7E9031016460078897C02AB0222FEF7D7
:10477000F3FD002840F0C280C820FCF7C7FB0020F2
:104780008DF80800D7E9031002AB0078C97B01223D
:10479000FEF7E2FD002840F0B180D7E9031002AB3C
:1047A000007849790122FEF7D7FD002840F0A68065
:1047B000D7E9031002AB0078897C0122FEF7CCFD1B
:1047C000002840F09B80D7E9031002AB0078C97D38
:1047D0000122FEF7C1FD002840F09080D7E90310C8
:1047E00002AB007809790122FEF7B6FD002840F0FF
:1047F00085800C208DF80800D7E9031002AB007803
:1048000009790122FEF7A8FD002877D10F20FCF7D7
:104810007DFB786BF968407A3A698DF8080010786A
:10482000897802AB0122FEF797FD002866D1786BEC
:10483000F968007A3A698DF808001078497802AB77
:104840000122FEF789FD002858D1786BD7E90312C1
:10485000807A002E18BF40F0E0008DF80800107834
:10486000897902AB0122FEF777FD002846D12EB1EF
:10487000786BC07A60F01F0001E000BF18208DF84F
:104880000800D7E9031002AB0078C9790122FEF7CE
:1048900063FD98BB16B1C820FCF738FB40208DF8AB
:1048A0000800D7E9031002AB007809790122FEF76E
:1048B00053FD18BB78208DF80800D7E9031002AB30
:1048C000007849790122FEF747FDB8B93220FCF79C
:1048D0001DFB00208DF80800D7E9031002AB00781B
:1048E00049790122FEF738FD40B9D7E9031002AB40
:1048F0000078897A0222FEF7D5FC28B14FF0FF3705
:10490000384605B0BDE8F08FBDF808004AF6AB2187
:1049100000BA000C4843C0F3C7420021002AC5E991
:104920000011A960C4E900110192A16044D0C00C3B
:1049300000260DF108095FFA80F8D7E903100C2270
:104940000078C97A4B46FEF7ADFC0028D6D1BDF8F9
:104950000800BDF80C20BDF80A1090FA80FC92FA0D
:1049600082FED4E90030A26809BA00EB214002EBD4
:104970002E4103EB2C43A160BDF81010C4E90030B8
:10498000BDF81220BDF80E0091FA81FEA96892FAD6
:1049900082FCD5E90032013600BA01EB2C4AF1B2B3
:1049A00003EB204002EB2E4B4145C5E9000BC5F857
:1049B00008A0C2D304E000BFD5E9000BD5F808A0D9
:1049C000C117090441EA1041000483220023002793
:1049D000FBF70AFCDDF8048000234246FBF704FCE9
:1049E00028604FEAEB70000440EA1B414FEA0B409D
:1049F00083220023FBF7F8FB42460023FBF7F4FB7E
:104A000068604FEAEA70000440EA1A414FEA0A403F
:104A100083220023FBF7E8FB42460023FBF7E4FB7D
:104A2000A860D4E90006A568C117490141EAD06130
:104A3000400142460023FBF7D7FB2060F0174001FE
:104A400040EAD661700142460023FBF7CDFB60606F
:104A5000E817400140EAD561680142460023FBF7B0
:104A6000C3FB4FF480310028C4BF0021CFF6FF7193
:104A70000844A060384605B0BDE8F08F90F90010FA
:104A800000290DDD002190F90320002A10DD00220D
:104A900090F90630002B13DD0020114308437047C6
:104AA00018D490F9011000291EDD0121EBE700BFA9
:104AB00012D490F90420002A1EDD0822E8E700BF86
:104AC0000CD490F90730002B1EDD40201143084321
:104AD000704700BF0421D6E72022D9E74FF4807049
:104AE00011430843704700BF18D490F90210002901
:104AF0001EDD0221C7E700BF12D490F90520002A6D
:104B00001CDD1022C4E700BF0CD490F90800002877
:104B10001ADD802011430843704700BF0521B2E72A
:104B20002822B5E74FF4A07011430843704700BF37
:104B30004FF0060108BF0721A5E700BF4FF0300284
:104B400008BF3822A4E700BF4FF4C07008BF4FF47D
:104B5000E07011430843704790B0FCF7CDFC00248F
:104B60000120CDE90B44CDE9094406900A904FF4A9
:104B7000E0104FF4803102250F9006A8CDE907140C
:104B8000CDE90D51FCF752FE20B1EFF3108072B663
:104B9000FEE700BF0F20CDE901054FF48060CDE9AD
:104BA000040401A802210394FCF74CFD20B1EFF3AB
:104BB000108072B6FEE700BFFEF7FCFBFEF760FC5C
:104BC000FEF780FCFEF70EFDFEF746FDFEF77EFDCC
:104BD000FEF712FEFEF7BAFDFEF706FB00F0C2F983
:104BE0002DA2002000211023FEF7F2FF1720002144
:104BF0000022FCF7EBFC1720FCF7D8FC40F2D414A1
:104C0000C2F2000420460021FDF77AFD20460C2167
:104C1000FDF776FD00200021FEF76CFAFEF796FD09
:104C200040F2FC0840F2281440F2001A40F2081545
:104C3000C2F20008C2F200040FF26809C2F2000AD0
:104C40001CA6C2F200051FA7D8F80020204649463E
:104C5000FBF704FB0020002122461023FEF7B8FFDB
:104C6000DAF8002020463146FBF7F8FA002002214E
:104C700022461023FEF7ACFF286803F0C7FA02466D
:104C80000B4620463946FBF7E9FA0020042122466C
:104C90001023FEF79DFFD7E7496E697420537563B3
:104CA00065737300456E636F6465725F4C3A25648B
:104CB00020202000456E636F6465725F523A256460
:104CC00020202000726F6C6C3A252E316620202047
:104CD0000000000070470000F0B581B040F2100500
:104CE000C2F2000595F8301021B10024204601B031
:104CF000F0BD00BFA97D69B300F0FE0739402E7FEB
:104D0000CC1B95F8200018BF4FF0FF34002F2977F7
:104D100008BF002824D0687F78B901208DF80200F0
:104D2000D5E903100DF102030078C97B0122FEF7DB
:104D300013FB10B99DF802006877002FD6D000F061
:104D40007DFC00281CBF2E774FF0FF34204601B0B9
:104D5000F0BD00BF4FF0FF34204601B0F0BD00BFF2
:104D600000208DF80300D5E903100DF1030300784E
:104D7000C97B0122FEF7F0FA0028B7D19DF80300A5
:104D80006877204601B0F0BD2DE9F04F8FB00546A1
:104D90000DF12A0014460E460DF1290700900DF181
:104DA00032000BA906AA0EAB0197FFF7D9F918B18B
:104DB00001200FB0BDE8F08FBDF82A00C00503D474
:104DC00002200FB0BDE8F08F06980594079C04966A
:104DD000DDE9086703F0F0FB4FF0425103F080FC7F
:104DE0008046204603F0E8FB4FF0425103F078FC88
:104DF0008346304603F0E0FB4FF0425103F070FC75
:104E00000446384603F0D8FB4FF0425103F068FCEB
:104E1000814658464FF0404103F062FC82464046CE
:104E20004146CDF80C8003F01DFA2146804603F080
:104E300057FC06465046494603F052FC314603F003
:104E400011FA03F0E3F902F0E7F84AF26663C4F2FC
:104E50004C034FF0663202F0FBFE02F02FFC28609C
:104E60002046214603F0FEF906464046594603F027
:104E700037FC05463046494603F032FC294603F02C
:104E8000F1F903F0C3F905460F462046314603F019
:104E900027FC06465046594603F022FC314603F0F3
:104EA000EBFC4FF07E5103F0DDF903F0AFF9024661
:104EB0000B462846394602F0F7FA4AF26668C4F211
:104EC0004C084FF06632434602F0C2FE02F0F6FB99
:104ED0000499039F08603846494603F001FC0546E3
:104EE0005846214603F0FCFB294603F0BBF9014676
:104EF00003F0B8F903F08AF905468A465846594640
:104F000003F0EEFB06463846394603F0E9FB31462E
:104F100003F0A8F906462046214603F0E1FB0146CE
:104F2000304603F0A9FC04464846494603F0D8FB46
:104F30000146204603F0A0FC03F068F902460B4648
:104F40002846514602F0B0FA4FF06632434602F06E
:104F50007FFE02F0B3FB0599086000200FB0BDE8AA
:104F6000F08F000070B582B0FDF7BEFE00F0B4F81F
:104F700010B10A2002B070BD782001F0DFFA0006FF
:104F800002D0012002B070BD40F21004C2F2000451
:104F900094F8300040B1642001F02CFA000621D0D2
:104FA000032002B070BD00BFA07D98B3617F257F54
:104FB00000F07806267779B901208DF80700D4E94A
:104FC00003100DF107030078C97B0122FEF7C4F935
:104FD00010B99DF80700607700F030FBC0B125776D
:104FE00018E000BFFFF7B0F8000603D0042002B0BD
:104FF00070BD00BF40F21000C2F20000FFF73EFD9E
:10500000FFF79AFA000609D0052002B070BD00BF74
:10501000782EC0D0022002B070BD00BF40F27310E5
:10502000FEF742FF000603D0062002B070BD00BFAD
:105030006420FFF7E7F9000602D0072002B070BD38
:1050400001F024FB012001F017F9C0B2002818BFBD
:10505000092002B070BD000040F21001C2F2000150
:105060004A7D032A84BF4FF0FF30704740F202436D
:10507000D200C1F20803D3400370C97F002904BFE6
:105080000020704740F60401C2F21001D1400170C7
:105090000020704740F21002C2F20002517D032945
:1050A00084BF4FF0FF30704707A3D27F33F8113031
:1050B000002A038004BF0020704705A232F81110B7
:1050C00001800020704700BF00409C1F00100008B6
:1050D0000020CE0F0008000410B582B040F210048A
:1050E0008020C2F200048DF80100D4E903100DF114
:1050F00001030078897C0122FEF72EF9C8B96420EB
:10510000FBF704FF00208DF80100D4E903100DF136
:1051100001030078897C0122FEF71EF948B9D4E921
:1051200003100DF101030078897D0622FEF7BAF81D
:1051300020B14FF0FF34204602B010BD9DF806109C
:105140009DF802009DF80420890062F3410100F0FF
:105150000100084410F0070006D0012816D00228EC
:10516000E7D1002013E000BFD4E903100DF10103E3
:105170000078C9780122FEF795F80028D9D19DF86A
:10518000010010F00F00D4D00428EAD10120E0770C
:105190004FF6FF706083FF202077A0774FF0FF303D
:1051A00060610020C4E90800A062A085C4F82F0057
:1051B00084F8330018208DF80700D4E90310012289
:1051C00000788979227684F82E200DF107030122D8
:1051D000FEF7C2F80028ACD19DF80700C008207582
:1051E000022000F083FF0028A3D12A2001F0B4F8A8
:1051F00000289ED1322001F0FDF8002899D100202E
:10520000FFF76AFD002894D1002000F0BDFF0028C0
:105210008FD10020002401F091F9204602B010BD8A
:105220002DE9F04F89B0074600294FF0FF3000F01C
:10523000908040F21009C2F20009884699F83110B6
:10524000002940F08680002FCDE9003267D000248D
:105250004FF0000ACDF80880A7EB040B99F8160070
:10526000BBF1100FA8BF4FF0100B002865D0D9F884
:1052700010005FFA8AF11FFA8BF342895E189AFADE
:105280008AF196424FEA11410393ADF8221054D8A7
:10529000D9F80C100078097E02220DF12203FEF7E6
:1052A0005BF8002849D1D9E9031044440078497DCE
:1052B0005FFA8BF8424623464D46FEF74DF8E0BBB9
:1052C000A87DD0B328691FFA8AF142892B46090AC2
:1052D00096428DF822108DF823A02ED8D968007838
:1052E000097E02220DF12203FEF736F828BBD9E928
:1052F00003100DF112050078497D42462B46FDF75B
:10530000D1FFD0B9039A20462946FBF77EF818BB97
:10531000DA441FFA8AF4DDF80880BC429CD3019875
:105320000DF1220340BAADF82200D9E903100222A0
:105330000078897EFEF710F820B14FF0FF3009B0F9
:10534000BDE8F08F012089F831000098A9F83200FB
:10535000002009B0BDE8F08F6FF0010009B0BDE892
:10536000F08F000070B584B0282800F2E08040F291
:10537000100504460028C2F2000543D095F82F001E
:1053800001281FD0A87F95F82E103222002808BFD0
:1053900030228DF80A2039B16FF04D01002808BF86
:1053A0006FF04F018DF80A10D5E903100DF10A03D3
:1053B0000078097D01220126FDF7CEFF002808BFF5
:1053C00085F82F602020012C8DF8070052D1A87D90
:1053D00000218DF8081090B1E87D062106288DF88F
:1053E0000B100CD0D5E903100DF10B030078897870
:1053F0000122FDF7B1FF10B99DF80B00E8750720F9
:1054000089E000BF95F82F0000B3A87F95F82E1013
:105410000246002818BF012252008DF8092039B138
:105420006FF07D01002808BF6FF07F018DF8091033
:10543000D5E903100DF109030078097D0122FDF77C
:105440008BFF002804BF002085F82F004FF4E06098
:10545000ADF80700D5E903100DF107030078897C4A
:105460000222FDF779FF002861D1002085F8200095
:1054700004B070BD052C19D8A87D01218DF8081045
:1054800088B1E87D062106288DF80C100BD0D5E9EF
:10549000031003AB007889780122FDF75DFF10B996
:1054A0009DF80C00E875472035E000BF142C19D892
:1054B000A87D02218DF8081090B1E87D052105280E
:1054C0008DF80D100CD0D5E903100DF10D03007807
:1054D00089780122FDF740FF10B99DF80D00E875AD
:1054E000872018E0A87D03218DF8081090B1E87D91
:1054F000042104288DF80E100CD0D5E903100DF10D
:105500000E03007889780122FDF726FF10B99DF877
:105510000E00E875C7208DF80800D5E903100DF1DD
:1055200007030078897C0222FDF716FF20B14FF0B7
:10553000FF3004B070BD00BF95F830100820A8758A
:10554000002000294FF00101287685F8201001D0B5
:1055500004B070BD697F287779B901208DF80F00FC
:10556000D5E903100DF10F030078C97B0122FDF787
:10557000F3FE10B99DF80F006877002004B070BDED
:105580002DE9F04182B040F21007C2F200070E464A
:1055900097F83010054600294FF0FF3042D0B97D12
:1055A00000293FD0D7E9031014460078897A0DF11D
:1055B00006030222FDF776FE20B14FF0FF3002B065
:1055C000BDE8F081BDF80600000490FA80F8A84517
:1055D00006D2002020704FF0FF3002B0BDE8F0810D
:1055E00038694188B8EB510F0ED9F9680078497CC9
:1055F0000DF106030122FDF755FE0028DDD19DF8CF
:105600000600C00612D43869F9680078C97AEAB28F
:105610003346FDF747FE0028CFD1B8FBF5F001383F
:105620002070002002B0BDE8F08100BF00F006F855
:105630006FF0010002B0BDE8F081000010B582B04B
:1056400040F21004C2F20004A07D00B300208DF8E7
:105650000700D4E903100DF107030078C97B01228C
:10566000FDF77AFE98B9D4E903100DF1070300782D
:1056700049790122FDF770FE48B9D4E903100DF114
:105680000703007809790122FDF766FE20B14FF08B
:10569000FF3002B010BD00BF94F83000002845D0A4
:1056A0000C208DF80700D4E903100DF107030078F2
:1056B00009790122FDF750FE0028E8D13220FBF7DE
:1056C00025FCA07D0DF10703C0076FF01F0008BF88
:1056D0006FF03F008DF80700D4E903100122007835
:1056E0000979FDF739FE0028D1D1607F0DF107035C
:1056F000002818BF012040008DF80700D4E90310EE
:1057000001220078C97BFDF727FE0028BFD10020C9
:105710008DF80700D4E903100DF1070300784979EB
:105720000122FDF719FE0028B1D145E004208DF8D3
:105730000700D4E903100DF107030078097901226D
:10574000FDF70AFE0028A2D1A07DA17FC0074FF07F
:10575000600008BF4020002918BF40208DF80700D6
:10576000D4E903100DF10703007809790122FDF750
:10577000F3FD00288BD13220FBF7C8FB607F0DF1D1
:105780000703002818BF01208DF80700D4E9031093
:1057900001220078C97BFDF7DFFD00287FF477AF99
:1057A000D4E9031004F11C03007849790122FDF7C4
:1057B000D3FD00287FF46BAF002002B010BD0000C5
:1057C0002DE9F04F93B040F2100AC2F2000A9AF8A5
:1057D00030408946054614B1002000F04DFD9AF88E
:1057E000140003280CD8FA22DFE800F01402122873
:1057F0004FF4FA729AF815000B9203280FD924E09F
:1058000000229AF815000B92032808D91DE000BF6A
:105810004FF47A729AF815000B92032815D80FF6F8
:10582000BC029AF81F3002EB80020FF6A001002B99
:1058300008BF01EB80021068023808E04FF4FA62FA
:105840009AF815000B920328E9D96FF001000A902D
:105850009AF817000138C1B205291BD800F03F00A3
:10586000B0FA80F1490909910321C14001F0010119
:1058700007910721C14001F0010106910F21C140AC
:1058800001F0010105911F2121FA00F000F0010053
:1058900009E000BF0020099000200790002006903A
:1058A0000020059000200490BAF81A809AF816702B
:1058B0009AF81C60284649460022FEF745FF48B189
:1058C0002846494600224FF0000BFEF73DFF002816
:1058D00040F04B830FA80CA901220895FEF734FF76
:1058E00040B10FA80CA90122FEF72EFF10B14FF016
:1058F000000B3AE3DAF8100012AB00780D21042215
:105900000397CDE90164FDF7CDFCCDF8008058B3D5
:10591000D9F800000C99401A48BF404202F04CFEF2
:105920004FF05E5102F0DCFE04462846002102F0F2
:10593000FBFC002846D12046294602F02BFD002121
:10594000CBF6807102F08EFC45F6294120F0004034
:10595000C3F60F6102F004FD00280CBF4FF00108F0
:105960004FF0000842E000BF9DF848009DF84B60F2
:105970009DF849201C259DF84A3005EAD000C6F361
:105980000111091805EAD200C6F3810200EB0207F3
:1059900005EAD30B06F0030400F0D680B1F101084C
:1059A00000F0E68018F00302A1F1020000F0EA80A6
:1059B000012A40F0F1804FF6AD75C3F6B36580461D
:1059C000F9E000BF49F69A11C3F69961204602F04A
:1059D000CEFC43F233310546C3F67371204602F024
:1059E000B1FC55EA000818BF4FF00108D9F80400CF
:1059F0000D99401A48BF404202F0DEFD4FF05E5163
:105A000002F06EFE05463046002102F08DFCA8B97A
:105A10002846314602F0BEFC0021CBF6807102F030
:105A200021FC45F6294120F00040C3F60F6102F049
:105A300097FC002808BF08F1020815E043F2333153
:105A4000C3F67371284608F1020402F07BFC49F6A4
:105A50009A110028C3F69961284618BFA04602F0A3
:105A600086FC002818BFA046D9F808000E99401AF5
:105A700048BF404202F0A0FD4FF05E5102F030FE00
:105A800004463846002102F04FFCA8B920463946AA
:105A900002F080FC0021CBF6807102F0E3FB45F6BA
:105AA000294120F00040C3F60F6102F059FC0028A4
:105AB00008BF08F1040815E043F23331C3F67371EF
:105AC000204608F1040502F03DFC49F69A11002831
:105AD000C3F69961204618BFA84602F048FC00288A
